{"contracts/QuillyToken.sol":{"QuillyToken":{"abi":[{"inputs":[],"stateMutability":"nonpayable","type":"constructor"},{"anonymous":false,"inputs":[{"indexed":true,"internalType":"address","name":"owner","type":"address"},{"indexed":true,"internalType":"address","name":"spender","type":"address"},{"indexed":false,"internalType":"uint256","name":"value","type":"uint256"}],"name":"Approval","type":"event"},{"anonymous":false,"inputs":[{"indexed":true,"internalType":"address","name":"user","type":"address"},{"indexed":false,"internalType":"uint256","name":"amount","type":"uint256"}],"name":"FaucetClaim","type":"event"},{"anonymous":false,"inputs":[{"indexed":true,"internalType":"address","name":"from","type":"address"},{"indexed":true,"internalType":"address","name":"to","type":"address"},{"indexed":false,"internalType":"uint256","name":"amount","type":"uint256"},{"indexed":false,"internalType":"string","name":"articleId","type":"string"}],"name":"Tip","type":"event"},{"anonymous":false,"inputs":[{"indexed":true,"internalType":"address","name":"from","type":"address"},{"indexed":true,"internalType":"address","name":"to","type":"address"},{"indexed":false,"internalType":"uint256","name":"value","type":"uint256"}],"name":"Transfer","type":"event"},{"inputs":[{"internalType":"address","name":"_owner","type":"address"},{"internalType":"address","name":"spender","type":"address"}],"name":"allowance","outputs":[{"internalType":"uint256","name":"","type":"uint256"}],"stateMutability":"view","type":"function"},{"inputs":[{"internalType":"address","name":"spender","type":"address"},{"internalType":"uint256","name":"amount","type":"uint256"}],"name":"approve","outputs":[{"internalType":"bool","name":"","type":"bool"}],"stateMutability":"nonpayable","type":"function"},{"inputs":[{"internalType":"address","name":"account","type":"address"}],"name":"balanceOf","outputs":[{"internalType":"uint256","name":"","type":"uint256"}],"stateMutability":"view","type":"function"},{"inputs":[],"name":"claimFaucet","outputs":[],"stateMutability":"nonpayable","type":"function"},{"inputs":[],"name":"decimals","outputs":[{"internalType":"uint8","name":"","type":"uint8"}],"stateMutability":"view","type":"function"},{"inputs":[],"name":"faucetAmount","outputs":[{"internalType":"uint256","name":"","type":"uint256"}],"stateMutability":"view","type":"function"},{"inputs":[],"name":"faucetCooldown","outputs":[{"internalType":"uint256","name":"","type":"uint256"}],"stateMutability":"view","type":"function"},{"inputs":[{"internalType":"address","name":"","type":"address"}],"name":"lastFaucetClaim","outputs":[{"internalType":"uint256","name":"","type":"uint256"}],"stateMutability":"view","type":"function"},{"inputs":[],"name":"name","outputs":[{"internalType":"string","name":"","type":"string"}],"stateMutability":"view","type":"function"},{"inputs":[],"name":"owner","outputs":[{"internalType":"address","name":"","type":"address"}],"stateMutability":"view","type":"function"},{"inputs":[],"name":"symbol","outputs":[{"internalType":"string","name":"","type":"string"}],"stateMutability":"view","type":"function"},{"inputs":[{"internalType":"address","name":"writer","type":"address"},{"internalType":"uint256","name":"amount","type":"uint256"},{"internalType":"string","name":"articleId","type":"string"}],"name":"tipWriter","outputs":[],"stateMutability":"nonpayable","type":"function"},{"inputs":[],"name":"totalSupply","outputs":[{"internalType":"uint256","name":"","type":"uint256"}],"stateMutability":"view","type":"function"},{"inputs":[{"internalType":"address","name":"recipient","type":"address"},{"internalType":"uint256","name":"amount","type":"uint256"}],"name":"transfer","outputs":[{"internalType":"bool","name":"","type":"bool"}],"stateMutability":"nonpayable","type":"function"},{"inputs":[{"internalType":"address","name":"sender","type":"address"},{"internalType":"address","name":"recipient","type":"address"},{"internalType":"uint256","name":"amount","type":"uint256"}],"name":"transferFrom","outputs":[{"internalType":"bool","name":"","type":"bool"}],"stateMutability":"nonpayable","type":"function"}],"evm":{"bytecode":{"linkReferences":{},"object":"6080604052346101a9576100146003546101ae565b601f811161015c575b507f5175696c6c7920546f6b656e000000000000000000000000000000000000001860035560045461004e906101ae565b601f811161010f575b600a64145552531360da1b016004556005805468056bc75e2d631000006007556201518060089081556001600160a81b031990911633821b610100600160a81b03161760121780835569d3c21bcecceda1000000600281905590821c6001600160a01b03908116600090815260208181526040808320859055955495519384529490931c16927fddf252ad1be2c89b69c2b068fc378daa952ba7f163c4a11628f55a4df523b3ef91a3604051610aee90816101e98239f35b6004600090815290601f0160051c7f8a35acfbc15ff81a39ae7d344fd709f28e8600b4aa8c65c6b64bfe7fe36bd19b908101905b818110610151575050610057565b828155600101610143565b6003600090815290601f0160051c7fc2575a0e9e593c00f959f8c92f12db2869c3395a3b0502d05e2516446f71f85b908101905b81811061019e57505061001d565b828155600101610190565b600080fd5b90600182811c921680156101de575b60208310146101c857565b634e487b7160e01b600052602260045260246000fd5b91607f16916101bd56fe608060408181526004918236101561001657600080fd5b600092833560e01c91826306fdde03146106f457508163095ea7b3146106ca57816318160ddd146106ab57816323b872dd146105ea578163313ce567146105c85781634fe153351461049a57816370a08231146104635781637e36320b146104445781638a8772051461040c5781638da5cb5b146103df57816395d89b41146102c05781639c281430146102a1578163a9059cbb14610270578163b358b6bf14610115575063dd62ed3e146100ca57600080fd5b34610111578060031936011261011157806020926100e6610815565b6100ee610830565b6001600160a01b0391821683526001865283832091168252845220549051908152f35b5080fd5b9190503461026c57606036600319011261026c57610131610815565b90602435906044359067ffffffffffffffff9384831161026857366023840112156102685782860135948511610268573660248685010111610268576001600160a01b03811695861561022c5784156101e9575083928580936101b87fafb35acfea9a0921fe84d2b828fcd2f9aadad14827c8b43e341b89e5282b30ea9760249533610876565b805195865280602087015285015201606083013784606084830101526060813394601f80199101168101030190a380f35b606490602084519162461bcd60e51b8352820152601d60248201527f416d6f756e74206d7573742062652067726561746572207468616e20300000006044820152fd5b606490602084519162461bcd60e51b83528201526016602482015275496e76616c696420777269746572206164647265737360501b6044820152fd5b8680fd5b8280fd5b50503461011157806003193601126101115760209061029a610290610815565b6024359033610876565b5160018152f35b5050346101115781600319360112610111576020906007549051908152f35b838334610111578160031936011261011157805190828454600181811c908083169283156103d5575b60209384841081146103c2578388529081156103a65750600114610351575b505050829003601f01601f191682019267ffffffffffffffff84118385101761033e575082918261033a9252826107cc565b0390f35b634e487b7160e01b815260418552602490fd5b8787529192508591837f8a35acfbc15ff81a39ae7d344fd709f28e8600b4aa8c65c6b64bfe7fe36bd19b5b8385106103925750505050830101858080610308565b80548886018301529301928490820161037c565b60ff1916878501525050151560051b8401019050858080610308565b634e487b7160e01b895260228a52602489fd5b91607f16916102e9565b505034610111578160031936011261011157600554905160089190911c6001600160a01b03168152602090f35b5050346101115760203660031901126101115760209181906001600160a01b03610434610815565b1681526006845220549051908152f35b5050346101115781600319360112610111576020906008549051908152f35b5050346101115760203660031901126101115760209181906001600160a01b0361048b610815565b16815280845220549051908152f35b90503461026c578260031936011261026c57338352602090600682526104c68385205460085490610869565b42106105875760055460081c6001600160a01b03908116855284835283852054600754919291116105445750906105367fcc2505ec091bdc5fd7142331ffc3324587b40a9880fc5272f28515d2249fe05a9233865260068352428587205560055460081c16600754903390610876565b60075492519283523392a280f35b835162461bcd60e51b8152908101839052601b60248201527f496e73756666696369656e74206661756365742062616c616e636500000000006044820152606490fd5b915162461bcd60e51b815291820152601760248201527f46617563657420636f6f6c646f776e206e6f74206d65740000000000000000006044820152606490fd5b50503461011157816003193601126101115760209060ff600554169051908152f35b905082346106a85760603660031901126106a857610606610815565b9161060f610830565b846044359360018060a01b0386168152600160205281812033825260205220549183831061065b5760208661029a87610653888861064e828a86610876565b610846565b9033906109cd565b608490602087519162461bcd60e51b8352820152602160248201527f5472616e7366657220616d6f756e74206578636565647320616c6c6f77616e636044820152606560f81b6064820152fd5b80fd5b5050346101115781600319360112610111576020906002549051908152f35b50503461011157806003193601126101115760209061029a6106ea610815565b60243590336109cd565b8490843461026c578260031936011261026c5782600354600181811c908083169283156107c2575b60209384841081146103c2578388529081156103a6575060011461076c57505050829003601f01601f191682019267ffffffffffffffff84118385101761033e575082918261033a9252826107cc565b600387529192508591837fc2575a0e9e593c00f959f8c92f12db2869c3395a3b0502d05e2516446f71f85b5b8385106107ae5750505050830101858080610308565b805488860183015293019284908201610798565b91607f169161071c565b6020808252825181830181905290939260005b82811061080157505060409293506000838284010152601f8019910116010190565b8181018601518482016040015285016107df565b600435906001600160a01b038216820361082b57565b600080fd5b602435906001600160a01b038216820361082b57565b9190820391821161085357565b634e487b7160e01b600052601160045260246000fd5b9190820180921161085357565b6001600160a01b03908116918215610988571691821561094357600082815280602052816040822054106108fe577fddf252ad1be2c89b69c2b068fc378daa952ba7f163c4a11628f55a4df523b3ef9160408285602094528084528181206108df848254610846565b9055868152808452206108f3828254610869565b9055604051908152a3565b60405162461bcd60e51b815260206004820152601f60248201527f5472616e7366657220616d6f756e7420657863656564732062616c616e6365006044820152606490fd5b60405162461bcd60e51b815260206004820152601860248201527f5472616e7366657220746f207a65726f206164647265737300000000000000006044820152606490fd5b60405162461bcd60e51b815260206004820152601a60248201527f5472616e736665722066726f6d207a65726f20616464726573730000000000006044820152606490fd5b6001600160a01b03908116918215610a735716918215610a2e5760207f8c5be1e5ebec7d5bd14f71427d1e84f3dd0314c0f7b2291e5b200ac8c7c3b925918360005260018252604060002085600052825280604060002055604051908152a3565b60405162461bcd60e51b815260206004820152601760248201527f417070726f766520746f207a65726f20616464726573730000000000000000006044820152606490fd5b60405162461bcd60e51b815260206004820152601960248201527f417070726f76652066726f6d207a65726f2061646472657373000000000000006044820152606490fdfea2646970667358221220d44f98a8e13dbd2912f3a0e07c85e633968b6179a848856324148c897cb9aef364736f6c63430008140033","opcodes":"PUSH1 0x80 PUSH1 0x40 MSTORE CALLVALUE PUSH2 0x1A9 JUMPI PUSH2 0x14 PUSH1 0x3 SLOAD PUSH2 0x1AE JUMP JUMPDEST PUSH1 0x1F DUP2 GT PUSH2 0x15C JUMPI JUMPDEST POP PUSH32 0x5175696C6C7920546F6B656E0000000000000000000000000000000000000018 PUSH1 0x3 SSTORE PUSH1 0x4 SLOAD PUSH2 0x4E SWAP1 PUSH2 0x1AE JUMP JUMPDEST PUSH1 0x1F DUP2 GT PUSH2 0x10F JUMPI JUMPDEST PUSH1 0xA PUSH5 0x1455525313 PUSH1 0xDA SHL ADD PUSH1 0x4 SSTORE PUSH1 0x5 DUP1 SLOAD PUSH9 0x56BC75E2D63100000 PUSH1 0x7 SSTORE PUSH3 0x15180 PUSH1 0x8 SWAP1 DUP2 SSTORE PUSH1 0x1 PUSH1 0x1 PUSH1 0xA8 SHL SUB NOT SWAP1 SWAP2 AND CALLER DUP3 SHL PUSH2 0x100 PUSH1 0x1 PUSH1 0xA8 SHL SUB AND OR PUSH1 0x12 OR DUP1 DUP4 SSTORE PUSH10 0xD3C21BCECCEDA1000000 PUSH1 0x2 DUP2 SWAP1 SSTORE SWAP1 DUP3 SHR PUSH1 0x1 PUSH1 0x1 PUSH1 0xA0 SHL SUB SWAP1 DUP2 AND PUSH1 0x0 SWAP1 DUP2 MSTORE PUSH1 0x20 DUP2 DUP2 MSTORE PUSH1 0x40 DUP1 DUP4 KECCAK256 DUP6 SWAP1 SSTORE SWAP6 SLOAD SWAP6 MLOAD SWAP4 DUP5 MSTORE SWAP5 SWAP1 SWAP4 SHR AND SWAP3 PUSH32 0xDDF252AD1BE2C89B69C2B068FC378DAA952BA7F163C4A11628F55A4DF523B3EF SWAP2 LOG3 PUSH1 0x40 MLOAD PUSH2 0xAEE SWAP1 DUP2 PUSH2 0x1E9 DUP3 CODECOPY RETURN JUMPDEST PUSH1 0x4 PUSH1 0x0 SWAP1 DUP2 MSTORE SWAP1 PUSH1 0x1F ADD PUSH1 0x5 SHR PUSH32 0x8A35ACFBC15FF81A39AE7D344FD709F28E8600B4AA8C65C6B64BFE7FE36BD19B SWAP1 DUP2 ADD SWAP1 JUMPDEST DUP2 DUP2 LT PUSH2 0x151 JUMPI POP POP PUSH2 0x57 JUMP JUMPDEST DUP3 DUP2 SSTORE PUSH1 0x1 ADD PUSH2 0x143 JUMP JUMPDEST PUSH1 0x3 PUSH1 0x0 SWAP1 DUP2 MSTORE SWAP1 PUSH1 0x1F ADD PUSH1 0x5 SHR PUSH32 0xC2575A0E9E593C00F959F8C92F12DB2869C3395A3B0502D05E2516446F71F85B SWAP1 DUP2 ADD SWAP1 JUMPDEST DUP2 DUP2 LT PUSH2 0x19E JUMPI POP POP PUSH2 0x1D JUMP JUMPDEST DUP3 DUP2 SSTORE PUSH1 0x1 ADD PUSH2 0x190 JUMP JUMPDEST PUSH1 0x0 DUP1 REVERT JUMPDEST SWAP1 PUSH1 0x1 DUP3 DUP2 SHR SWAP3 AND DUP1 ISZERO PUSH2 0x1DE JUMPI JUMPDEST PUSH1 0x20 DUP4 LT EQ PUSH2 0x1C8 JUMPI JUMP JUMPDEST PUSH4 0x4E487B71 PUSH1 0xE0 SHL PUSH1 0x0 MSTORE PUSH1 0x22 PUSH1 0x4 MSTORE PUSH1 0x24 PUSH1 0x0 REVERT JUMPDEST SWAP2 PUSH1 0x7F AND SWAP2 PUSH2 0x1BD JUMP INVALID PUSH1 0x80 PUSH1 0x40 DUP2 DUP2 MSTORE PUSH1 0x4 SWAP2 DUP3 CALLDATASIZE LT ISZERO PUSH2 0x16 JUMPI PUSH1 0x0 DUP1 REVERT JUMPDEST PUSH1 0x0 SWAP3 DUP4 CALLDATALOAD PUSH1 0xE0 SHR SWAP2 DUP3 PUSH4 0x6FDDE03 EQ PUSH2 0x6F4 JUMPI POP DUP2 PUSH4 0x95EA7B3 EQ PUSH2 0x6CA JUMPI DUP2 PUSH4 0x18160DDD EQ PUSH2 0x6AB JUMPI DUP2 PUSH4 0x23B872DD EQ PUSH2 0x5EA JUMPI DUP2 PUSH4 0x313CE567 EQ PUSH2 0x5C8 JUMPI DUP2 PUSH4 0x4FE15335 EQ PUSH2 0x49A JUMPI DUP2 PUSH4 0x70A08231 EQ PUSH2 0x463 JUMPI DUP2 PUSH4 0x7E36320B EQ PUSH2 0x444 JUMPI DUP2 PUSH4 0x8A877205 EQ PUSH2 0x40C JUMPI DUP2 PUSH4 0x8DA5CB5B EQ PUSH2 0x3DF JUMPI DUP2 PUSH4 0x95D89B41 EQ PUSH2 0x2C0 JUMPI DUP2 PUSH4 0x9C281430 EQ PUSH2 0x2A1 JUMPI DUP2 PUSH4 0xA9059CBB EQ PUSH2 0x270 JUMPI DUP2 PUSH4 0xB358B6BF EQ PUSH2 0x115 JUMPI POP PUSH4 0xDD62ED3E EQ PUSH2 0xCA JUMPI PUSH1 0x0 DUP1 REVERT JUMPDEST CALLVALUE PUSH2 0x111 JUMPI DUP1 PUSH1 0x3 NOT CALLDATASIZE ADD SLT PUSH2 0x111 JUMPI DUP1 PUSH1 0x20 SWAP3 PUSH2 0xE6 PUSH2 0x815 JUMP JUMPDEST PUSH2 0xEE PUSH2 0x830 JUMP JUMPDEST PUSH1 0x1 PUSH1 0x1 PUSH1 0xA0 SHL SUB SWAP2 DUP3 AND DUP4 MSTORE PUSH1 0x1 DUP7 MSTORE DUP4 DUP4 KECCAK256 SWAP2 AND DUP3 MSTORE DUP5 MSTORE KECCAK256 SLOAD SWAP1 MLOAD SWAP1 DUP2 MSTORE RETURN JUMPDEST POP DUP1 REVERT JUMPDEST SWAP2 SWAP1 POP CALLVALUE PUSH2 0x26C JUMPI PUSH1 0x60 CALLDATASIZE PUSH1 0x3 NOT ADD SLT PUSH2 0x26C JUMPI PUSH2 0x131 PUSH2 0x815 JUMP JUMPDEST SWAP1 PUSH1 0x24 CALLDATALOAD SWAP1 PUSH1 0x44 CALLDATALOAD SWAP1 PUSH8 0xFFFFFFFFFFFFFFFF SWAP4 DUP5 DUP4 GT PUSH2 0x268 JUMPI CALLDATASIZE PUSH1 0x23 DUP5 ADD SLT ISZERO PUSH2 0x268 JUMPI DUP3 DUP7 ADD CALLDATALOAD SWAP5 DUP6 GT PUSH2 0x268 JUMPI CALLDATASIZE PUSH1 0x24 DUP7 DUP6 ADD ADD GT PUSH2 0x268 JUMPI PUSH1 0x1 PUSH1 0x1 PUSH1 0xA0 SHL SUB DUP2 AND SWAP6 DUP7 ISZERO PUSH2 0x22C JUMPI DUP5 ISZERO PUSH2 0x1E9 JUMPI POP DUP4 SWAP3 DUP6 DUP1 SWAP4 PUSH2 0x1B8 PUSH32 0xAFB35ACFEA9A0921FE84D2B828FCD2F9AADAD14827C8B43E341B89E5282B30EA SWAP8 PUSH1 0x24 SWAP6 CALLER PUSH2 0x876 JUMP JUMPDEST DUP1 MLOAD SWAP6 DUP7 MSTORE DUP1 PUSH1 0x20 DUP8 ADD MSTORE DUP6 ADD MSTORE ADD PUSH1 0x60 DUP4 ADD CALLDATACOPY DUP5 PUSH1 0x60 DUP5 DUP4 ADD ADD MSTORE PUSH1 0x60 DUP2 CALLER SWAP5 PUSH1 0x1F DUP1 NOT SWAP2 ADD AND DUP2 ADD SUB ADD SWAP1 LOG3 DUP1 RETURN JUMPDEST PUSH1 0x64 SWAP1 PUSH1 0x20 DUP5 MLOAD SWAP2 PUSH3 0x461BCD PUSH1 0xE5 SHL DUP4 MSTORE DUP3 ADD MSTORE PUSH1 0x1D PUSH1 0x24 DUP3 ADD MSTORE PUSH32 0x416D6F756E74206D7573742062652067726561746572207468616E2030000000 PUSH1 0x44 DUP3 ADD MSTORE REVERT JUMPDEST PUSH1 0x64 SWAP1 PUSH1 0x20 DUP5 MLOAD SWAP2 PUSH3 0x461BCD PUSH1 0xE5 SHL DUP4 MSTORE DUP3 ADD MSTORE PUSH1 0x16 PUSH1 0x24 DUP3 ADD MSTORE PUSH22 0x496E76616C6964207772697465722061646472657373 PUSH1 0x50 SHL PUSH1 0x44 DUP3 ADD MSTORE REVERT JUMPDEST DUP7 DUP1 REVERT JUMPDEST DUP3 DUP1 REVERT JUMPDEST POP POP CALLVALUE PUSH2 0x111 JUMPI DUP1 PUSH1 0x3 NOT CALLDATASIZE ADD SLT PUSH2 0x111 JUMPI PUSH1 0x20 SWAP1 PUSH2 0x29A PUSH2 0x290 PUSH2 0x815 JUMP JUMPDEST PUSH1 0x24 CALLDATALOAD SWAP1 CALLER PUSH2 0x876 JUMP JUMPDEST MLOAD PUSH1 0x1 DUP2 MSTORE RETURN JUMPDEST POP POP CALLVALUE PUSH2 0x111 JUMPI DUP2 PUSH1 0x3 NOT CALLDATASIZE ADD SLT PUSH2 0x111 JUMPI PUSH1 0x20 SWAP1 PUSH1 0x7 SLOAD SWAP1 MLOAD SWAP1 DUP2 MSTORE RETURN JUMPDEST DUP4 DUP4 CALLVALUE PUSH2 0x111 JUMPI DUP2 PUSH1 0x3 NOT CALLDATASIZE ADD SLT PUSH2 0x111 JUMPI DUP1 MLOAD SWAP1 DUP3 DUP5 SLOAD PUSH1 0x1 DUP2 DUP2 SHR SWAP1 DUP1 DUP4 AND SWAP3 DUP4 ISZERO PUSH2 0x3D5 JUMPI JUMPDEST PUSH1 0x20 SWAP4 DUP5 DUP5 LT DUP2 EQ PUSH2 0x3C2 JUMPI DUP4 DUP9 MSTORE SWAP1 DUP2 ISZERO PUSH2 0x3A6 JUMPI POP PUSH1 0x1 EQ PUSH2 0x351 JUMPI JUMPDEST POP POP POP DUP3 SWAP1 SUB PUSH1 0x1F ADD PUSH1 0x1F NOT AND DUP3 ADD SWAP3 PUSH8 0xFFFFFFFFFFFFFFFF DUP5 GT DUP4 DUP6 LT OR PUSH2 0x33E JUMPI POP DUP3 SWAP2 DUP3 PUSH2 0x33A SWAP3 MSTORE DUP3 PUSH2 0x7CC JUMP JUMPDEST SUB SWAP1 RETURN JUMPDEST PUSH4 0x4E487B71 PUSH1 0xE0 SHL DUP2 MSTORE PUSH1 0x41 DUP6 MSTORE PUSH1 0x24 SWAP1 REVERT JUMPDEST DUP8 DUP8 MSTORE SWAP2 SWAP3 POP DUP6 SWAP2 DUP4 PUSH32 0x8A35ACFBC15FF81A39AE7D344FD709F28E8600B4AA8C65C6B64BFE7FE36BD19B JUMPDEST DUP4 DUP6 LT PUSH2 0x392 JUMPI POP POP POP POP DUP4 ADD ADD DUP6 DUP1 DUP1 PUSH2 0x308 JUMP JUMPDEST DUP1 SLOAD DUP9 DUP7 ADD DUP4 ADD MSTORE SWAP4 ADD SWAP3 DUP5 SWAP1 DUP3 ADD PUSH2 0x37C JUMP JUMPDEST PUSH1 0xFF NOT AND DUP8 DUP6 ADD MSTORE POP POP ISZERO ISZERO PUSH1 0x5 SHL DUP5 ADD ADD SWAP1 POP DUP6 DUP1 DUP1 PUSH2 0x308 JUMP JUMPDEST PUSH4 0x4E487B71 PUSH1 0xE0 SHL DUP10 MSTORE PUSH1 0x22 DUP11 MSTORE PUSH1 0x24 DUP10 REVERT JUMPDEST SWAP2 PUSH1 0x7F AND SWAP2 PUSH2 0x2E9 JUMP JUMPDEST POP POP CALLVALUE PUSH2 0x111 JUMPI DUP2 PUSH1 0x3 NOT CALLDATASIZE ADD SLT PUSH2 0x111 JUMPI PUSH1 0x5 SLOAD SWAP1 MLOAD PUSH1 0x8 SWAP2 SWAP1 SWAP2 SHR PUSH1 0x1 PUSH1 0x1 PUSH1 0xA0 SHL SUB AND DUP2 MSTORE PUSH1 0x20 SWAP1 RETURN JUMPDEST POP POP CALLVALUE PUSH2 0x111 JUMPI PUSH1 0x20 CALLDATASIZE PUSH1 0x3 NOT ADD SLT PUSH2 0x111 JUMPI PUSH1 0x20 SWAP2 DUP2 SWAP1 PUSH1 0x1 PUSH1 0x1 PUSH1 0xA0 SHL SUB PUSH2 0x434 PUSH2 0x815 JUMP JUMPDEST AND DUP2 MSTORE PUSH1 0x6 DUP5 MSTORE KECCAK256 SLOAD SWAP1 MLOAD SWAP1 DUP2 MSTORE RETURN JUMPDEST POP POP CALLVALUE PUSH2 0x111 JUMPI DUP2 PUSH1 0x3 NOT CALLDATASIZE ADD SLT PUSH2 0x111 JUMPI PUSH1 0x20 SWAP1 PUSH1 0x8 SLOAD SWAP1 MLOAD SWAP1 DUP2 MSTORE RETURN JUMPDEST POP POP CALLVALUE PUSH2 0x111 JUMPI PUSH1 0x20 CALLDATASIZE PUSH1 0x3 NOT ADD SLT PUSH2 0x111 JUMPI PUSH1 0x20 SWAP2 DUP2 SWAP1 PUSH1 0x1 PUSH1 0x1 PUSH1 0xA0 SHL SUB PUSH2 0x48B PUSH2 0x815 JUMP JUMPDEST AND DUP2 MSTORE DUP1 DUP5 MSTORE KECCAK256 SLOAD SWAP1 MLOAD SWAP1 DUP2 MSTORE RETURN JUMPDEST SWAP1 POP CALLVALUE PUSH2 0x26C JUMPI DUP3 PUSH1 0x3 NOT CALLDATASIZE ADD SLT PUSH2 0x26C JUMPI CALLER DUP4 MSTORE PUSH1 0x20 SWAP1 PUSH1 0x6 DUP3 MSTORE PUSH2 0x4C6 DUP4 DUP6 KECCAK256 SLOAD PUSH1 0x8 SLOAD SWAP1 PUSH2 0x869 JUMP JUMPDEST TIMESTAMP LT PUSH2 0x587 JUMPI PUSH1 0x5 SLOAD PUSH1 0x8 SHR PUSH1 0x1 PUSH1 0x1 PUSH1 0xA0 SHL SUB SWAP1 DUP2 AND DUP6 MSTORE DUP5 DUP4 MSTORE DUP4 DUP6 KECCAK256 SLOAD PUSH1 0x7 SLOAD SWAP2 SWAP3 SWAP2 GT PUSH2 0x544 JUMPI POP SWAP1 PUSH2 0x536 PUSH32 0xCC2505EC091BDC5FD7142331FFC3324587B40A9880FC5272F28515D2249FE05A SWAP3 CALLER DUP7 MSTORE PUSH1 0x6 DUP4 MSTORE TIMESTAMP DUP6 DUP8 KECCAK256 SSTORE PUSH1 0x5 SLOAD PUSH1 0x8 SHR AND PUSH1 0x7 SLOAD SWAP1 CALLER SWAP1 PUSH2 0x876 JUMP JUMPDEST PUSH1 0x7 SLOAD SWAP3 MLOAD SWAP3 DUP4 MSTORE CALLER SWAP3 LOG2 DUP1 RETURN JUMPDEST DUP4 MLOAD PUSH3 0x461BCD PUSH1 0xE5 SHL DUP2 MSTORE SWAP1 DUP2 ADD DUP4 SWAP1 MSTORE PUSH1 0x1B PUSH1 0x24 DUP3 ADD MSTORE PUSH32 0x496E73756666696369656E74206661756365742062616C616E63650000000000 PUSH1 0x44 DUP3 ADD MSTORE PUSH1 0x64 SWAP1 REVERT JUMPDEST SWAP2 MLOAD PUSH3 0x461BCD PUSH1 0xE5 SHL DUP2 MSTORE SWAP2 DUP3 ADD MSTORE PUSH1 0x17 PUSH1 0x24 DUP3 ADD MSTORE PUSH32 0x46617563657420636F6F6C646F776E206E6F74206D6574000000000000000000 PUSH1 0x44 DUP3 ADD MSTORE PUSH1 0x64 SWAP1 REVERT JUMPDEST POP POP CALLVALUE PUSH2 0x111 JUMPI DUP2 PUSH1 0x3 NOT CALLDATASIZE ADD SLT PUSH2 0x111 JUMPI PUSH1 0x20 SWAP1 PUSH1 0xFF PUSH1 0x5 SLOAD AND SWAP1 MLOAD SWAP1 DUP2 MSTORE RETURN JUMPDEST SWAP1 POP DUP3 CALLVALUE PUSH2 0x6A8 JUMPI PUSH1 0x60 CALLDATASIZE PUSH1 0x3 NOT ADD SLT PUSH2 0x6A8 JUMPI PUSH2 0x606 PUSH2 0x815 JUMP JUMPDEST SWAP2 PUSH2 0x60F PUSH2 0x830 JUMP JUMPDEST DUP5 PUSH1 0x44 CALLDATALOAD SWAP4 PUSH1 0x1 DUP1 PUSH1 0xA0 SHL SUB DUP7 AND DUP2 MSTORE PUSH1 0x1 PUSH1 0x20 MSTORE DUP2 DUP2 KECCAK256 CALLER DUP3 MSTORE PUSH1 0x20 MSTORE KECCAK256 SLOAD SWAP2 DUP4 DUP4 LT PUSH2 0x65B JUMPI PUSH1 0x20 DUP7 PUSH2 0x29A DUP8 PUSH2 0x653 DUP9 DUP9 PUSH2 0x64E DUP3 DUP11 DUP7 PUSH2 0x876 JUMP JUMPDEST PUSH2 0x846 JUMP JUMPDEST SWAP1 CALLER SWAP1 PUSH2 0x9CD JUMP JUMPDEST PUSH1 0x84 SWAP1 PUSH1 0x20 DUP8 MLOAD SWAP2 PUSH3 0x461BCD PUSH1 0xE5 SHL DUP4 MSTORE DUP3 ADD MSTORE PUSH1 0x21 PUSH1 0x24 DUP3 ADD MSTORE PUSH32 0x5472616E7366657220616D6F756E74206578636565647320616C6C6F77616E63 PUSH1 0x44 DUP3 ADD MSTORE PUSH1 0x65 PUSH1 0xF8 SHL PUSH1 0x64 DUP3 ADD MSTORE REVERT JUMPDEST DUP1 REVERT JUMPDEST POP POP CALLVALUE PUSH2 0x111 JUMPI DUP2 PUSH1 0x3 NOT CALLDATASIZE ADD SLT PUSH2 0x111 JUMPI PUSH1 0x20 SWAP1 PUSH1 0x2 SLOAD SWAP1 MLOAD SWAP1 DUP2 MSTORE RETURN JUMPDEST POP POP CALLVALUE PUSH2 0x111 JUMPI DUP1 PUSH1 0x3 NOT CALLDATASIZE ADD SLT PUSH2 0x111 JUMPI PUSH1 0x20 SWAP1 PUSH2 0x29A PUSH2 0x6EA PUSH2 0x815 JUMP JUMPDEST PUSH1 0x24 CALLDATALOAD SWAP1 CALLER PUSH2 0x9CD JUMP JUMPDEST DUP5 SWAP1 DUP5 CALLVALUE PUSH2 0x26C JUMPI DUP3 PUSH1 0x3 NOT CALLDATASIZE ADD SLT PUSH2 0x26C JUMPI DUP3 PUSH1 0x3 SLOAD PUSH1 0x1 DUP2 DUP2 SHR SWAP1 DUP1 DUP4 AND SWAP3 DUP4 ISZERO PUSH2 0x7C2 JUMPI JUMPDEST PUSH1 0x20 SWAP4 DUP5 DUP5 LT DUP2 EQ PUSH2 0x3C2 JUMPI DUP4 DUP9 MSTORE SWAP1 DUP2 ISZERO PUSH2 0x3A6 JUMPI POP PUSH1 0x1 EQ PUSH2 0x76C JUMPI POP POP POP DUP3 SWAP1 SUB PUSH1 0x1F ADD PUSH1 0x1F NOT AND DUP3 ADD SWAP3 PUSH8 0xFFFFFFFFFFFFFFFF DUP5 GT DUP4 DUP6 LT OR PUSH2 0x33E JUMPI POP DUP3 SWAP2 DUP3 PUSH2 0x33A SWAP3 MSTORE DUP3 PUSH2 0x7CC JUMP JUMPDEST PUSH1 0x3 DUP8 MSTORE SWAP2 SWAP3 POP DUP6 SWAP2 DUP4 PUSH32 0xC2575A0E9E593C00F959F8C92F12DB2869C3395A3B0502D05E2516446F71F85B JUMPDEST DUP4 DUP6 LT PUSH2 0x7AE JUMPI POP POP POP POP DUP4 ADD ADD DUP6 DUP1 DUP1 PUSH2 0x308 JUMP JUMPDEST DUP1 SLOAD DUP9 DUP7 ADD DUP4 ADD MSTORE SWAP4 ADD SWAP3 DUP5 SWAP1 DUP3 ADD PUSH2 0x798 JUMP JUMPDEST SWAP2 PUSH1 0x7F AND SWAP2 PUSH2 0x71C JUMP JUMPDEST PUSH1 0x20 DUP1 DUP3 MSTORE DUP3 MLOAD DUP2 DUP4 ADD DUP2 SWAP1 MSTORE SWAP1 SWAP4 SWAP3 PUSH1 0x0 JUMPDEST DUP3 DUP2 LT PUSH2 0x801 JUMPI POP POP PUSH1 0x40 SWAP3 SWAP4 POP PUSH1 0x0 DUP4 DUP3 DUP5 ADD ADD MSTORE PUSH1 0x1F DUP1 NOT SWAP2 ADD AND ADD ADD SWAP1 JUMP JUMPDEST DUP2 DUP2 ADD DUP7 ADD MLOAD DUP5 DUP3 ADD PUSH1 0x40 ADD MSTORE DUP6 ADD PUSH2 0x7DF JUMP JUMPDEST PUSH1 0x4 CALLDATALOAD SWAP1 PUSH1 0x1 PUSH1 0x1 PUSH1 0xA0 SHL SUB DUP3 AND DUP3 SUB PUSH2 0x82B JUMPI JUMP JUMPDEST PUSH1 0x0 DUP1 REVERT JUMPDEST PUSH1 0x24 CALLDATALOAD SWAP1 PUSH1 0x1 PUSH1 0x1 PUSH1 0xA0 SHL SUB DUP3 AND DUP3 SUB PUSH2 0x82B JUMPI JUMP JUMPDEST SWAP2 SWAP1 DUP3 SUB SWAP2 DUP3 GT PUSH2 0x853 JUMPI JUMP JUMPDEST PUSH4 0x4E487B71 PUSH1 0xE0 SHL PUSH1 0x0 MSTORE PUSH1 0x11 PUSH1 0x4 MSTORE PUSH1 0x24 PUSH1 0x0 REVERT JUMPDEST SWAP2 SWAP1 DUP3 ADD DUP1 SWAP3 GT PUSH2 0x853 JUMPI JUMP JUMPDEST PUSH1 0x1 PUSH1 0x1 PUSH1 0xA0 SHL SUB SWAP1 DUP2 AND SWAP2 DUP3 ISZERO PUSH2 0x988 JUMPI AND SWAP2 DUP3 ISZERO PUSH2 0x943 JUMPI PUSH1 0x0 DUP3 DUP2 MSTORE DUP1 PUSH1 0x20 MSTORE DUP2 PUSH1 0x40 DUP3 KECCAK256 SLOAD LT PUSH2 0x8FE JUMPI PUSH32 0xDDF252AD1BE2C89B69C2B068FC378DAA952BA7F163C4A11628F55A4DF523B3EF SWAP2 PUSH1 0x40 DUP3 DUP6 PUSH1 0x20 SWAP5 MSTORE DUP1 DUP5 MSTORE DUP2 DUP2 KECCAK256 PUSH2 0x8DF DUP5 DUP3 SLOAD PUSH2 0x846 JUMP JUMPDEST SWAP1 SSTORE DUP7 DUP2 MSTORE DUP1 DUP5 MSTORE KECCAK256 PUSH2 0x8F3 DUP3 DUP3 SLOAD PUSH2 0x869 JUMP JUMPDEST SWAP1 SSTORE PUSH1 0x40 MLOAD SWAP1 DUP2 MSTORE LOG3 JUMP JUMPDEST PUSH1 0x40 MLOAD PUSH3 0x461BCD PUSH1 0xE5 SHL DUP2 MSTORE PUSH1 0x20 PUSH1 0x4 DUP3 ADD MSTORE PUSH1 0x1F PUSH1 0x24 DUP3 ADD MSTORE PUSH32 0x5472616E7366657220616D6F756E7420657863656564732062616C616E636500 PUSH1 0x44 DUP3 ADD MSTORE PUSH1 0x64 SWAP1 REVERT JUMPDEST PUSH1 0x40 MLOAD PUSH3 0x461BCD PUSH1 0xE5 SHL DUP2 MSTORE PUSH1 0x20 PUSH1 0x4 DUP3 ADD MSTORE PUSH1 0x18 PUSH1 0x24 DUP3 ADD MSTORE PUSH32 0x5472616E7366657220746F207A65726F20616464726573730000000000000000 PUSH1 0x44 DUP3 ADD MSTORE PUSH1 0x64 SWAP1 REVERT JUMPDEST PUSH1 0x40 MLOAD PUSH3 0x461BCD PUSH1 0xE5 SHL DUP2 MSTORE PUSH1 0x20 PUSH1 0x4 DUP3 ADD MSTORE PUSH1 0x1A PUSH1 0x24 DUP3 ADD MSTORE PUSH32 0x5472616E736665722066726F6D207A65726F2061646472657373000000000000 PUSH1 0x44 DUP3 ADD MSTORE PUSH1 0x64 SWAP1 REVERT JUMPDEST PUSH1 0x1 PUSH1 0x1 PUSH1 0xA0 SHL SUB SWAP1 DUP2 AND SWAP2 DUP3 ISZERO PUSH2 0xA73 JUMPI AND SWAP2 DUP3 ISZERO PUSH2 0xA2E JUMPI PUSH1 0x20 PUSH32 0x8C5BE1E5EBEC7D5BD14F71427D1E84F3DD0314C0F7B2291E5B200AC8C7C3B925 SWAP2 DUP4 PUSH1 0x0 MSTORE PUSH1 0x1 DUP3 MSTORE PUSH1 0x40 PUSH1 0x0 KECCAK256 DUP6 PUSH1 0x0 MSTORE DUP3 MSTORE DUP1 PUSH1 0x40 PUSH1 0x0 KECCAK256 SSTORE PUSH1 0x40 MLOAD SWAP1 DUP2 MSTORE LOG3 JUMP JUMPDEST PUSH1 0x40 MLOAD PUSH3 0x461BCD PUSH1 0xE5 SHL DUP2 MSTORE PUSH1 0x20 PUSH1 0x4 DUP3 ADD MSTORE PUSH1 0x17 PUSH1 0x24 DUP3 ADD MSTORE PUSH32 0x417070726F766520746F207A65726F2061646472657373000000000000000000 PUSH1 0x44 DUP3 ADD MSTORE PUSH1 0x64 SWAP1 REVERT JUMPDEST PUSH1 0x40 MLOAD PUSH3 0x461BCD PUSH1 0xE5 SHL DUP2 MSTORE PUSH1 0x20 PUSH1 0x4 DUP3 ADD MSTORE PUSH1 0x19 PUSH1 0x24 DUP3 ADD MSTORE PUSH32 0x417070726F76652066726F6D207A65726F206164647265737300000000000000 PUSH1 0x44 DUP3 ADD MSTORE PUSH1 0x64 SWAP1 REVERT INVALID LOG2 PUSH5 0x6970667358 0x22 SLT KECCAK256 0xD4 0x4F SWAP9 0xA8 0xE1 RETURNDATASIZE 0xBD 0x29 SLT RETURN LOG0 0xE0 PUSH29 0x85E633968B6179A848856324148C897CB9AEF364736F6C634300081400 CALLER "},"methodIdentifiers":{"allowance(address,address)":"dd62ed3e","approve(address,uint256)":"095ea7b3","balanceOf(address)":"70a08231","claimFaucet()":"4fe15335","decimals()":"313ce567","faucetAmount()":"9c281430","faucetCooldown()":"7e36320b","lastFaucetClaim(address)":"8a877205","name()":"06fdde03","owner()":"8da5cb5b","symbol()":"95d89b41","tipWriter(address,uint256,string)":"b358b6bf","totalSupply()":"18160ddd","transfer(address,uint256)":"a9059cbb","transferFrom(address,address,uint256)":"23b872dd"}}}}}