{"contracts/DAOGovernance.sol":{"DAOGovernance":{"abi":[{"inputs":[{"internalType":"address","name":"_quillyToken","type":"address"}],"stateMutability":"nonpayable","type":"constructor"},{"anonymous":false,"inputs":[{"indexed":true,"internalType":"uint256","name":"proposalId","type":"uint256"},{"indexed":true,"internalType":"address","name":"proposer","type":"address"},{"indexed":false,"internalType":"string","name":"title","type":"string"},{"indexed":false,"internalType":"string","name":"category","type":"string"},{"indexed":false,"internalType":"uint256","name":"endTime","type":"uint256"}],"name":"ProposalCreated","type":"event"},{"anonymous":false,"inputs":[{"indexed":true,"internalType":"uint256","name":"proposalId","type":"uint256"},{"indexed":false,"internalType":"bool","name":"passed","type":"bool"}],"name":"ProposalExecuted","type":"event"},{"anonymous":false,"inputs":[{"indexed":true,"internalType":"uint256","name":"proposalId","type":"uint256"},{"indexed":true,"internalType":"address","name":"voter","type":"address"},{"indexed":false,"internalType":"bool","name":"support","type":"bool"},{"indexed":false,"internalType":"uint256","name":"weight","type":"uint256"}],"name":"VoteCast","type":"event"},{"inputs":[],"name":"MIN_VOTING_POWER","outputs":[{"internalType":"uint256","name":"","type":"uint256"}],"stateMutability":"view","type":"function"},{"inputs":[],"name":"PROPOSAL_THRESHOLD","outputs":[{"internalType":"uint256","name":"","type":"uint256"}],"stateMutability":"view","type":"function"},{"inputs":[],"name":"VOTING_PERIOD","outputs":[{"internalType":"uint256","name":"","type":"uint256"}],"stateMutability":"view","type":"function"},{"inputs":[{"internalType":"string","name":"title","type":"string"},{"internalType":"string","name":"description","type":"string"},{"internalType":"string","name":"category","type":"string"}],"name":"createProposal","outputs":[{"internalType":"uint256","name":"","type":"uint256"}],"stateMutability":"nonpayable","type":"function"},{"inputs":[{"internalType":"uint256","name":"proposalId","type":"uint256"}],"name":"executeProposal","outputs":[],"stateMutability":"nonpayable","type":"function"},{"inputs":[],"name":"getActiveProposals","outputs":[{"internalType":"uint256[]","name":"","type":"uint256[]"}],"stateMutability":"view","type":"function"},{"inputs":[{"internalType":"uint256","name":"proposalId","type":"uint256"}],"name":"getProposal","outputs":[{"internalType":"uint256","name":"id","type":"uint256"},{"internalType":"address","name":"proposer","type":"address"},{"internalType":"string","name":"title","type":"string"},{"internalType":"string","name":"description","type":"string"},{"internalType":"string","name":"category","type":"string"},{"internalType":"uint256","name":"forVotes","type":"uint256"},{"internalType":"uint256","name":"againstVotes","type":"uint256"},{"internalType":"uint256","name":"startTime","type":"uint256"},{"internalType":"uint256","name":"endTime","type":"uint256"},{"internalType":"bool","name":"executed","type":"bool"}],"stateMutability":"view","type":"function"},{"inputs":[{"internalType":"uint256","name":"proposalId","type":"uint256"}],"name":"getProposalResult","outputs":[{"internalType":"bool","name":"isPassed","type":"bool"},{"internalType":"uint256","name":"totalVotes","type":"uint256"},{"internalType":"uint256","name":"participationRate","type":"uint256"}],"stateMutability":"view","type":"function"},{"inputs":[{"internalType":"uint256","name":"proposalId","type":"uint256"},{"internalType":"address","name":"voter","type":"address"}],"name":"getVote","outputs":[{"internalType":"bool","name":"","type":"bool"}],"stateMutability":"view","type":"function"},{"inputs":[{"internalType":"uint256","name":"proposalId","type":"uint256"},{"internalType":"address","name":"voter","type":"address"}],"name":"hasVoted","outputs":[{"internalType":"bool","name":"","type":"bool"}],"stateMutability":"view","type":"function"},{"inputs":[],"name":"proposalCount","outputs":[{"internalType":"uint256","name":"","type":"uint256"}],"stateMutability":"view","type":"function"},{"inputs":[{"internalType":"uint256","name":"","type":"uint256"}],"name":"proposals","outputs":[{"internalType":"uint256","name":"id","type":"uint256"},{"internalType":"address","name":"proposer","type":"address"},{"internalType":"string","name":"title","type":"string"},{"internalType":"string","name":"description","type":"string"},{"internalType":"string","name":"category","type":"string"},{"internalType":"uint256","name":"forVotes","type":"uint256"},{"internalType":"uint256","name":"againstVotes","type":"uint256"},{"internalType":"uint256","name":"startTime","type":"uint256"},{"internalType":"uint256","name":"endTime","type":"uint256"},{"internalType":"bool","name":"executed","type":"bool"}],"stateMutability":"view","type":"function"},{"inputs":[],"name":"quillyToken","outputs":[{"internalType":"contract IQuillyToken","name":"","type":"address"}],"stateMutability":"view","type":"function"},{"inputs":[{"internalType":"uint256","name":"proposalId","type":"uint256"},{"internalType":"bool","name":"support","type":"bool"}],"name":"vote","outputs":[],"stateMutability":"nonpayable","type":"function"}],"evm":{"bytecode":{"linkReferences":{},"object":"60803461007457601f6114bd38819003918201601f19168301916001600160401b038311848410176100795780849260209460405283398101031261007457516001600160a01b0381169081900361007457600080546001600160a01b03191691909117905560405161142d90816100908239f35b600080fd5b634e487b7160e01b600052604160045260246000fdfe6080604052600436101561001257600080fd5b60003560e01c8063013cf08b1461102f5780630d61b51914610e845780634385963214610e235780634fa0b19b14610dfa5780635584c4f914610ced578063583cf37914610663578063805a81421461063f578063a6c266031461061b578063b1610d7e146105fd578063bc3f931f1461053e578063c7f758a814610497578063c9d27afe14610211578063da35c664146101f35763f91f88f7146100b657600080fd5b346101cf576020806003193601126101cf57600435801515806101e7575b6100dd90611344565b6000526001815260406000206004600660058301549201546100ff8184611316565b6000546040516318160ddd60e01b815293919291869185919082906001600160a01b03165afa9283156101db576000936101a7575b508311928361019a575b5060648102908082046064148115171561018457821561016e576060946040519415158552840152046040820152f35b634e487b7160e01b600052601260045260246000fd5b634e487b7160e01b600052601160045260246000fd5b600a83041092503861013e565b9092508481813d83116101d4575b6101bf81836110ed565b810103126101cf57519138610134565b600080fd5b503d6101b5565b6040513d6000823e3d90fd5b506002548111156100d4565b346101cf5760003660031901126101cf576020600254604051908152f35b346101cf5760403660031901126101cf576024803580151591600435918381036101cf578215158061048b575b61024790611344565b6000546040516370a0823160e01b8082523360048301526001600160a01b03909216936020939184818381895afa9081156101db57600091610455575b5068056bc75e2d6310000061029a9110156112bb565b85600052600184526040600020926007840154421061041c57600884015442116103e957600a8401913360005282865260ff604060002054166103b6579085916040518098819382523360048301525afa9485156101db57600095610387575b50336000528352604060002060ff1990600182825416179055600b8301845260406000209081541660ff88161790556000146103725760050161033e838254611316565b90555b6040519384528301527fcbdf6214089cba887ecbf35a0b6a734589959c9763342c756bb2a80ca2bc9f6e60403393a3005b600601610380838254611316565b9055610341565b9094508381813d83116103af575b61039f81836110ed565b810103126101cf575193876102fa565b503d610395565b85600d6064926040519262461bcd60e51b845260048401528201526c105b1c9958591e481d9bdd1959609a1b6044820152fd5b60405162461bcd60e51b815260048101869052600c818401526b159bdd1a5b99c8195b99195960a21b6044820152606490fd5b60405162461bcd60e51b81526004810186905260128184015271159bdd1a5b99c81b9bdd081cdd185c9d195960721b6044820152606490fd5b90508481813d8311610484575b61046c81836110ed565b810103126101cf575168056bc75e2d63100000610284565b503d610462565b5060025483111561023e565b346101cf5760203660031901126101cf5760043580151580610532575b6104bd90611344565b60005260016020526040600020805461052e60018060a01b03600184015416926005810154600682015460078301549060088401549260ff600986015416946105086002820161110f565b90610521600461051a6003840161110f565b920161110f565b916040519a8b9a8b6111f5565b0390f35b506002548111156104b4565b346101cf5761054c36611267565b811515806105f1575b61055e90611344565b8160005260209160018352600a6040600020019160018060a01b03169182600052835260ff60406000205416156105b75760005260018252600b60406000200190600052815260ff604060002054166040519015158152f35b60405162461bcd60e51b8152600481018490526012602482015271155cd95c881a185cc81b9bdd081d9bdd195960721b6044820152606490fd5b50600254821115610555565b346101cf5760003660031901126101cf57602060405162093a808152f35b346101cf5760003660031901126101cf576020604051683635c9adc5dea000008152f35b346101cf5760003660031901126101cf57602060405168056bc75e2d631000008152f35b346101cf5760603660031901126101cf5760043567ffffffffffffffff81116101cf5761069490369060040161128d565b9060243567ffffffffffffffff81116101cf576106b590369060040161128d565b919060443567ffffffffffffffff81116101cf576106d790369060040161128d565b91909460018060a01b03600054166040516370a0823160e01b808252336004830152602082602481865afa9182156101db57600092610cb7575b5061072968056bc75e2d6310000060209310156112bb565b60246040518094819382523360048301525afa80156101db57600090610c7c575b683635c9adc5dea00000915010610c375780151580610c2c575b15610bf05784151580610be4575b15610b9f57610782600254611307565b948560025585600052600160205260406000209286845560018401336bffffffffffffffffffffffff60a01b82541617905567ffffffffffffffff83116109fa576107d060028501546110b3565b601f8111610b58575b50826000601f8211600114610aea57600091610adf575b508360011b906000198560031b1c19161760028501555b67ffffffffffffffff82116109fa57819061082560038601546110b3565b601f8111610a8c575b50600090601f8311600114610a1b57600092610a10575b50508160011b916000199060031b1c19161760038301555b67ffffffffffffffff83116109fa5761087960048301546110b3565b601f81116109af575b50826000601f821160011461094157600091610936575b508360011b906000198560031b1c19161760048301555b42600783015562093a80420193844211610184576020968694610915610922936009878a60087fbd04b5479c6dd97d2cc7727f90a20fe21ccf7121f4f9fdc04a755ee528efeb449a01550160ff19815416905560405195606087526060870191611323565b918483038a860152611323565b9360408201528033940390a3604051908152f35b905086013587610899565b9050601f19841690600484016000528460206000209260005b81811061099457501061097a575b5050600183811b0160048301556108b0565b870135600019600386901b60f8161c191690558680610968565b8a84013585556001909401936020938401938893500161095a565b600483016000526020600020601f850160051c810191602086106109f0575b601f0160051c01905b8181106109e45750610882565b600081556001016109d7565b90915081906109ce565b634e487b7160e01b600052604160045260246000fd5b013590508880610845565b909150601f198316916003860160005260206000209260005b818110610a745750908460019594939210610a5a575b505050811b01600383015561085d565b0135600019600384901b60f8161c19169055888080610a4a565b91936020600181928787013581550195019201610a34565b909150600385016000526020600020601f840160051c810160208510610ad8575b90849392915b601f830160051c82018110610ac957505061082e565b60008155859450600101610ab3565b5080610aad565b9050860135896107f0565b90506002850160005260206000209060005b601f1986168110610b40575084601f19811610610b26575b5050600183811b016002850155610807565b870135600019600386901b60f8161c191690558880610b14565b9091602060018192858c013581550193019101610afc565b600285016000526020600020601f850160051c810160208610610b98575b601f830160051c82018110610b8c5750506107d9565b60008155600101610b76565b5080610b76565b60405162461bcd60e51b815260206004820152601a60248201527f496e76616c6964206465736372697074696f6e206c656e6774680000000000006044820152606490fd5b506103e8851115610772565b60405162461bcd60e51b8152602060048201526014602482015273092dcecc2d8d2c840e8d2e8d8ca40d8cadccee8d60631b6044820152606490fd5b506064811115610764565b60405162461bcd60e51b815260206004820152601e60248201527f496e73756666696369656e7420746f6b656e7320746f2070726f706f736500006044820152606490fd5b506020813d602011610caf575b81610c96602093836110ed565b810103126101cf57683635c9adc5dea00000905161074a565b3d9150610c89565b91506020823d602011610ce5575b81610cd2602093836110ed565b810103126101cf57905190610729610711565b3d9150610cc5565b346101cf5760003660031901126101cf57600254610d0a8161139b565b90600091600191825b81811115610d99575050610d268361139b565b9260005b818110610d70575050506040519060208083018184528451809152816040850195019160005b828110610d5d5785870386f35b8351875295810195928101928401610d50565b80610d80610d91928597956113cd565b51610d8b82866113cd565b52611307565b939193610d2a565b8060009593955283602052604060002060088101544211159081610dea575b50610dcf575b610dc790611307565b939193610d13565b91610de28184610d8b610dc794896113cd565b929050610dbe565b60ff915060090154161586610db8565b346101cf5760003660031901126101cf576000546040516001600160a01b039091168152602090f35b346101cf57610e3136611267565b9080151580610e78575b610e4490611344565b6000526001602052600a6040600020019060018060a01b0316600052602052602060ff604060002054166040519015158152f35b50600254811115610e3b565b346101cf576020806003193601126101cf576004359081151580611023575b610eac90611344565b81600052600181526040600020906008820154421115610fe95760098201805460ff8116610fb15760019060ff19161790556006600583015492015482119182610f1f575b507f948f4a9cd986f1118c3fbd459f7a22b23c0693e1ca3ef06a6a8be5aa7d39cc03916040519015158152a2005b6000546040516318160ddd60e01b815293508290849060049082906001600160a01b03165afa9283156101db57600093610f81575b50600a7f948f4a9cd986f1118c3fbd459f7a22b23c0693e1ca3ef06a6a8be5aa7d39cc0393041091610ef1565b92508183813d8311610faa575b610f9881836110ed565b810103126101cf57915191600a610f54565b503d610f8e565b60405162461bcd60e51b815260048101849052601060248201526f105b1c9958591e48195e1958dd5d195960821b6044820152606490fd5b6064906040519062461bcd60e51b825260048201526013602482015272566f74696e67207374696c6c2061637469766560681b6044820152fd5b50600254821115610ea3565b346101cf5760203660031901126101cf5760043560005260016020526040600020805461052e60018060a01b036001840154169261106f6002820161110f565b9061107c6003820161110f565b6110886004830161110f565b600583015460068401549160078501549360ff6009600888015497015416966040519a8b9a8b6111f5565b90600182811c921680156110e3575b60208310146110cd57565b634e487b7160e01b600052602260045260246000fd5b91607f16916110c2565b90601f8019910116810190811067ffffffffffffffff8211176109fa57604052565b9060405191826000825492611123846110b3565b908184526001948581169081600014611192575060011461114f575b505061114d925003836110ed565b565b9093915060005260209081600020936000915b81831061117a57505061114d9350820101388061113f565b85548884018501529485019487945091830191611162565b91505061114d94506020925060ff191682840152151560051b820101388061113f565b919082519283825260005b8481106111e1575050826000602080949584010152601f8019910116010190565b6020818301810151848301820152016111c0565b98959a99969361122e61124a946101209a979461123c948d5260018060a01b031660208d015260408c61014091829101528c01906111b5565b908a820360608c01526111b5565b9088820360808a01526111b5565b9760a087015260c086015260e08501526101008401521515910152565b60409060031901126101cf57600435906024356001600160a01b03811681036101cf5790565b9181601f840112156101cf5782359167ffffffffffffffff83116101cf57602083818601950101116101cf57565b156112c257565b60405162461bcd60e51b815260206004820152601960248201527f496e73756666696369656e7420766f74696e6720706f776572000000000000006044820152606490fd5b60001981146101845760010190565b9190820180921161018457565b908060209392818452848401376000828201840152601f01601f1916010190565b1561134b57565b60405162461bcd60e51b815260206004820152601060248201526f125b9d985b1a59081c1c9bdc1bdcd85b60821b6044820152606490fd5b67ffffffffffffffff81116109fa5760051b60200190565b906113a582611383565b6113b260405191826110ed565b82815280926113c3601f1991611383565b0190602036910137565b80518210156113e15760209160051b010190565b634e487b7160e01b600052603260045260246000fdfea2646970667358221220b4a3fb9e7811c0112ee753862f52b6771d1b3a74c4d787de765ff78617f4732b64736f6c63430008140033","opcodes":"PUSH1 0x80 CALLVALUE PUSH2 0x74 JUMPI PUSH1 0x1F PUSH2 0x14BD CODESIZE DUP2 SWAP1 SUB SWAP2 DUP3 ADD PUSH1 0x1F NOT AND DUP4 ADD SWAP2 PUSH1 0x1 PUSH1 0x1 PUSH1 0x40 SHL SUB DUP4 GT DUP5 DUP5 LT OR PUSH2 0x79 JUMPI DUP1 DUP5 SWAP3 PUSH1 0x20 SWAP5 PUSH1 0x40 MSTORE DUP4 CODECOPY DUP2 ADD SUB SLT PUSH2 0x74 JUMPI MLOAD PUSH1 0x1 PUSH1 0x1 PUSH1 0xA0 SHL SUB DUP2 AND SWAP1 DUP2 SWAP1 SUB PUSH2 0x74 JUMPI PUSH1 0x0 DUP1 SLOAD PUSH1 0x1 PUSH1 0x1 PUSH1 0xA0 SHL SUB NOT AND SWAP2 SWAP1 SWAP2 OR SWAP1 SSTORE PUSH1 0x40 MLOAD PUSH2 0x142D SWAP1 DUP2 PUSH2 0x90 DUP3 CODECOPY RETURN JUMPDEST PUSH1 0x0 DUP1 REVERT JUMPDEST PUSH4 0x4E487B71 PUSH1 0xE0 SHL PUSH1 0x0 MSTORE PUSH1 0x41 PUSH1 0x4 MSTORE PUSH1 0x24 PUSH1 0x0 REVERT INVALID PUSH1 0x80 PUSH1 0x40 MSTORE PUSH1 0x4 CALLDATASIZE LT ISZERO PUSH2 0x12 JUMPI PUSH1 0x0 DUP1 REVERT JUMPDEST PUSH1 0x0 CALLDATALOAD PUSH1 0xE0 SHR DUP1 PUSH4 0x13CF08B EQ PUSH2 0x102F JUMPI DUP1 PUSH4 0xD61B519 EQ PUSH2 0xE84 JUMPI DUP1 PUSH4 0x43859632 EQ PUSH2 0xE23 JUMPI DUP1 PUSH4 0x4FA0B19B EQ PUSH2 0xDFA JUMPI DUP1 PUSH4 0x5584C4F9 EQ PUSH2 0xCED JUMPI DUP1 PUSH4 0x583CF379 EQ PUSH2 0x663 JUMPI DUP1 PUSH4 0x805A8142 EQ PUSH2 0x63F JUMPI DUP1 PUSH4 0xA6C26603 EQ PUSH2 0x61B JUMPI DUP1 PUSH4 0xB1610D7E EQ PUSH2 0x5FD JUMPI DUP1 PUSH4 0xBC3F931F EQ PUSH2 0x53E JUMPI DUP1 PUSH4 0xC7F758A8 EQ PUSH2 0x497 JUMPI DUP1 PUSH4 0xC9D27AFE EQ PUSH2 0x211 JUMPI DUP1 PUSH4 0xDA35C664 EQ PUSH2 0x1F3 JUMPI PUSH4 0xF91F88F7 EQ PUSH2 0xB6 JUMPI PUSH1 0x0 DUP1 REVERT JUMPDEST CALLVALUE PUSH2 0x1CF JUMPI PUSH1 0x20 DUP1 PUSH1 0x3 NOT CALLDATASIZE ADD SLT PUSH2 0x1CF JUMPI PUSH1 0x4 CALLDATALOAD DUP1 ISZERO ISZERO DUP1 PUSH2 0x1E7 JUMPI JUMPDEST PUSH2 0xDD SWAP1 PUSH2 0x1344 JUMP JUMPDEST PUSH1 0x0 MSTORE PUSH1 0x1 DUP2 MSTORE PUSH1 0x40 PUSH1 0x0 KECCAK256 PUSH1 0x4 PUSH1 0x6 PUSH1 0x5 DUP4 ADD SLOAD SWAP3 ADD SLOAD PUSH2 0xFF DUP2 DUP5 PUSH2 0x1316 JUMP JUMPDEST PUSH1 0x0 SLOAD PUSH1 0x40 MLOAD PUSH4 0x18160DDD PUSH1 0xE0 SHL DUP2 MSTORE SWAP4 SWAP2 SWAP3 SWAP2 DUP7 SWAP2 DUP6 SWAP2 SWAP1 DUP3 SWAP1 PUSH1 0x1 PUSH1 0x1 PUSH1 0xA0 SHL SUB AND GAS STATICCALL SWAP3 DUP4 ISZERO PUSH2 0x1DB JUMPI PUSH1 0x0 SWAP4 PUSH2 0x1A7 JUMPI JUMPDEST POP DUP4 GT SWAP3 DUP4 PUSH2 0x19A JUMPI JUMPDEST POP PUSH1 0x64 DUP2 MUL SWAP1 DUP1 DUP3 DIV PUSH1 0x64 EQ DUP2 ISZERO OR ISZERO PUSH2 0x184 JUMPI DUP3 ISZERO PUSH2 0x16E JUMPI PUSH1 0x60 SWAP5 PUSH1 0x40 MLOAD SWAP5 ISZERO ISZERO DUP6 MSTORE DUP5 ADD MSTORE DIV PUSH1 0x40 DUP3 ADD MSTORE RETURN JUMPDEST PUSH4 0x4E487B71 PUSH1 0xE0 SHL PUSH1 0x0 MSTORE PUSH1 0x12 PUSH1 0x4 MSTORE PUSH1 0x24 PUSH1 0x0 REVERT JUMPDEST PUSH4 0x4E487B71 PUSH1 0xE0 SHL PUSH1 0x0 MSTORE PUSH1 0x11 PUSH1 0x4 MSTORE PUSH1 0x24 PUSH1 0x0 REVERT JUMPDEST PUSH1 0xA DUP4 DIV LT SWAP3 POP CODESIZE PUSH2 0x13E JUMP JUMPDEST SWAP1 SWAP3 POP DUP5 DUP2 DUP2 RETURNDATASIZE DUP4 GT PUSH2 0x1D4 JUMPI JUMPDEST PUSH2 0x1BF DUP2 DUP4 PUSH2 0x10ED JUMP JUMPDEST DUP2 ADD SUB SLT PUSH2 0x1CF JUMPI MLOAD SWAP2 CODESIZE PUSH2 0x134 JUMP JUMPDEST PUSH1 0x0 DUP1 REVERT JUMPDEST POP RETURNDATASIZE PUSH2 0x1B5 JUMP JUMPDEST PUSH1 0x40 MLOAD RETURNDATASIZE PUSH1 0x0 DUP3 RETURNDATACOPY RETURNDATASIZE SWAP1 REVERT JUMPDEST POP PUSH1 0x2 SLOAD DUP2 GT ISZERO PUSH2 0xD4 JUMP JUMPDEST CALLVALUE PUSH2 0x1CF JUMPI PUSH1 0x0 CALLDATASIZE PUSH1 0x3 NOT ADD SLT PUSH2 0x1CF JUMPI PUSH1 0x20 PUSH1 0x2 SLOAD PUSH1 0x40 MLOAD SWAP1 DUP2 MSTORE RETURN JUMPDEST CALLVALUE PUSH2 0x1CF JUMPI PUSH1 0x40 CALLDATASIZE PUSH1 0x3 NOT ADD SLT PUSH2 0x1CF JUMPI PUSH1 0x24 DUP1 CALLDATALOAD DUP1 ISZERO ISZERO SWAP2 PUSH1 0x4 CALLDATALOAD SWAP2 DUP4 DUP2 SUB PUSH2 0x1CF JUMPI DUP3 ISZERO ISZERO DUP1 PUSH2 0x48B JUMPI JUMPDEST PUSH2 0x247 SWAP1 PUSH2 0x1344 JUMP JUMPDEST PUSH1 0x0 SLOAD PUSH1 0x40 MLOAD PUSH4 0x70A08231 PUSH1 0xE0 SHL DUP1 DUP3 MSTORE CALLER PUSH1 0x4 DUP4 ADD MSTORE PUSH1 0x1 PUSH1 0x1 PUSH1 0xA0 SHL SUB SWAP1 SWAP3 AND SWAP4 PUSH1 0x20 SWAP4 SWAP2 DUP5 DUP2 DUP4 DUP2 DUP10 GAS STATICCALL SWAP1 DUP2 ISZERO PUSH2 0x1DB JUMPI PUSH1 0x0 SWAP2 PUSH2 0x455 JUMPI JUMPDEST POP PUSH9 0x56BC75E2D63100000 PUSH2 0x29A SWAP2 LT ISZERO PUSH2 0x12BB JUMP JUMPDEST DUP6 PUSH1 0x0 MSTORE PUSH1 0x1 DUP5 MSTORE PUSH1 0x40 PUSH1 0x0 KECCAK256 SWAP3 PUSH1 0x7 DUP5 ADD SLOAD TIMESTAMP LT PUSH2 0x41C JUMPI PUSH1 0x8 DUP5 ADD SLOAD TIMESTAMP GT PUSH2 0x3E9 JUMPI PUSH1 0xA DUP5 ADD SWAP2 CALLER PUSH1 0x0 MSTORE DUP3 DUP7 MSTORE PUSH1 0xFF PUSH1 0x40 PUSH1 0x0 KECCAK256 SLOAD AND PUSH2 0x3B6 JUMPI SWAP1 DUP6 SWAP2 PUSH1 0x40 MLOAD DUP1 SWAP9 DUP2 SWAP4 DUP3 MSTORE CALLER PUSH1 0x4 DUP4 ADD MSTORE GAS STATICCALL SWAP5 DUP6 ISZERO PUSH2 0x1DB JUMPI PUSH1 0x0 SWAP6 PUSH2 0x387 JUMPI JUMPDEST POP CALLER PUSH1 0x0 MSTORE DUP4 MSTORE PUSH1 0x40 PUSH1 0x0 KECCAK256 PUSH1 0xFF NOT SWAP1 PUSH1 0x1 DUP3 DUP3 SLOAD AND OR SWAP1 SSTORE PUSH1 0xB DUP4 ADD DUP5 MSTORE PUSH1 0x40 PUSH1 0x0 KECCAK256 SWAP1 DUP2 SLOAD AND PUSH1 0xFF DUP9 AND OR SWAP1 SSTORE PUSH1 0x0 EQ PUSH2 0x372 JUMPI PUSH1 0x5 ADD PUSH2 0x33E DUP4 DUP3 SLOAD PUSH2 0x1316 JUMP JUMPDEST SWAP1 SSTORE JUMPDEST PUSH1 0x40 MLOAD SWAP4 DUP5 MSTORE DUP4 ADD MSTORE PUSH32 0xCBDF6214089CBA887ECBF35A0B6A734589959C9763342C756BB2A80CA2BC9F6E PUSH1 0x40 CALLER SWAP4 LOG3 STOP JUMPDEST PUSH1 0x6 ADD PUSH2 0x380 DUP4 DUP3 SLOAD PUSH2 0x1316 JUMP JUMPDEST SWAP1 SSTORE PUSH2 0x341 JUMP JUMPDEST SWAP1 SWAP5 POP DUP4 DUP2 DUP2 RETURNDATASIZE DUP4 GT PUSH2 0x3AF JUMPI JUMPDEST PUSH2 0x39F DUP2 DUP4 PUSH2 0x10ED JUMP JUMPDEST DUP2 ADD SUB SLT PUSH2 0x1CF JUMPI MLOAD SWAP4 DUP8 PUSH2 0x2FA JUMP JUMPDEST POP RETURNDATASIZE PUSH2 0x395 JUMP JUMPDEST DUP6 PUSH1 0xD PUSH1 0x64 SWAP3 PUSH1 0x40 MLOAD SWAP3 PUSH3 0x461BCD PUSH1 0xE5 SHL DUP5 MSTORE PUSH1 0x4 DUP5 ADD MSTORE DUP3 ADD MSTORE PUSH13 0x105B1C9958591E481D9BDD1959 PUSH1 0x9A SHL PUSH1 0x44 DUP3 ADD MSTORE REVERT JUMPDEST PUSH1 0x40 MLOAD PUSH3 0x461BCD PUSH1 0xE5 SHL DUP2 MSTORE PUSH1 0x4 DUP2 ADD DUP7 SWAP1 MSTORE PUSH1 0xC DUP2 DUP5 ADD MSTORE PUSH12 0x159BDD1A5B99C8195B991959 PUSH1 0xA2 SHL PUSH1 0x44 DUP3 ADD MSTORE PUSH1 0x64 SWAP1 REVERT JUMPDEST PUSH1 0x40 MLOAD PUSH3 0x461BCD PUSH1 0xE5 SHL DUP2 MSTORE PUSH1 0x4 DUP2 ADD DUP7 SWAP1 MSTORE PUSH1 0x12 DUP2 DUP5 ADD MSTORE PUSH18 0x159BDD1A5B99C81B9BDD081CDD185C9D1959 PUSH1 0x72 SHL PUSH1 0x44 DUP3 ADD MSTORE PUSH1 0x64 SWAP1 REVERT JUMPDEST SWAP1 POP DUP5 DUP2 DUP2 RETURNDATASIZE DUP4 GT PUSH2 0x484 JUMPI JUMPDEST PUSH2 0x46C DUP2 DUP4 PUSH2 0x10ED JUMP JUMPDEST DUP2 ADD SUB SLT PUSH2 0x1CF JUMPI MLOAD PUSH9 0x56BC75E2D63100000 PUSH2 0x284 JUMP JUMPDEST POP RETURNDATASIZE PUSH2 0x462 JUMP JUMPDEST POP PUSH1 0x2 SLOAD DUP4 GT ISZERO PUSH2 0x23E JUMP JUMPDEST CALLVALUE PUSH2 0x1CF JUMPI PUSH1 0x20 CALLDATASIZE PUSH1 0x3 NOT ADD SLT PUSH2 0x1CF JUMPI PUSH1 0x4 CALLDATALOAD DUP1 ISZERO ISZERO DUP1 PUSH2 0x532 JUMPI JUMPDEST PUSH2 0x4BD SWAP1 PUSH2 0x1344 JUMP JUMPDEST PUSH1 0x0 MSTORE PUSH1 0x1 PUSH1 0x20 MSTORE PUSH1 0x40 PUSH1 0x0 KECCAK256 DUP1 SLOAD PUSH2 0x52E PUSH1 0x1 DUP1 PUSH1 0xA0 SHL SUB PUSH1 0x1 DUP5 ADD SLOAD AND SWAP3 PUSH1 0x5 DUP2 ADD SLOAD PUSH1 0x6 DUP3 ADD SLOAD PUSH1 0x7 DUP4 ADD SLOAD SWAP1 PUSH1 0x8 DUP5 ADD SLOAD SWAP3 PUSH1 0xFF PUSH1 0x9 DUP7 ADD SLOAD AND SWAP5 PUSH2 0x508 PUSH1 0x2 DUP3 ADD PUSH2 0x110F JUMP JUMPDEST SWAP1 PUSH2 0x521 PUSH1 0x4 PUSH2 0x51A PUSH1 0x3 DUP5 ADD PUSH2 0x110F JUMP JUMPDEST SWAP3 ADD PUSH2 0x110F JUMP JUMPDEST SWAP2 PUSH1 0x40 MLOAD SWAP11 DUP12 SWAP11 DUP12 PUSH2 0x11F5 JUMP JUMPDEST SUB SWAP1 RETURN JUMPDEST POP PUSH1 0x2 SLOAD DUP2 GT ISZERO PUSH2 0x4B4 JUMP JUMPDEST CALLVALUE PUSH2 0x1CF JUMPI PUSH2 0x54C CALLDATASIZE PUSH2 0x1267 JUMP JUMPDEST DUP2 ISZERO ISZERO DUP1 PUSH2 0x5F1 JUMPI JUMPDEST PUSH2 0x55E SWAP1 PUSH2 0x1344 JUMP JUMPDEST DUP2 PUSH1 0x0 MSTORE PUSH1 0x20 SWAP2 PUSH1 0x1 DUP4 MSTORE PUSH1 0xA PUSH1 0x40 PUSH1 0x0 KECCAK256 ADD SWAP2 PUSH1 0x1 DUP1 PUSH1 0xA0 SHL SUB AND SWAP2 DUP3 PUSH1 0x0 MSTORE DUP4 MSTORE PUSH1 0xFF PUSH1 0x40 PUSH1 0x0 KECCAK256 SLOAD AND ISZERO PUSH2 0x5B7 JUMPI PUSH1 0x0 MSTORE PUSH1 0x1 DUP3 MSTORE PUSH1 0xB PUSH1 0x40 PUSH1 0x0 KECCAK256 ADD SWAP1 PUSH1 0x0 MSTORE DUP2 MSTORE PUSH1 0xFF PUSH1 0x40 PUSH1 0x0 KECCAK256 SLOAD AND PUSH1 0x40 MLOAD SWAP1 ISZERO ISZERO DUP2 MSTORE RETURN JUMPDEST PUSH1 0x40 MLOAD PUSH3 0x461BCD PUSH1 0xE5 SHL DUP2 MSTORE PUSH1 0x4 DUP2 ADD DUP5 SWAP1 MSTORE PUSH1 0x12 PUSH1 0x24 DUP3 ADD MSTORE PUSH18 0x155CD95C881A185CC81B9BDD081D9BDD1959 PUSH1 0x72 SHL PUSH1 0x44 DUP3 ADD MSTORE PUSH1 0x64 SWAP1 REVERT JUMPDEST POP PUSH1 0x2 SLOAD DUP3 GT ISZERO PUSH2 0x555 JUMP JUMPDEST CALLVALUE PUSH2 0x1CF JUMPI PUSH1 0x0 CALLDATASIZE PUSH1 0x3 NOT ADD SLT PUSH2 0x1CF JUMPI PUSH1 0x20 PUSH1 0x40 MLOAD PUSH3 0x93A80 DUP2 MSTORE RETURN JUMPDEST CALLVALUE PUSH2 0x1CF JUMPI PUSH1 0x0 CALLDATASIZE PUSH1 0x3 NOT ADD SLT PUSH2 0x1CF JUMPI PUSH1 0x20 PUSH1 0x40 MLOAD PUSH9 0x3635C9ADC5DEA00000 DUP2 MSTORE RETURN JUMPDEST CALLVALUE PUSH2 0x1CF JUMPI PUSH1 0x0 CALLDATASIZE PUSH1 0x3 NOT ADD SLT PUSH2 0x1CF JUMPI PUSH1 0x20 PUSH1 0x40 MLOAD PUSH9 0x56BC75E2D63100000 DUP2 MSTORE RETURN JUMPDEST CALLVALUE PUSH2 0x1CF JUMPI PUSH1 0x60 CALLDATASIZE PUSH1 0x3 NOT ADD SLT PUSH2 0x1CF JUMPI PUSH1 0x4 CALLDATALOAD PUSH8 0xFFFFFFFFFFFFFFFF DUP2 GT PUSH2 0x1CF JUMPI PUSH2 0x694 SWAP1 CALLDATASIZE SWAP1 PUSH1 0x4 ADD PUSH2 0x128D JUMP JUMPDEST SWAP1 PUSH1 0x24 CALLDATALOAD PUSH8 0xFFFFFFFFFFFFFFFF DUP2 GT PUSH2 0x1CF JUMPI PUSH2 0x6B5 SWAP1 CALLDATASIZE SWAP1 PUSH1 0x4 ADD PUSH2 0x128D JUMP JUMPDEST SWAP2 SWAP1 PUSH1 0x44 CALLDATALOAD PUSH8 0xFFFFFFFFFFFFFFFF DUP2 GT PUSH2 0x1CF JUMPI PUSH2 0x6D7 SWAP1 CALLDATASIZE SWAP1 PUSH1 0x4 ADD PUSH2 0x128D JUMP JUMPDEST SWAP2 SWAP1 SWAP5 PUSH1 0x1 DUP1 PUSH1 0xA0 SHL SUB PUSH1 0x0 SLOAD AND PUSH1 0x40 MLOAD PUSH4 0x70A08231 PUSH1 0xE0 SHL DUP1 DUP3 MSTORE CALLER PUSH1 0x4 DUP4 ADD MSTORE PUSH1 0x20 DUP3 PUSH1 0x24 DUP2 DUP7 GAS STATICCALL SWAP2 DUP3 ISZERO PUSH2 0x1DB JUMPI PUSH1 0x0 SWAP3 PUSH2 0xCB7 JUMPI JUMPDEST POP PUSH2 0x729 PUSH9 0x56BC75E2D63100000 PUSH1 0x20 SWAP4 LT ISZERO PUSH2 0x12BB JUMP JUMPDEST PUSH1 0x24 PUSH1 0x40 MLOAD DUP1 SWAP5 DUP2 SWAP4 DUP3 MSTORE CALLER PUSH1 0x4 DUP4 ADD MSTORE GAS STATICCALL DUP1 ISZERO PUSH2 0x1DB JUMPI PUSH1 0x0 SWAP1 PUSH2 0xC7C JUMPI JUMPDEST PUSH9 0x3635C9ADC5DEA00000 SWAP2 POP LT PUSH2 0xC37 JUMPI DUP1 ISZERO ISZERO DUP1 PUSH2 0xC2C JUMPI JUMPDEST ISZERO PUSH2 0xBF0 JUMPI DUP5 ISZERO ISZERO DUP1 PUSH2 0xBE4 JUMPI JUMPDEST ISZERO PUSH2 0xB9F JUMPI PUSH2 0x782 PUSH1 0x2 SLOAD PUSH2 0x1307 JUMP JUMPDEST SWAP5 DUP6 PUSH1 0x2 SSTORE DUP6 PUSH1 0x0 MSTORE PUSH1 0x1 PUSH1 0x20 MSTORE PUSH1 0x40 PUSH1 0x0 KECCAK256 SWAP3 DUP7 DUP5 SSTORE PUSH1 0x1 DUP5 ADD CALLER PUSH12 0xFFFFFFFFFFFFFFFFFFFFFFFF PUSH1 0xA0 SHL DUP3 SLOAD AND OR SWAP1 SSTORE PUSH8 0xFFFFFFFFFFFFFFFF DUP4 GT PUSH2 0x9FA JUMPI PUSH2 0x7D0 PUSH1 0x2 DUP6 ADD SLOAD PUSH2 0x10B3 JUMP JUMPDEST PUSH1 0x1F DUP2 GT PUSH2 0xB58 JUMPI JUMPDEST POP DUP3 PUSH1 0x0 PUSH1 0x1F DUP3 GT PUSH1 0x1 EQ PUSH2 0xAEA JUMPI PUSH1 0x0 SWAP2 PUSH2 0xADF JUMPI JUMPDEST POP DUP4 PUSH1 0x1 SHL SWAP1 PUSH1 0x0 NOT DUP6 PUSH1 0x3 SHL SHR NOT AND OR PUSH1 0x2 DUP6 ADD SSTORE JUMPDEST PUSH8 0xFFFFFFFFFFFFFFFF DUP3 GT PUSH2 0x9FA JUMPI DUP2 SWAP1 PUSH2 0x825 PUSH1 0x3 DUP7 ADD SLOAD PUSH2 0x10B3 JUMP JUMPDEST PUSH1 0x1F DUP2 GT PUSH2 0xA8C JUMPI JUMPDEST POP PUSH1 0x0 SWAP1 PUSH1 0x1F DUP4 GT PUSH1 0x1 EQ PUSH2 0xA1B JUMPI PUSH1 0x0 SWAP3 PUSH2 0xA10 JUMPI JUMPDEST POP POP DUP2 PUSH1 0x1 SHL SWAP2 PUSH1 0x0 NOT SWAP1 PUSH1 0x3 SHL SHR NOT AND OR PUSH1 0x3 DUP4 ADD SSTORE JUMPDEST PUSH8 0xFFFFFFFFFFFFFFFF DUP4 GT PUSH2 0x9FA JUMPI PUSH2 0x879 PUSH1 0x4 DUP4 ADD SLOAD PUSH2 0x10B3 JUMP JUMPDEST PUSH1 0x1F DUP2 GT PUSH2 0x9AF JUMPI JUMPDEST POP DUP3 PUSH1 0x0 PUSH1 0x1F DUP3 GT PUSH1 0x1 EQ PUSH2 0x941 JUMPI PUSH1 0x0 SWAP2 PUSH2 0x936 JUMPI JUMPDEST POP DUP4 PUSH1 0x1 SHL SWAP1 PUSH1 0x0 NOT DUP6 PUSH1 0x3 SHL SHR NOT AND OR PUSH1 0x4 DUP4 ADD SSTORE JUMPDEST TIMESTAMP PUSH1 0x7 DUP4 ADD SSTORE PUSH3 0x93A80 TIMESTAMP ADD SWAP4 DUP5 TIMESTAMP GT PUSH2 0x184 JUMPI PUSH1 0x20 SWAP7 DUP7 SWAP5 PUSH2 0x915 PUSH2 0x922 SWAP4 PUSH1 0x9 DUP8 DUP11 PUSH1 0x8 PUSH32 0xBD04B5479C6DD97D2CC7727F90A20FE21CCF7121F4F9FDC04A755EE528EFEB44 SWAP11 ADD SSTORE ADD PUSH1 0xFF NOT DUP2 SLOAD AND SWAP1 SSTORE PUSH1 0x40 MLOAD SWAP6 PUSH1 0x60 DUP8 MSTORE PUSH1 0x60 DUP8 ADD SWAP2 PUSH2 0x1323 JUMP JUMPDEST SWAP2 DUP5 DUP4 SUB DUP11 DUP7 ADD MSTORE PUSH2 0x1323 JUMP JUMPDEST SWAP4 PUSH1 0x40 DUP3 ADD MSTORE DUP1 CALLER SWAP5 SUB SWAP1 LOG3 PUSH1 0x40 MLOAD SWAP1 DUP2 MSTORE RETURN JUMPDEST SWAP1 POP DUP7 ADD CALLDATALOAD DUP8 PUSH2 0x899 JUMP JUMPDEST SWAP1 POP PUSH1 0x1F NOT DUP5 AND SWAP1 PUSH1 0x4 DUP5 ADD PUSH1 0x0 MSTORE DUP5 PUSH1 0x20 PUSH1 0x0 KECCAK256 SWAP3 PUSH1 0x0 JUMPDEST DUP2 DUP2 LT PUSH2 0x994 JUMPI POP LT PUSH2 0x97A JUMPI JUMPDEST POP POP PUSH1 0x1 DUP4 DUP2 SHL ADD PUSH1 0x4 DUP4 ADD SSTORE PUSH2 0x8B0 JUMP JUMPDEST DUP8 ADD CALLDATALOAD PUSH1 0x0 NOT PUSH1 0x3 DUP7 SWAP1 SHL PUSH1 0xF8 AND SHR NOT AND SWAP1 SSTORE DUP7 DUP1 PUSH2 0x968 JUMP JUMPDEST DUP11 DUP5 ADD CALLDATALOAD DUP6 SSTORE PUSH1 0x1 SWAP1 SWAP5 ADD SWAP4 PUSH1 0x20 SWAP4 DUP5 ADD SWAP4 DUP9 SWAP4 POP ADD PUSH2 0x95A JUMP JUMPDEST PUSH1 0x4 DUP4 ADD PUSH1 0x0 MSTORE PUSH1 0x20 PUSH1 0x0 KECCAK256 PUSH1 0x1F DUP6 ADD PUSH1 0x5 SHR DUP2 ADD SWAP2 PUSH1 0x20 DUP7 LT PUSH2 0x9F0 JUMPI JUMPDEST PUSH1 0x1F ADD PUSH1 0x5 SHR ADD SWAP1 JUMPDEST DUP2 DUP2 LT PUSH2 0x9E4 JUMPI POP PUSH2 0x882 JUMP JUMPDEST PUSH1 0x0 DUP2 SSTORE PUSH1 0x1 ADD PUSH2 0x9D7 JUMP JUMPDEST SWAP1 SWAP2 POP DUP2 SWAP1 PUSH2 0x9CE JUMP JUMPDEST PUSH4 0x4E487B71 PUSH1 0xE0 SHL PUSH1 0x0 MSTORE PUSH1 0x41 PUSH1 0x4 MSTORE PUSH1 0x24 PUSH1 0x0 REVERT JUMPDEST ADD CALLDATALOAD SWAP1 POP DUP9 DUP1 PUSH2 0x845 JUMP JUMPDEST SWAP1 SWAP2 POP PUSH1 0x1F NOT DUP4 AND SWAP2 PUSH1 0x3 DUP7 ADD PUSH1 0x0 MSTORE PUSH1 0x20 PUSH1 0x0 KECCAK256 SWAP3 PUSH1 0x0 JUMPDEST DUP2 DUP2 LT PUSH2 0xA74 JUMPI POP SWAP1 DUP5 PUSH1 0x1 SWAP6 SWAP5 SWAP4 SWAP3 LT PUSH2 0xA5A JUMPI JUMPDEST POP POP POP DUP2 SHL ADD PUSH1 0x3 DUP4 ADD SSTORE PUSH2 0x85D JUMP JUMPDEST ADD CALLDATALOAD PUSH1 0x0 NOT PUSH1 0x3 DUP5 SWAP1 SHL PUSH1 0xF8 AND SHR NOT AND SWAP1 SSTORE DUP9 DUP1 DUP1 PUSH2 0xA4A JUMP JUMPDEST SWAP2 SWAP4 PUSH1 0x20 PUSH1 0x1 DUP2 SWAP3 DUP8 DUP8 ADD CALLDATALOAD DUP2 SSTORE ADD SWAP6 ADD SWAP3 ADD PUSH2 0xA34 JUMP JUMPDEST SWAP1 SWAP2 POP PUSH1 0x3 DUP6 ADD PUSH1 0x0 MSTORE PUSH1 0x20 PUSH1 0x0 KECCAK256 PUSH1 0x1F DUP5 ADD PUSH1 0x5 SHR DUP2 ADD PUSH1 0x20 DUP6 LT PUSH2 0xAD8 JUMPI JUMPDEST SWAP1 DUP5 SWAP4 SWAP3 SWAP2 JUMPDEST PUSH1 0x1F DUP4 ADD PUSH1 0x5 SHR DUP3 ADD DUP2 LT PUSH2 0xAC9 JUMPI POP POP PUSH2 0x82E JUMP JUMPDEST PUSH1 0x0 DUP2 SSTORE DUP6 SWAP5 POP PUSH1 0x1 ADD PUSH2 0xAB3 JUMP JUMPDEST POP DUP1 PUSH2 0xAAD JUMP JUMPDEST SWAP1 POP DUP7 ADD CALLDATALOAD DUP10 PUSH2 0x7F0 JUMP JUMPDEST SWAP1 POP PUSH1 0x2 DUP6 ADD PUSH1 0x0 MSTORE PUSH1 0x20 PUSH1 0x0 KECCAK256 SWAP1 PUSH1 0x0 JUMPDEST PUSH1 0x1F NOT DUP7 AND DUP2 LT PUSH2 0xB40 JUMPI POP DUP5 PUSH1 0x1F NOT DUP2 AND LT PUSH2 0xB26 JUMPI JUMPDEST POP POP PUSH1 0x1 DUP4 DUP2 SHL ADD PUSH1 0x2 DUP6 ADD SSTORE PUSH2 0x807 JUMP JUMPDEST DUP8 ADD CALLDATALOAD PUSH1 0x0 NOT PUSH1 0x3 DUP7 SWAP1 SHL PUSH1 0xF8 AND SHR NOT AND SWAP1 SSTORE DUP9 DUP1 PUSH2 0xB14 JUMP JUMPDEST SWAP1 SWAP2 PUSH1 0x20 PUSH1 0x1 DUP2 SWAP3 DUP6 DUP13 ADD CALLDATALOAD DUP2 SSTORE ADD SWAP4 ADD SWAP2 ADD PUSH2 0xAFC JUMP JUMPDEST PUSH1 0x2 DUP6 ADD PUSH1 0x0 MSTORE PUSH1 0x20 PUSH1 0x0 KECCAK256 PUSH1 0x1F DUP6 ADD PUSH1 0x5 SHR DUP2 ADD PUSH1 0x20 DUP7 LT PUSH2 0xB98 JUMPI JUMPDEST PUSH1 0x1F DUP4 ADD PUSH1 0x5 SHR DUP3 ADD DUP2 LT PUSH2 0xB8C JUMPI POP POP PUSH2 0x7D9 JUMP JUMPDEST PUSH1 0x0 DUP2 SSTORE PUSH1 0x1 ADD PUSH2 0xB76 JUMP JUMPDEST POP DUP1 PUSH2 0xB76 JUMP JUMPDEST PUSH1 0x40 MLOAD PUSH3 0x461BCD PUSH1 0xE5 SHL DUP2 MSTORE PUSH1 0x20 PUSH1 0x4 DUP3 ADD MSTORE PUSH1 0x1A PUSH1 0x24 DUP3 ADD MSTORE PUSH32 0x496E76616C6964206465736372697074696F6E206C656E677468000000000000 PUSH1 0x44 DUP3 ADD MSTORE PUSH1 0x64 SWAP1 REVERT JUMPDEST POP PUSH2 0x3E8 DUP6 GT ISZERO PUSH2 0x772 JUMP JUMPDEST PUSH1 0x40 MLOAD PUSH3 0x461BCD PUSH1 0xE5 SHL DUP2 MSTORE PUSH1 0x20 PUSH1 0x4 DUP3 ADD MSTORE PUSH1 0x14 PUSH1 0x24 DUP3 ADD MSTORE PUSH20 0x92DCECC2D8D2C840E8D2E8D8CA40D8CADCCEE8D PUSH1 0x63 SHL PUSH1 0x44 DUP3 ADD MSTORE PUSH1 0x64 SWAP1 REVERT JUMPDEST POP PUSH1 0x64 DUP2 GT ISZERO PUSH2 0x764 JUMP JUMPDEST PUSH1 0x40 MLOAD PUSH3 0x461BCD PUSH1 0xE5 SHL DUP2 MSTORE PUSH1 0x20 PUSH1 0x4 DUP3 ADD MSTORE PUSH1 0x1E PUSH1 0x24 DUP3 ADD MSTORE PUSH32 0x496E73756666696369656E7420746F6B656E7320746F2070726F706F73650000 PUSH1 0x44 DUP3 ADD MSTORE PUSH1 0x64 SWAP1 REVERT JUMPDEST POP PUSH1 0x20 DUP2 RETURNDATASIZE PUSH1 0x20 GT PUSH2 0xCAF JUMPI JUMPDEST DUP2 PUSH2 0xC96 PUSH1 0x20 SWAP4 DUP4 PUSH2 0x10ED JUMP JUMPDEST DUP2 ADD SUB SLT PUSH2 0x1CF JUMPI PUSH9 0x3635C9ADC5DEA00000 SWAP1 MLOAD PUSH2 0x74A JUMP JUMPDEST RETURNDATASIZE SWAP2 POP PUSH2 0xC89 JUMP JUMPDEST SWAP2 POP PUSH1 0x20 DUP3 RETURNDATASIZE PUSH1 0x20 GT PUSH2 0xCE5 JUMPI JUMPDEST DUP2 PUSH2 0xCD2 PUSH1 0x20 SWAP4 DUP4 PUSH2 0x10ED JUMP JUMPDEST DUP2 ADD SUB SLT PUSH2 0x1CF JUMPI SWAP1 MLOAD SWAP1 PUSH2 0x729 PUSH2 0x711 JUMP JUMPDEST RETURNDATASIZE SWAP2 POP PUSH2 0xCC5 JUMP JUMPDEST CALLVALUE PUSH2 0x1CF JUMPI PUSH1 0x0 CALLDATASIZE PUSH1 0x3 NOT ADD SLT PUSH2 0x1CF JUMPI PUSH1 0x2 SLOAD PUSH2 0xD0A DUP2 PUSH2 0x139B JUMP JUMPDEST SWAP1 PUSH1 0x0 SWAP2 PUSH1 0x1 SWAP2 DUP3 JUMPDEST DUP2 DUP2 GT ISZERO PUSH2 0xD99 JUMPI POP POP PUSH2 0xD26 DUP4 PUSH2 0x139B JUMP JUMPDEST SWAP3 PUSH1 0x0 JUMPDEST DUP2 DUP2 LT PUSH2 0xD70 JUMPI POP POP POP PUSH1 0x40 MLOAD SWAP1 PUSH1 0x20 DUP1 DUP4 ADD DUP2 DUP5 MSTORE DUP5 MLOAD DUP1 SWAP2 MSTORE DUP2 PUSH1 0x40 DUP6 ADD SWAP6 ADD SWAP2 PUSH1 0x0 JUMPDEST DUP3 DUP2 LT PUSH2 0xD5D JUMPI DUP6 DUP8 SUB DUP7 RETURN JUMPDEST DUP4 MLOAD DUP8 MSTORE SWAP6 DUP2 ADD SWAP6 SWAP3 DUP2 ADD SWAP3 DUP5 ADD PUSH2 0xD50 JUMP JUMPDEST DUP1 PUSH2 0xD80 PUSH2 0xD91 SWAP3 DUP6 SWAP8 SWAP6 PUSH2 0x13CD JUMP JUMPDEST MLOAD PUSH2 0xD8B DUP3 DUP7 PUSH2 0x13CD JUMP JUMPDEST MSTORE PUSH2 0x1307 JUMP JUMPDEST SWAP4 SWAP2 SWAP4 PUSH2 0xD2A JUMP JUMPDEST DUP1 PUSH1 0x0 SWAP6 SWAP4 SWAP6 MSTORE DUP4 PUSH1 0x20 MSTORE PUSH1 0x40 PUSH1 0x0 KECCAK256 PUSH1 0x8 DUP2 ADD SLOAD TIMESTAMP GT ISZERO SWAP1 DUP2 PUSH2 0xDEA JUMPI JUMPDEST POP PUSH2 0xDCF JUMPI JUMPDEST PUSH2 0xDC7 SWAP1 PUSH2 0x1307 JUMP JUMPDEST SWAP4 SWAP2 SWAP4 PUSH2 0xD13 JUMP JUMPDEST SWAP2 PUSH2 0xDE2 DUP2 DUP5 PUSH2 0xD8B PUSH2 0xDC7 SWAP5 DUP10 PUSH2 0x13CD JUMP JUMPDEST SWAP3 SWAP1 POP PUSH2 0xDBE JUMP JUMPDEST PUSH1 0xFF SWAP2 POP PUSH1 0x9 ADD SLOAD AND ISZERO DUP7 PUSH2 0xDB8 JUMP JUMPDEST CALLVALUE PUSH2 0x1CF JUMPI PUSH1 0x0 CALLDATASIZE PUSH1 0x3 NOT ADD SLT PUSH2 0x1CF JUMPI PUSH1 0x0 SLOAD PUSH1 0x40 MLOAD PUSH1 0x1 PUSH1 0x1 PUSH1 0xA0 SHL SUB SWAP1 SWAP2 AND DUP2 MSTORE PUSH1 0x20 SWAP1 RETURN JUMPDEST CALLVALUE PUSH2 0x1CF JUMPI PUSH2 0xE31 CALLDATASIZE PUSH2 0x1267 JUMP JUMPDEST SWAP1 DUP1 ISZERO ISZERO DUP1 PUSH2 0xE78 JUMPI JUMPDEST PUSH2 0xE44 SWAP1 PUSH2 0x1344 JUMP JUMPDEST PUSH1 0x0 MSTORE PUSH1 0x1 PUSH1 0x20 MSTORE PUSH1 0xA PUSH1 0x40 PUSH1 0x0 KECCAK256 ADD SWAP1 PUSH1 0x1 DUP1 PUSH1 0xA0 SHL SUB AND PUSH1 0x0 MSTORE PUSH1 0x20 MSTORE PUSH1 0x20 PUSH1 0xFF PUSH1 0x40 PUSH1 0x0 KECCAK256 SLOAD AND PUSH1 0x40 MLOAD SWAP1 ISZERO ISZERO DUP2 MSTORE RETURN JUMPDEST POP PUSH1 0x2 SLOAD DUP2 GT ISZERO PUSH2 0xE3B JUMP JUMPDEST CALLVALUE PUSH2 0x1CF JUMPI PUSH1 0x20 DUP1 PUSH1 0x3 NOT CALLDATASIZE ADD SLT PUSH2 0x1CF JUMPI PUSH1 0x4 CALLDATALOAD SWAP1 DUP2 ISZERO ISZERO DUP1 PUSH2 0x1023 JUMPI JUMPDEST PUSH2 0xEAC SWAP1 PUSH2 0x1344 JUMP JUMPDEST DUP2 PUSH1 0x0 MSTORE PUSH1 0x1 DUP2 MSTORE PUSH1 0x40 PUSH1 0x0 KECCAK256 SWAP1 PUSH1 0x8 DUP3 ADD SLOAD TIMESTAMP GT ISZERO PUSH2 0xFE9 JUMPI PUSH1 0x9 DUP3 ADD DUP1 SLOAD PUSH1 0xFF DUP2 AND PUSH2 0xFB1 JUMPI PUSH1 0x1 SWAP1 PUSH1 0xFF NOT AND OR SWAP1 SSTORE PUSH1 0x6 PUSH1 0x5 DUP4 ADD SLOAD SWAP3 ADD SLOAD DUP3 GT SWAP2 DUP3 PUSH2 0xF1F JUMPI JUMPDEST POP PUSH32 0x948F4A9CD986F1118C3FBD459F7A22B23C0693E1CA3EF06A6A8BE5AA7D39CC03 SWAP2 PUSH1 0x40 MLOAD SWAP1 ISZERO ISZERO DUP2 MSTORE LOG2 STOP JUMPDEST PUSH1 0x0 SLOAD PUSH1 0x40 MLOAD PUSH4 0x18160DDD PUSH1 0xE0 SHL DUP2 MSTORE SWAP4 POP DUP3 SWAP1 DUP5 SWAP1 PUSH1 0x4 SWAP1 DUP3 SWAP1 PUSH1 0x1 PUSH1 0x1 PUSH1 0xA0 SHL SUB AND GAS STATICCALL SWAP3 DUP4 ISZERO PUSH2 0x1DB JUMPI PUSH1 0x0 SWAP4 PUSH2 0xF81 JUMPI JUMPDEST POP PUSH1 0xA PUSH32 0x948F4A9CD986F1118C3FBD459F7A22B23C0693E1CA3EF06A6A8BE5AA7D39CC03 SWAP4 DIV LT SWAP2 PUSH2 0xEF1 JUMP JUMPDEST SWAP3 POP DUP2 DUP4 DUP2 RETURNDATASIZE DUP4 GT PUSH2 0xFAA JUMPI JUMPDEST PUSH2 0xF98 DUP2 DUP4 PUSH2 0x10ED JUMP JUMPDEST DUP2 ADD SUB SLT PUSH2 0x1CF JUMPI SWAP2 MLOAD SWAP2 PUSH1 0xA PUSH2 0xF54 JUMP JUMPDEST POP RETURNDATASIZE PUSH2 0xF8E JUMP JUMPDEST PUSH1 0x40 MLOAD PUSH3 0x461BCD PUSH1 0xE5 SHL DUP2 MSTORE PUSH1 0x4 DUP2 ADD DUP5 SWAP1 MSTORE PUSH1 0x10 PUSH1 0x24 DUP3 ADD MSTORE PUSH16 0x105B1C9958591E48195E1958DD5D1959 PUSH1 0x82 SHL PUSH1 0x44 DUP3 ADD MSTORE PUSH1 0x64 SWAP1 REVERT JUMPDEST PUSH1 0x64 SWAP1 PUSH1 0x40 MLOAD SWAP1 PUSH3 0x461BCD PUSH1 0xE5 SHL DUP3 MSTORE PUSH1 0x4 DUP3 ADD MSTORE PUSH1 0x13 PUSH1 0x24 DUP3 ADD MSTORE PUSH19 0x566F74696E67207374696C6C20616374697665 PUSH1 0x68 SHL PUSH1 0x44 DUP3 ADD MSTORE REVERT JUMPDEST POP PUSH1 0x2 SLOAD DUP3 GT ISZERO PUSH2 0xEA3 JUMP JUMPDEST CALLVALUE PUSH2 0x1CF JUMPI PUSH1 0x20 CALLDATASIZE PUSH1 0x3 NOT ADD SLT PUSH2 0x1CF JUMPI PUSH1 0x4 CALLDATALOAD PUSH1 0x0 MSTORE PUSH1 0x1 PUSH1 0x20 MSTORE PUSH1 0x40 PUSH1 0x0 KECCAK256 DUP1 SLOAD PUSH2 0x52E PUSH1 0x1 DUP1 PUSH1 0xA0 SHL SUB PUSH1 0x1 DUP5 ADD SLOAD AND SWAP3 PUSH2 0x106F PUSH1 0x2 DUP3 ADD PUSH2 0x110F JUMP JUMPDEST SWAP1 PUSH2 0x107C PUSH1 0x3 DUP3 ADD PUSH2 0x110F JUMP JUMPDEST PUSH2 0x1088 PUSH1 0x4 DUP4 ADD PUSH2 0x110F JUMP JUMPDEST PUSH1 0x5 DUP4 ADD SLOAD PUSH1 0x6 DUP5 ADD SLOAD SWAP2 PUSH1 0x7 DUP6 ADD SLOAD SWAP4 PUSH1 0xFF PUSH1 0x9 PUSH1 0x8 DUP9 ADD SLOAD SWAP8 ADD SLOAD AND SWAP7 PUSH1 0x40 MLOAD SWAP11 DUP12 SWAP11 DUP12 PUSH2 0x11F5 JUMP JUMPDEST SWAP1 PUSH1 0x1 DUP3 DUP2 SHR SWAP3 AND DUP1 ISZERO PUSH2 0x10E3 JUMPI JUMPDEST PUSH1 0x20 DUP4 LT EQ PUSH2 0x10CD JUMPI JUMP JUMPDEST PUSH4 0x4E487B71 PUSH1 0xE0 SHL PUSH1 0x0 MSTORE PUSH1 0x22 PUSH1 0x4 MSTORE PUSH1 0x24 PUSH1 0x0 REVERT JUMPDEST SWAP2 PUSH1 0x7F AND SWAP2 PUSH2 0x10C2 JUMP JUMPDEST SWAP1 PUSH1 0x1F DUP1 NOT SWAP2 ADD AND DUP2 ADD SWAP1 DUP2 LT PUSH8 0xFFFFFFFFFFFFFFFF DUP3 GT OR PUSH2 0x9FA JUMPI PUSH1 0x40 MSTORE JUMP JUMPDEST SWAP1 PUSH1 0x40 MLOAD SWAP2 DUP3 PUSH1 0x0 DUP3 SLOAD SWAP3 PUSH2 0x1123 DUP5 PUSH2 0x10B3 JUMP JUMPDEST SWAP1 DUP2 DUP5 MSTORE PUSH1 0x1 SWAP5 DUP6 DUP2 AND SWAP1 DUP2 PUSH1 0x0 EQ PUSH2 0x1192 JUMPI POP PUSH1 0x1 EQ PUSH2 0x114F JUMPI JUMPDEST POP POP PUSH2 0x114D SWAP3 POP SUB DUP4 PUSH2 0x10ED JUMP JUMPDEST JUMP JUMPDEST SWAP1 SWAP4 SWAP2 POP PUSH1 0x0 MSTORE PUSH1 0x20 SWAP1 DUP2 PUSH1 0x0 KECCAK256 SWAP4 PUSH1 0x0 SWAP2 JUMPDEST DUP2 DUP4 LT PUSH2 0x117A JUMPI POP POP PUSH2 0x114D SWAP4 POP DUP3 ADD ADD CODESIZE DUP1 PUSH2 0x113F JUMP JUMPDEST DUP6 SLOAD DUP9 DUP5 ADD DUP6 ADD MSTORE SWAP5 DUP6 ADD SWAP5 DUP8 SWAP5 POP SWAP2 DUP4 ADD SWAP2 PUSH2 0x1162 JUMP JUMPDEST SWAP2 POP POP PUSH2 0x114D SWAP5 POP PUSH1 0x20 SWAP3 POP PUSH1 0xFF NOT AND DUP3 DUP5 ADD MSTORE ISZERO ISZERO PUSH1 0x5 SHL DUP3 ADD ADD CODESIZE DUP1 PUSH2 0x113F JUMP JUMPDEST SWAP2 SWAP1 DUP3 MLOAD SWAP3 DUP4 DUP3 MSTORE PUSH1 0x0 JUMPDEST DUP5 DUP2 LT PUSH2 0x11E1 JUMPI POP POP DUP3 PUSH1 0x0 PUSH1 0x20 DUP1 SWAP5 SWAP6 DUP5 ADD ADD MSTORE PUSH1 0x1F DUP1 NOT SWAP2 ADD AND ADD ADD SWAP1 JUMP JUMPDEST PUSH1 0x20 DUP2 DUP4 ADD DUP2 ADD MLOAD DUP5 DUP4 ADD DUP3 ADD MSTORE ADD PUSH2 0x11C0 JUMP JUMPDEST SWAP9 SWAP6 SWAP11 SWAP10 SWAP7 SWAP4 PUSH2 0x122E PUSH2 0x124A SWAP5 PUSH2 0x120 SWAP11 SWAP8 SWAP5 PUSH2 0x123C SWAP5 DUP14 MSTORE PUSH1 0x1 DUP1 PUSH1 0xA0 SHL SUB AND PUSH1 0x20 DUP14 ADD MSTORE PUSH1 0x40 DUP13 PUSH2 0x140 SWAP2 DUP3 SWAP2 ADD MSTORE DUP13 ADD SWAP1 PUSH2 0x11B5 JUMP JUMPDEST SWAP1 DUP11 DUP3 SUB PUSH1 0x60 DUP13 ADD MSTORE PUSH2 0x11B5 JUMP JUMPDEST SWAP1 DUP9 DUP3 SUB PUSH1 0x80 DUP11 ADD MSTORE PUSH2 0x11B5 JUMP JUMPDEST SWAP8 PUSH1 0xA0 DUP8 ADD MSTORE PUSH1 0xC0 DUP7 ADD MSTORE PUSH1 0xE0 DUP6 ADD MSTORE PUSH2 0x100 DUP5 ADD MSTORE ISZERO ISZERO SWAP2 ADD MSTORE JUMP JUMPDEST PUSH1 0x40 SWAP1 PUSH1 0x3 NOT ADD SLT PUSH2 0x1CF JUMPI PUSH1 0x4 CALLDATALOAD SWAP1 PUSH1 0x24 CALLDATALOAD PUSH1 0x1 PUSH1 0x1 PUSH1 0xA0 SHL SUB DUP2 AND DUP2 SUB PUSH2 0x1CF JUMPI SWAP1 JUMP JUMPDEST SWAP2 DUP2 PUSH1 0x1F DUP5 ADD SLT ISZERO PUSH2 0x1CF JUMPI DUP3 CALLDATALOAD SWAP2 PUSH8 0xFFFFFFFFFFFFFFFF DUP4 GT PUSH2 0x1CF JUMPI PUSH1 0x20 DUP4 DUP2 DUP7 ADD SWAP6 ADD ADD GT PUSH2 0x1CF JUMPI JUMP JUMPDEST ISZERO PUSH2 0x12C2 JUMPI JUMP JUMPDEST PUSH1 0x40 MLOAD PUSH3 0x461BCD PUSH1 0xE5 SHL DUP2 MSTORE PUSH1 0x20 PUSH1 0x4 DUP3 ADD MSTORE PUSH1 0x19 PUSH1 0x24 DUP3 ADD MSTORE PUSH32 0x496E73756666696369656E7420766F74696E6720706F77657200000000000000 PUSH1 0x44 DUP3 ADD MSTORE PUSH1 0x64 SWAP1 REVERT JUMPDEST PUSH1 0x0 NOT DUP2 EQ PUSH2 0x184 JUMPI PUSH1 0x1 ADD SWAP1 JUMP JUMPDEST SWAP2 SWAP1 DUP3 ADD DUP1 SWAP3 GT PUSH2 0x184 JUMPI JUMP JUMPDEST SWAP1 DUP1 PUSH1 0x20 SWAP4 SWAP3 DUP2 DUP5 MSTORE DUP5 DUP5 ADD CALLDATACOPY PUSH1 0x0 DUP3 DUP3 ADD DUP5 ADD MSTORE PUSH1 0x1F ADD PUSH1 0x1F NOT AND ADD ADD SWAP1 JUMP JUMPDEST ISZERO PUSH2 0x134B JUMPI JUMP JUMPDEST PUSH1 0x40 MLOAD PUSH3 0x461BCD PUSH1 0xE5 SHL DUP2 MSTORE PUSH1 0x20 PUSH1 0x4 DUP3 ADD MSTORE PUSH1 0x10 PUSH1 0x24 DUP3 ADD MSTORE PUSH16 0x125B9D985B1A59081C1C9BDC1BDCD85B PUSH1 0x82 SHL PUSH1 0x44 DUP3 ADD MSTORE PUSH1 0x64 SWAP1 REVERT JUMPDEST PUSH8 0xFFFFFFFFFFFFFFFF DUP2 GT PUSH2 0x9FA JUMPI PUSH1 0x5 SHL PUSH1 0x20 ADD SWAP1 JUMP JUMPDEST SWAP1 PUSH2 0x13A5 DUP3 PUSH2 0x1383 JUMP JUMPDEST PUSH2 0x13B2 PUSH1 0x40 MLOAD SWAP2 DUP3 PUSH2 0x10ED JUMP JUMPDEST DUP3 DUP2 MSTORE DUP1 SWAP3 PUSH2 0x13C3 PUSH1 0x1F NOT SWAP2 PUSH2 0x1383 JUMP JUMPDEST ADD SWAP1 PUSH1 0x20 CALLDATASIZE SWAP2 ADD CALLDATACOPY JUMP JUMPDEST DUP1 MLOAD DUP3 LT ISZERO PUSH2 0x13E1 JUMPI PUSH1 0x20 SWAP2 PUSH1 0x5 SHL ADD ADD SWAP1 JUMP JUMPDEST PUSH4 0x4E487B71 PUSH1 0xE0 SHL PUSH1 0x0 MSTORE PUSH1 0x32 PUSH1 0x4 MSTORE PUSH1 0x24 PUSH1 0x0 REVERT INVALID LOG2 PUSH5 0x6970667358 0x22 SLT KECCAK256 0xB4 LOG3 0xFB SWAP15 PUSH25 0x11C0112EE753862F52B6771D1B3A74C4D787DE765FF78617F4 PUSH20 0x2B64736F6C634300081400330000000000000000 "},"methodIdentifiers":{"MIN_VOTING_POWER()":"805a8142","PROPOSAL_THRESHOLD()":"a6c26603","VOTING_PERIOD()":"b1610d7e","createProposal(string,string,string)":"583cf379","executeProposal(uint256)":"0d61b519","getActiveProposals()":"5584c4f9","getProposal(uint256)":"c7f758a8","getProposalResult(uint256)":"f91f88f7","getVote(uint256,address)":"bc3f931f","hasVoted(uint256,address)":"43859632","proposalCount()":"da35c664","proposals(uint256)":"013cf08b","quillyToken()":"4fa0b19b","vote(uint256,bool)":"c9d27afe"}}}}}