{"contracts/CopyrightProtection.sol":{"CopyrightProtection":{"abi":[{"inputs":[],"stateMutability":"nonpayable","type":"constructor"},{"inputs":[],"name":"EnforcedPause","type":"error"},{"inputs":[],"name":"ExpectedPause","type":"error"},{"inputs":[{"internalType":"address","name":"owner","type":"address"}],"name":"OwnableInvalidOwner","type":"error"},{"inputs":[{"internalType":"address","name":"account","type":"address"}],"name":"OwnableUnauthorizedAccount","type":"error"},{"inputs":[],"name":"ReentrancyGuardReentrantCall","type":"error"},{"anonymous":false,"inputs":[{"indexed":true,"internalType":"bytes32","name":"recordId","type":"bytes32"},{"indexed":true,"internalType":"address","name":"author","type":"address"},{"indexed":false,"internalType":"uint256","name":"timestamp","type":"uint256"}],"name":"ContentDeactivated","type":"event"},{"anonymous":false,"inputs":[{"indexed":true,"internalType":"bytes32","name":"recordId","type":"bytes32"},{"indexed":true,"internalType":"address","name":"author","type":"address"},{"indexed":false,"internalType":"string","name":"contentHash","type":"string"},{"indexed":false,"internalType":"string","name":"title","type":"string"},{"indexed":false,"internalType":"uint256","name":"timestamp","type":"uint256"},{"indexed":false,"internalType":"uint256","name":"blockNumber","type":"uint256"}],"name":"ContentRegistered","type":"event"},{"anonymous":false,"inputs":[{"indexed":true,"internalType":"address","name":"previousOwner","type":"address"},{"indexed":true,"internalType":"address","name":"newOwner","type":"address"}],"name":"OwnershipTransferred","type":"event"},{"anonymous":false,"inputs":[{"indexed":false,"internalType":"address","name":"account","type":"address"}],"name":"Paused","type":"event"},{"anonymous":false,"inputs":[{"indexed":true,"internalType":"bytes32","name":"originalRecordId","type":"bytes32"},{"indexed":true,"internalType":"address","name":"originalAuthor","type":"address"},{"indexed":true,"internalType":"address","name":"suspectedPlagiarist","type":"address"},{"indexed":false,"internalType":"string","name":"suspectedContentHash","type":"string"},{"indexed":false,"internalType":"uint256","name":"timestamp","type":"uint256"}],"name":"PlagiarismDetected","type":"event"},{"anonymous":false,"inputs":[{"indexed":false,"internalType":"uint256","name":"oldFee","type":"uint256"},{"indexed":false,"internalType":"uint256","name":"newFee","type":"uint256"},{"indexed":false,"internalType":"uint256","name":"timestamp","type":"uint256"}],"name":"RegistrationFeeUpdated","type":"event"},{"anonymous":false,"inputs":[{"indexed":false,"internalType":"address","name":"account","type":"address"}],"name":"Unpaused","type":"event"},{"stateMutability":"nonpayable","type":"fallback"},{"inputs":[],"name":"MAX_HASH_LENGTH","outputs":[{"internalType":"uint256","name":"","type":"uint256"}],"stateMutability":"view","type":"function"},{"inputs":[],"name":"MAX_TITLE_LENGTH","outputs":[{"internalType":"uint256","name":"","type":"uint256"}],"stateMutability":"view","type":"function"},{"inputs":[{"internalType":"address","name":"","type":"address"},{"internalType":"uint256","name":"","type":"uint256"}],"name":"authorContent","outputs":[{"internalType":"bytes32","name":"","type":"bytes32"}],"stateMutability":"view","type":"function"},{"inputs":[{"internalType":"string[]","name":"contentHashes","type":"string[]"}],"name":"bulkVerifyContent","outputs":[{"internalType":"bool[]","name":"exists","type":"bool[]"},{"internalType":"address[]","name":"authors","type":"address[]"}],"stateMutability":"view","type":"function"},{"inputs":[{"internalType":"string","name":"suspectedContentHash","type":"string"},{"internalType":"address","name":"suspectedAuthor","type":"address"}],"name":"checkForPlagiarism","outputs":[{"internalType":"bool","name":"isPlagiarism","type":"bool"}],"stateMutability":"nonpayable","type":"function"},{"inputs":[{"internalType":"bytes32","name":"","type":"bytes32"}],"name":"contentRecords","outputs":[{"internalType":"address","name":"author","type":"address"},{"internalType":"string","name":"contentHash","type":"string"},{"internalType":"uint256","name":"timestamp","type":"uint256"},{"internalType":"string","name":"title","type":"string"},{"internalType":"string","name":"ipfsHash","type":"string"},{"internalType":"bool","name":"isActive","type":"bool"},{"internalType":"uint256","name":"blockNumber","type":"uint256"}],"stateMutability":"view","type":"function"},{"inputs":[{"internalType":"bytes32","name":"recordId","type":"bytes32"}],"name":"deactivateContent","outputs":[],"stateMutability":"nonpayable","type":"function"},{"inputs":[],"name":"emergencyWithdraw","outputs":[],"stateMutability":"nonpayable","type":"function"},{"inputs":[{"internalType":"string","name":"content","type":"string"}],"name":"generateContentHash","outputs":[{"internalType":"string","name":"","type":"string"}],"stateMutability":"pure","type":"function"},{"inputs":[{"internalType":"address","name":"author","type":"address"}],"name":"getAuthorContent","outputs":[{"internalType":"bytes32[]","name":"","type":"bytes32[]"}],"stateMutability":"view","type":"function"},{"inputs":[{"internalType":"bytes32","name":"recordId","type":"bytes32"}],"name":"getContentRecord","outputs":[{"components":[{"internalType":"address","name":"author","type":"address"},{"internalType":"string","name":"contentHash","type":"string"},{"internalType":"uint256","name":"timestamp","type":"uint256"},{"internalType":"string","name":"title","type":"string"},{"internalType":"string","name":"ipfsHash","type":"string"},{"internalType":"bool","name":"isActive","type":"bool"},{"internalType":"uint256","name":"blockNumber","type":"uint256"}],"internalType":"struct CopyrightProtection.ContentRecord","name":"","type":"tuple"}],"stateMutability":"view","type":"function"},{"inputs":[],"name":"getContractStats","outputs":[{"internalType":"uint256","name":"totalRecords","type":"uint256"},{"internalType":"uint256","name":"currentFee","type":"uint256"},{"internalType":"bool","name":"isPaused","type":"bool"},{"internalType":"address","name":"contractOwner","type":"address"}],"stateMutability":"view","type":"function"},{"inputs":[{"internalType":"string","name":"","type":"string"}],"name":"hashToRecordId","outputs":[{"internalType":"bytes32","name":"","type":"bytes32"}],"stateMutability":"view","type":"function"},{"inputs":[],"name":"owner","outputs":[{"internalType":"address","name":"","type":"address"}],"stateMutability":"view","type":"function"},{"inputs":[],"name":"pause","outputs":[],"stateMutability":"nonpayable","type":"function"},{"inputs":[],"name":"paused","outputs":[{"internalType":"bool","name":"","type":"bool"}],"stateMutability":"view","type":"function"},{"inputs":[{"internalType":"bytes32","name":"recordId","type":"bytes32"}],"name":"reactivateContent","outputs":[],"stateMutability":"nonpayable","type":"function"},{"inputs":[],"name":"recordCount","outputs":[{"internalType":"uint256","name":"","type":"uint256"}],"stateMutability":"view","type":"function"},{"inputs":[{"internalType":"string","name":"contentHash","type":"string"},{"internalType":"string","name":"title","type":"string"},{"internalType":"string","name":"ipfsHash","type":"string"}],"name":"registerContent","outputs":[{"internalType":"bytes32","name":"","type":"bytes32"}],"stateMutability":"payable","type":"function"},{"inputs":[],"name":"registrationFee","outputs":[{"internalType":"uint256","name":"","type":"uint256"}],"stateMutability":"view","type":"function"},{"inputs":[],"name":"renounceOwnership","outputs":[],"stateMutability":"nonpayable","type":"function"},{"inputs":[{"internalType":"address","name":"newOwner","type":"address"}],"name":"transferOwnership","outputs":[],"stateMutability":"nonpayable","type":"function"},{"inputs":[],"name":"unpause","outputs":[],"stateMutability":"nonpayable","type":"function"},{"inputs":[{"internalType":"uint256","name":"newFee","type":"uint256"}],"name":"updateRegistrationFee","outputs":[],"stateMutability":"nonpayable","type":"function"},{"inputs":[{"internalType":"string","name":"contentHash","type":"string"}],"name":"verifyContentOwnership","outputs":[{"internalType":"bool","name":"exists","type":"bool"},{"internalType":"address","name":"author","type":"address"},{"internalType":"uint256","name":"timestamp","type":"uint256"},{"internalType":"string","name":"title","type":"string"},{"internalType":"uint256","name":"blockNumber","type":"uint256"}],"stateMutability":"view","type":"function"},{"inputs":[],"name":"withdrawFees","outputs":[],"stateMutability":"nonpayable","type":"function"},{"stateMutability":"payable","type":"receive"}],"evm":{"bytecode":{"linkReferences":{},"object":"6080806040523461009e57600160005533156100885760018054610100600160a81b0319811633600881811b610100600160a81b0316929092179093556040519291901c6001600160a01b03167f8be0079c531659141344cd1fd0a4f28419497f9722a3daafe3b4186f6b6457e0600080a366038d7ea4c68000600655611cfe90816100a48239f35b631e4fbdf760e01b815260006004820152602490fd5b600080fdfe608080604052600436101561009f575b50361561005a57346100555760405162461bcd60e51b8152602060048201526012602482015271119d5b98dd1a5bdb881b9bdd08199bdd5b9960721b6044820152606490fd5b600080fd5b60405162461bcd60e51b815260206004820152601b60248201527f446972656374207061796d656e7473206e6f7420616c6c6f77656400000000006044820152606490fd5b60003560e01c90816314c44e09146116215750806318da65151461139057806319b1f5fc14611374578063261f84d2146112e65780632ef9a160146112ca5780633f4ba83a14611273578063476343ee146111a457806351b0733214610aa45780635c975abb14610a8157806364e7b18914610a0f578063715018a6146109ae5780637906dcb2146109555780637a0c1f4f146108d45780638456cb591461087b5780638da5cb5b1461084e578063900407bc14610830578063994470d314610789578063a3ae647a1461071b578063af582c6b1461067d578063b6c57e9e146105c2578063b97e964e14610462578063d241eeee146103ae578063db2e21bc14610316578063db53db8f146102a9578063dfe6b5d6146102635763f2fde38b146101ca573861000f565b34610055576020366003190112610055576101e36116b1565b6101eb61187e565b6001600160a01b0381811691821561024a5760018054610100600160a81b03198116600893841b610100600160a81b031617909155901c167f8be0079c531659141344cd1fd0a4f28419497f9722a3daafe3b4186f6b6457e0600080a3005b604051631e4fbdf760e01b815260006004820152602490fd5b3461005557600036600319011261005557608060055460065460015490604051928352602083015260ff81161515604083015260018060a01b039060081c166060820152f35b34610055576020366003190112610055576004356001600160401b03811161005557366023820112156100555761030360206102f081933690602481600401359101611847565b8160405193828580945193849201611669565b8101600481520301902054604051908152f35b346100555760003660031901126100555761032f61187e565b610337611c7e565b478061033f57005b60015460009182918291829160081c6001600160a01b03165af1610361611c4e565b501561036957005b60405162461bcd60e51b815260206004820152601b60248201527f456d657267656e6379207769746864726177616c206661696c656400000000006044820152606490fd5b3461005557602080600319360112610055576001600160a01b036103d06116b1565b1660005260038152604060002060405190818382549182815201908192600052846000209060005b8682821061044e57868661040e82880383611765565b604051928392818401908285525180915260408401929160005b82811061043757505050500390f35b835185528695509381019392810192600101610428565b8354855290930192600192830192016103f8565b3461005557602080600319360112610055576004359061059e6040516104878161172f565b60008152600060c0606092838682015282604082015283808201528360808201528260a08201520152836000526002835260018060a01b03936104d285604060002054161515611bcb565b600052600283526105af604060002091604051958694859485936104f58561172f565b83825416855261058361050a60018401611786565b8a87019081528a6002850154966040890197885260c0600661052e60038901611786565b97878c01988952608061054360048301611786565b9c019b8c5260a060ff6005830154169f019e8f901515905201549b019a8b526040519d8e9d8e525116908c01525160e060408c01526101008b019061168c565b9351908901525191601f1992838983030160808a015261168c565b9151908683030160a087015261168c565b9151151560c08401525160e08301520390f35b3461005557602036600319011261005557600435600090815260026020526040902080546001600160a01b03166105fb60018301611786565b91600281015461066c61061060038401611786565b9161065e61062060048601611786565b91600660ff6005880154169601549461064b604051998a998a5260e060208b015260e08a019061168c565b916040890152878203606089015261168c565b90858203608087015261168c565b91151560a084015260c08301520390f35b346100555760203660031901126100555760043561069961187e565b662386f26fc1000081116106e75760607fc70ec336d4b0f144cc5d85ebf79cd012a3485b407c2b88a10bf70d550dfe1be59160065490806006556040519182526020820152426040820152a1005b60405162461bcd60e51b815260206004820152600c60248201526b08ccaca40e8dede40d0d2ced60a31b6044820152606490fd5b346100555760203660031901126100555760043580600052600260205261076b60018060a01b0361075481604060002054161515611bcb565b826000526002602052604060002054163314611c0f565b6000908152600260205260409020600501805460ff19166001179055005b3461005557602080600319360112610055576001600160401b0390600435828111610055576107bc90369060040161163c565b6107df836040518381948383019687378101600083820152038084520182611765565b51902090604051918183015280825260408201928284109084111761081a57826040528252603f1990610815606082018261168c565b030190f35b634e487b7160e01b600052604160045260246000fd5b34610055576000366003190112610055576020600554604051908152f35b346100555760003660031901126100555760015460405160089190911c6001600160a01b03168152602090f35b346100555760003660031901126100555761089461187e565b61089c611978565b600160ff19815416176001557f62e78cea01bee320cd4e420270b5ea74000d11b0c9f74754ebdbfc544b05a2586020604051338152a1005b346100555760203660031901126100555760043580600052600260205261090d60018060a01b0361075481604060002054161515611bcb565b806000526002602052600560406000200160ff198154169055604051904282527f115364b38a01e7647fb5b763b6918838f2d85c976dc58b09fb8075beb1e33ca160203393a3005b346100555760403660031901126100555761096e6116b1565b6001600160a01b03166000908152600360205260409020805460243591908210156100555760209161099f916116c7565b90549060031b1c604051908152f35b34610055576000366003190112610055576109c761187e565b60018054610100600160a81b0319811690915560009060081c6001600160a01b03167f8be0079c531659141344cd1fd0a4f28419497f9722a3daafe3b4186f6b6457e08280a3005b34610055576040366003190112610055576004356001600160401b03811161005557610a3f90369060040161163c565b906024356001600160a01b03811681036100555782610a7792610a6560209515156118ad565b610a7260648311156118ee565b611ab4565b6040519015158152f35b3461005557600036600319011261005557602060ff600154166040519015158152f35b6060366003190112610055576004356001600160401b03811161005557610acf90369060040161163c565b906024356001600160401b03811161005557610aef90369060040161163c565b92906044356001600160401b03811161005557610b1090369060040161163c565b610b1b949194611996565b610b23611978565b610b2e8415156118ad565b610b3b60648511156118ee565b85156111715760c8861161113b57604051848382376020818681016004815203019020546110f65760065434106110b157610bfd610b7a600554611932565b80600555604051610bbc60948260208101943360601b86528a8960348401378a8201904260348301524360548301526074820152036074810184520182611765565b5190209560405192610bcd8461172f565b338452610bdb368887611847565b6020850152426040850152610bf1368a88611847565b60608501523691611847565b6080820152600160a08201524360c082015284600052600260205260406000209060018060a01b038151166bffffffffffffffffffffffff60a01b83541617825560208101518051906001600160401b03821161081a578190610c6360018601546116f5565b601f811161105e575b50602090601f8311600114610fec57600092610fe1575b50508160011b916000199060031b1c19161760018301555b6040810151600283015560608101518051906001600160401b03821161081a578190610cca60038601546116f5565b601f8111610f8e575b50602090601f8311600114610f1c57600092610f11575b50508160011b916000199060031b1c19161760038301555b60808101518051906001600160401b03821161081a57610d2560048501546116f5565b601f8111610eca575b50602090601f8311600114610e555791806006949260c094600092610e4a575b50508160011b916000199060031b1c19161760048501555b6005840160a0820151151560ff80198354169116179055015191015533600052600360205260406000208054926801000000000000000084101561081a57602096610e1d7f10b7787d761dc1b3ef001e262e7a5d527cb338a802a27bea295a3ef8534dd61794610de087610e2a9660018c9a0181556116c7565b81549060031b9089821b91600019901b191617905586604051898382378b818b810160048152030190205560405197608089526080890191611957565b9186830389880152611957565b924260408201524360608201528033940390a36001600055604051908152f35b015190508b80610d4e565b906004850160005260206000209160005b601f1985168110610eb25750926006949260019260c09583601f19811610610e99575b505050811b016004850155610d66565b015160001960f88460031b161c191690558b8080610e89565b91926020600181928685015181550194019201610e66565b600485016000526020600020601f840160051c810160208510610f0a575b601f830160051c82018110610efe575050610d2e565b60008155600101610ee8565b5080610ee8565b015190508980610cea565b9250600385016000526020600020906000935b601f1984168510610f73576001945083601f19811610610f5a575b505050811b016003830155610d02565b015160001960f88460031b161c19169055898080610f4a565b81810151835560209485019460019093019290910190610f2f565b909150600385016000526020600020601f840160051c810160208510610fda575b90849392915b601f830160051c82018110610fcb575050610cd3565b60008155859450600101610fb5565b5080610faf565b015190508980610c83565b9250600185016000526020600020906000935b601f1984168510611043576001945083601f1981161061102a575b505050811b016001830155610c9b565b015160001960f88460031b161c1916905589808061101a565b81810151835560209485019460019093019290910190610fff565b909150600185016000526020600020601f840160051c8101602085106110aa575b90849392915b601f830160051c8201811061109b575050610c6c565b60008155859450600101611085565b508061107f565b60405162461bcd60e51b815260206004820152601d60248201527f496e73756666696369656e7420726567697374726174696f6e206665650000006044820152606490fd5b60405162461bcd60e51b815260206004820152601a60248201527f436f6e74656e7420616c726561647920726567697374657265640000000000006044820152606490fd5b60405162461bcd60e51b815260206004820152600e60248201526d5469746c6520746f6f206c6f6e6760901b6044820152606490fd5b60405162461bcd60e51b815260206004820152600b60248201526a456d707479207469746c6560a81b6044820152606490fd5b34610055576000366003190112610055576111bd61187e565b6111c5611996565b4780156112385760015460009182918291829160081c6001600160a01b03165af16111ee611c4e565b50156111fb576001600055005b60405162461bcd60e51b8152602060048201526015602482015274119959481dda5d1a191c985dd85b0819985a5b1959605a1b6044820152606490fd5b60405162461bcd60e51b81526020600482015260136024820152724e6f206665657320746f20776974686472617760681b6044820152606490fd5b346100555760003660031901126100555761128c61187e565b611294611c7e565b60ff19600154166001557f5db9ee0a495bf2e6ff9c91a7834c1ba4fdd244a5e8aa4e537bd38aeae4b073aa6020604051338152a1005b3461005557600036600319011261005557602060405160c88152f35b34610055576020366003190112610055576004356001600160401b0381116100555761133a61131c61136a92369060040161163c565b906113288215156118ad565b61133560648311156118ee565b6119b9565b9294916040519586951515865260018060a01b03166020860152604085015260a0606085015260a084019061168c565b9060808301520390f35b3461005557600036600319011261005557602060405160648152f35b3461005557602080600319360112610055576004356001600160401b03918282116100555736602383011215610055578160040135908382116100555760249136838260051b8601011161005557603281116115de579084926113f283611c9d565b936114006040519586611765565b83855261140c84611c9d565b9383860192601f1980960136853761142382611c9d565b97611431604051998a611765565b82895261143d83611c9d565b898701970136883736819003604219019060005b8481106114df575050505050506040519485946040860190604087525180915260608601929060005b8181106114c6575050508482038584015251808252908201929160005b8281106114a657505050500390f35b83516001600160a01b031685528695509381019392810192600101611497565b825115158552889750938501939185019160010161147a565b838160059c989a9b9c1b830101358381121561005557820190848201359187831161005557604401918036038313610055578961153693826040519384928337810160048152030190205480611540575b50611932565b9998979599611451565b6000528860028082528d6115ca84604060002092604051946115618661172f565b84546001600160a01b0390811687529661157d60018701611786565b90870152840154604086015261159560038501611786565b60608601526115a660048501611786565b6080860152600660ff6005860154161515948560a0880152015460c0860152611cb4565b5251166115d7828a611cb4565b528c611530565b5060196064926040519262461bcd60e51b845260048401528201527f546f6f206d616e792068617368657320746f20766572696679000000000000006044820152fd5b34610055576000366003190112610055576020906006548152f35b9181601f84011215610055578235916001600160401b038311610055576020838186019501011161005557565b60005b83811061167c5750506000910152565b818101518382015260200161166c565b906020916116a581518092818552858086019101611669565b601f01601f1916010190565b600435906001600160a01b038216820361005557565b80548210156116df5760005260206000200190600090565b634e487b7160e01b600052603260045260246000fd5b90600182811c92168015611725575b602083101461170f57565b634e487b7160e01b600052602260045260246000fd5b91607f1691611704565b60e081019081106001600160401b0382111761081a57604052565b602081019081106001600160401b0382111761081a57604052565b90601f801991011681019081106001600160401b0382111761081a57604052565b906040519182600082549261179a846116f5565b90818452600194858116908160001461180957506001146117c6575b50506117c492500383611765565b565b9093915060005260209081600020936000915b8183106117f15750506117c4935082010138806117b6565b855488840185015294850194879450918301916117d9565b9150506117c494506020925060ff191682840152151560051b82010138806117b6565b6001600160401b03811161081a57601f01601f191660200190565b9291926118538261182c565b916118616040519384611765565b829481845281830111610055578281602093846000960137010152565b60015460081c6001600160a01b0316330361189557565b60405163118cdaa760e01b8152336004820152602490fd5b156118b457565b60405162461bcd60e51b815260206004820152601260248201527108adae0e8f240c6dedce8cadce840d0c2e6d60731b6044820152606490fd5b156118f557565b60405162461bcd60e51b8152602060048201526015602482015274436f6e74656e74206861736820746f6f206c6f6e6760581b6044820152606490fd5b60001981146119415760010190565b634e487b7160e01b600052601160045260246000fd5b908060209392818452848401376000828201840152601f01601f1916010190565b60ff6001541661198457565b60405163d93c066560e01b8152600490fd5b6002600054146119a7576002600055565b604051633ee5aeb560e01b8152600490fd5b90602060409282845193849283378101600481520301902054918215611a9757600092835260026020528183209082516119f28161172f565b82546001600160a01b03908116825290611a0e60018501611786565b6020820152600284015495858201968752611a2b60038601611786565b9560608301968752611a3f60048701611786565b6080840152600660ff6005880154161596871560a086015201549560c08401968752611a7957505051169351925191519060019493929190565b9450955050509150828092819251611a908161174a565b8281529190565b90516000925082918291611aaa8161174a565b6000815290600090565b9190604092835182828237602081848101600481520301902054918215611bc15782600052600260205284600020948051611aee8161172f565b86546001600160a01b039081168252908190611b0c60018a01611786565b6020820152600289015484820152611b2660038a01611786565b6060820152611b3760048a01611786565b6080820152600660ff60058b0154161515998a60a0840152015460c08201525116951695868614159081611bb9575b50611b7657505050505050600090565b611bab7fdb9dd5f58c27d38bf6ceea5cef7e066b4deca5c5e56996096703493294f09099938251938385948552840191611957565b4260208301520390a4600190565b905038611b66565b5050505050600090565b15611bd257565b60405162461bcd60e51b8152602060048201526015602482015274149958dbdc9908191bd95cc81b9bdd08195e1a5cdd605a1b6044820152606490fd5b15611c1657565b60405162461bcd60e51b815260206004820152601060248201526f2737ba103932b1b7b9321037bbb732b960811b6044820152606490fd5b3d15611c79573d90611c5f8261182c565b91611c6d6040519384611765565b82523d6000602084013e565b606090565b60ff6001541615611c8b57565b604051638dfc202b60e01b8152600490fd5b6001600160401b03811161081a5760051b60200190565b80518210156116df5760209160051b01019056fea264697066735822122055bca9e02e0fffc28de39c3a4c8e7a24e40e145a17954c93658295f4b7bb5e3164736f6c63430008140033","opcodes":"PUSH1 0x80 DUP1 PUSH1 0x40 MSTORE CALLVALUE PUSH2 0x9E JUMPI PUSH1 0x1 PUSH1 0x0 SSTORE CALLER ISZERO PUSH2 0x88 JUMPI PUSH1 0x1 DUP1 SLOAD PUSH2 0x100 PUSH1 0x1 PUSH1 0xA8 SHL SUB NOT DUP2 AND CALLER PUSH1 0x8 DUP2 DUP2 SHL PUSH2 0x100 PUSH1 0x1 PUSH1 0xA8 SHL SUB AND SWAP3 SWAP1 SWAP3 OR SWAP1 SWAP4 SSTORE PUSH1 0x40 MLOAD SWAP3 SWAP2 SWAP1 SHR PUSH1 0x1 PUSH1 0x1 PUSH1 0xA0 SHL SUB AND PUSH32 0x8BE0079C531659141344CD1FD0A4F28419497F9722A3DAAFE3B4186F6B6457E0 PUSH1 0x0 DUP1 LOG3 PUSH7 0x38D7EA4C68000 PUSH1 0x6 SSTORE PUSH2 0x1CFE SWAP1 DUP2 PUSH2 0xA4 DUP3 CODECOPY RETURN JUMPDEST PUSH4 0x1E4FBDF7 PUSH1 0xE0 SHL DUP2 MSTORE PUSH1 0x0 PUSH1 0x4 DUP3 ADD MSTORE PUSH1 0x24 SWAP1 REVERT JUMPDEST PUSH1 0x0 DUP1 REVERT INVALID PUSH1 0x80 DUP1 PUSH1 0x40 MSTORE PUSH1 0x4 CALLDATASIZE LT ISZERO PUSH2 0x9F JUMPI JUMPDEST POP CALLDATASIZE ISZERO PUSH2 0x5A JUMPI CALLVALUE PUSH2 0x55 JUMPI PUSH1 0x40 MLOAD PUSH3 0x461BCD PUSH1 0xE5 SHL DUP2 MSTORE PUSH1 0x20 PUSH1 0x4 DUP3 ADD MSTORE PUSH1 0x12 PUSH1 0x24 DUP3 ADD MSTORE PUSH18 0x119D5B98DD1A5BDB881B9BDD08199BDD5B99 PUSH1 0x72 SHL PUSH1 0x44 DUP3 ADD MSTORE PUSH1 0x64 SWAP1 REVERT JUMPDEST PUSH1 0x0 DUP1 REVERT JUMPDEST PUSH1 0x40 MLOAD PUSH3 0x461BCD PUSH1 0xE5 SHL DUP2 MSTORE PUSH1 0x20 PUSH1 0x4 DUP3 ADD MSTORE PUSH1 0x1B PUSH1 0x24 DUP3 ADD MSTORE PUSH32 0x446972656374207061796D656E7473206E6F7420616C6C6F7765640000000000 PUSH1 0x44 DUP3 ADD MSTORE PUSH1 0x64 SWAP1 REVERT JUMPDEST PUSH1 0x0 CALLDATALOAD PUSH1 0xE0 SHR SWAP1 DUP2 PUSH4 0x14C44E09 EQ PUSH2 0x1621 JUMPI POP DUP1 PUSH4 0x18DA6515 EQ PUSH2 0x1390 JUMPI DUP1 PUSH4 0x19B1F5FC EQ PUSH2 0x1374 JUMPI DUP1 PUSH4 0x261F84D2 EQ PUSH2 0x12E6 JUMPI DUP1 PUSH4 0x2EF9A160 EQ PUSH2 0x12CA JUMPI DUP1 PUSH4 0x3F4BA83A EQ PUSH2 0x1273 JUMPI DUP1 PUSH4 0x476343EE EQ PUSH2 0x11A4 JUMPI DUP1 PUSH4 0x51B07332 EQ PUSH2 0xAA4 JUMPI DUP1 PUSH4 0x5C975ABB EQ PUSH2 0xA81 JUMPI DUP1 PUSH4 0x64E7B189 EQ PUSH2 0xA0F JUMPI DUP1 PUSH4 0x715018A6 EQ PUSH2 0x9AE JUMPI DUP1 PUSH4 0x7906DCB2 EQ PUSH2 0x955 JUMPI DUP1 PUSH4 0x7A0C1F4F EQ PUSH2 0x8D4 JUMPI DUP1 PUSH4 0x8456CB59 EQ PUSH2 0x87B JUMPI DUP1 PUSH4 0x8DA5CB5B EQ PUSH2 0x84E JUMPI DUP1 PUSH4 0x900407BC EQ PUSH2 0x830 JUMPI DUP1 PUSH4 0x994470D3 EQ PUSH2 0x789 JUMPI DUP1 PUSH4 0xA3AE647A EQ PUSH2 0x71B JUMPI DUP1 PUSH4 0xAF582C6B EQ PUSH2 0x67D JUMPI DUP1 PUSH4 0xB6C57E9E EQ PUSH2 0x5C2 JUMPI DUP1 PUSH4 0xB97E964E EQ PUSH2 0x462 JUMPI DUP1 PUSH4 0xD241EEEE EQ PUSH2 0x3AE JUMPI DUP1 PUSH4 0xDB2E21BC EQ PUSH2 0x316 JUMPI DUP1 PUSH4 0xDB53DB8F EQ PUSH2 0x2A9 JUMPI DUP1 PUSH4 0xDFE6B5D6 EQ PUSH2 0x263 JUMPI PUSH4 0xF2FDE38B EQ PUSH2 0x1CA JUMPI CODESIZE PUSH2 0xF JUMP JUMPDEST CALLVALUE PUSH2 0x55 JUMPI PUSH1 0x20 CALLDATASIZE PUSH1 0x3 NOT ADD SLT PUSH2 0x55 JUMPI PUSH2 0x1E3 PUSH2 0x16B1 JUMP JUMPDEST PUSH2 0x1EB PUSH2 0x187E JUMP JUMPDEST PUSH1 0x1 PUSH1 0x1 PUSH1 0xA0 SHL SUB DUP2 DUP2 AND SWAP2 DUP3 ISZERO PUSH2 0x24A JUMPI PUSH1 0x1 DUP1 SLOAD PUSH2 0x100 PUSH1 0x1 PUSH1 0xA8 SHL SUB NOT DUP2 AND PUSH1 0x8 SWAP4 DUP5 SHL PUSH2 0x100 PUSH1 0x1 PUSH1 0xA8 SHL SUB AND OR SWAP1 SWAP2 SSTORE SWAP1 SHR AND PUSH32 0x8BE0079C531659141344CD1FD0A4F28419497F9722A3DAAFE3B4186F6B6457E0 PUSH1 0x0 DUP1 LOG3 STOP JUMPDEST PUSH1 0x40 MLOAD PUSH4 0x1E4FBDF7 PUSH1 0xE0 SHL DUP2 MSTORE PUSH1 0x0 PUSH1 0x4 DUP3 ADD MSTORE PUSH1 0x24 SWAP1 REVERT JUMPDEST CALLVALUE PUSH2 0x55 JUMPI PUSH1 0x0 CALLDATASIZE PUSH1 0x3 NOT ADD SLT PUSH2 0x55 JUMPI PUSH1 0x80 PUSH1 0x5 SLOAD PUSH1 0x6 SLOAD PUSH1 0x1 SLOAD SWAP1 PUSH1 0x40 MLOAD SWAP3 DUP4 MSTORE PUSH1 0x20 DUP4 ADD MSTORE PUSH1 0xFF DUP2 AND ISZERO ISZERO PUSH1 0x40 DUP4 ADD MSTORE PUSH1 0x1 DUP1 PUSH1 0xA0 SHL SUB SWAP1 PUSH1 0x8 SHR AND PUSH1 0x60 DUP3 ADD MSTORE RETURN JUMPDEST CALLVALUE PUSH2 0x55 JUMPI PUSH1 0x20 CALLDATASIZE PUSH1 0x3 NOT ADD SLT PUSH2 0x55 JUMPI PUSH1 0x4 CALLDATALOAD PUSH1 0x1 PUSH1 0x1 PUSH1 0x40 SHL SUB DUP2 GT PUSH2 0x55 JUMPI CALLDATASIZE PUSH1 0x23 DUP3 ADD SLT ISZERO PUSH2 0x55 JUMPI PUSH2 0x303 PUSH1 0x20 PUSH2 0x2F0 DUP2 SWAP4 CALLDATASIZE SWAP1 PUSH1 0x24 DUP2 PUSH1 0x4 ADD CALLDATALOAD SWAP2 ADD PUSH2 0x1847 JUMP JUMPDEST DUP2 PUSH1 0x40 MLOAD SWAP4 DUP3 DUP6 DUP1 SWAP5 MLOAD SWAP4 DUP5 SWAP3 ADD PUSH2 0x1669 JUMP JUMPDEST DUP2 ADD PUSH1 0x4 DUP2 MSTORE SUB ADD SWAP1 KECCAK256 SLOAD PUSH1 0x40 MLOAD SWAP1 DUP2 MSTORE RETURN JUMPDEST CALLVALUE PUSH2 0x55 JUMPI PUSH1 0x0 CALLDATASIZE PUSH1 0x3 NOT ADD SLT PUSH2 0x55 JUMPI PUSH2 0x32F PUSH2 0x187E JUMP JUMPDEST PUSH2 0x337 PUSH2 0x1C7E JUMP JUMPDEST SELFBALANCE DUP1 PUSH2 0x33F JUMPI STOP JUMPDEST PUSH1 0x1 SLOAD PUSH1 0x0 SWAP2 DUP3 SWAP2 DUP3 SWAP2 DUP3 SWAP2 PUSH1 0x8 SHR PUSH1 0x1 PUSH1 0x1 PUSH1 0xA0 SHL SUB AND GAS CALL PUSH2 0x361 PUSH2 0x1C4E JUMP JUMPDEST POP ISZERO PUSH2 0x369 JUMPI STOP JUMPDEST PUSH1 0x40 MLOAD PUSH3 0x461BCD PUSH1 0xE5 SHL DUP2 MSTORE PUSH1 0x20 PUSH1 0x4 DUP3 ADD MSTORE PUSH1 0x1B PUSH1 0x24 DUP3 ADD MSTORE PUSH32 0x456D657267656E6379207769746864726177616C206661696C65640000000000 PUSH1 0x44 DUP3 ADD MSTORE PUSH1 0x64 SWAP1 REVERT JUMPDEST CALLVALUE PUSH2 0x55 JUMPI PUSH1 0x20 DUP1 PUSH1 0x3 NOT CALLDATASIZE ADD SLT PUSH2 0x55 JUMPI PUSH1 0x1 PUSH1 0x1 PUSH1 0xA0 SHL SUB PUSH2 0x3D0 PUSH2 0x16B1 JUMP JUMPDEST AND PUSH1 0x0 MSTORE PUSH1 0x3 DUP2 MSTORE PUSH1 0x40 PUSH1 0x0 KECCAK256 PUSH1 0x40 MLOAD SWAP1 DUP2 DUP4 DUP3 SLOAD SWAP2 DUP3 DUP2 MSTORE ADD SWAP1 DUP2 SWAP3 PUSH1 0x0 MSTORE DUP5 PUSH1 0x0 KECCAK256 SWAP1 PUSH1 0x0 JUMPDEST DUP7 DUP3 DUP3 LT PUSH2 0x44E JUMPI DUP7 DUP7 PUSH2 0x40E DUP3 DUP9 SUB DUP4 PUSH2 0x1765 JUMP JUMPDEST PUSH1 0x40 MLOAD SWAP3 DUP4 SWAP3 DUP2 DUP5 ADD SWAP1 DUP3 DUP6 MSTORE MLOAD DUP1 SWAP2 MSTORE PUSH1 0x40 DUP5 ADD SWAP3 SWAP2 PUSH1 0x0 JUMPDEST DUP3 DUP2 LT PUSH2 0x437 JUMPI POP POP POP POP SUB SWAP1 RETURN JUMPDEST DUP4 MLOAD DUP6 MSTORE DUP7 SWAP6 POP SWAP4 DUP2 ADD SWAP4 SWAP3 DUP2 ADD SWAP3 PUSH1 0x1 ADD PUSH2 0x428 JUMP JUMPDEST DUP4 SLOAD DUP6 MSTORE SWAP1 SWAP4 ADD SWAP3 PUSH1 0x1 SWAP3 DUP4 ADD SWAP3 ADD PUSH2 0x3F8 JUMP JUMPDEST CALLVALUE PUSH2 0x55 JUMPI PUSH1 0x20 DUP1 PUSH1 0x3 NOT CALLDATASIZE ADD SLT PUSH2 0x55 JUMPI PUSH1 0x4 CALLDATALOAD SWAP1 PUSH2 0x59E PUSH1 0x40 MLOAD PUSH2 0x487 DUP2 PUSH2 0x172F JUMP JUMPDEST PUSH1 0x0 DUP2 MSTORE PUSH1 0x0 PUSH1 0xC0 PUSH1 0x60 SWAP3 DUP4 DUP7 DUP3 ADD MSTORE DUP3 PUSH1 0x40 DUP3 ADD MSTORE DUP4 DUP1 DUP3 ADD MSTORE DUP4 PUSH1 0x80 DUP3 ADD MSTORE DUP3 PUSH1 0xA0 DUP3 ADD MSTORE ADD MSTORE DUP4 PUSH1 0x0 MSTORE PUSH1 0x2 DUP4 MSTORE PUSH1 0x1 DUP1 PUSH1 0xA0 SHL SUB SWAP4 PUSH2 0x4D2 DUP6 PUSH1 0x40 PUSH1 0x0 KECCAK256 SLOAD AND ISZERO ISZERO PUSH2 0x1BCB JUMP JUMPDEST PUSH1 0x0 MSTORE PUSH1 0x2 DUP4 MSTORE PUSH2 0x5AF PUSH1 0x40 PUSH1 0x0 KECCAK256 SWAP2 PUSH1 0x40 MLOAD SWAP6 DUP7 SWAP5 DUP6 SWAP5 DUP6 SWAP4 PUSH2 0x4F5 DUP6 PUSH2 0x172F JUMP JUMPDEST DUP4 DUP3 SLOAD AND DUP6 MSTORE PUSH2 0x583 PUSH2 0x50A PUSH1 0x1 DUP5 ADD PUSH2 0x1786 JUMP JUMPDEST DUP11 DUP8 ADD SWAP1 DUP2 MSTORE DUP11 PUSH1 0x2 DUP6 ADD SLOAD SWAP7 PUSH1 0x40 DUP10 ADD SWAP8 DUP9 MSTORE PUSH1 0xC0 PUSH1 0x6 PUSH2 0x52E PUSH1 0x3 DUP10 ADD PUSH2 0x1786 JUMP JUMPDEST SWAP8 DUP8 DUP13 ADD SWAP9 DUP10 MSTORE PUSH1 0x80 PUSH2 0x543 PUSH1 0x4 DUP4 ADD PUSH2 0x1786 JUMP JUMPDEST SWAP13 ADD SWAP12 DUP13 MSTORE PUSH1 0xA0 PUSH1 0xFF PUSH1 0x5 DUP4 ADD SLOAD AND SWAP16 ADD SWAP15 DUP16 SWAP1 ISZERO ISZERO SWAP1 MSTORE ADD SLOAD SWAP12 ADD SWAP11 DUP12 MSTORE PUSH1 0x40 MLOAD SWAP14 DUP15 SWAP14 DUP15 MSTORE MLOAD AND SWAP1 DUP13 ADD MSTORE MLOAD PUSH1 0xE0 PUSH1 0x40 DUP13 ADD MSTORE PUSH2 0x100 DUP12 ADD SWAP1 PUSH2 0x168C JUMP JUMPDEST SWAP4 MLOAD SWAP1 DUP10 ADD MSTORE MLOAD SWAP2 PUSH1 0x1F NOT SWAP3 DUP4 DUP10 DUP4 SUB ADD PUSH1 0x80 DUP11 ADD MSTORE PUSH2 0x168C JUMP JUMPDEST SWAP2 MLOAD SWAP1 DUP7 DUP4 SUB ADD PUSH1 0xA0 DUP8 ADD MSTORE PUSH2 0x168C JUMP JUMPDEST SWAP2 MLOAD ISZERO ISZERO PUSH1 0xC0 DUP5 ADD MSTORE MLOAD PUSH1 0xE0 DUP4 ADD MSTORE SUB SWAP1 RETURN JUMPDEST CALLVALUE PUSH2 0x55 JUMPI PUSH1 0x20 CALLDATASIZE PUSH1 0x3 NOT ADD SLT PUSH2 0x55 JUMPI PUSH1 0x4 CALLDATALOAD PUSH1 0x0 SWAP1 DUP2 MSTORE PUSH1 0x2 PUSH1 0x20 MSTORE PUSH1 0x40 SWAP1 KECCAK256 DUP1 SLOAD PUSH1 0x1 PUSH1 0x1 PUSH1 0xA0 SHL SUB AND PUSH2 0x5FB PUSH1 0x1 DUP4 ADD PUSH2 0x1786 JUMP JUMPDEST SWAP2 PUSH1 0x2 DUP2 ADD SLOAD PUSH2 0x66C PUSH2 0x610 PUSH1 0x3 DUP5 ADD PUSH2 0x1786 JUMP JUMPDEST SWAP2 PUSH2 0x65E PUSH2 0x620 PUSH1 0x4 DUP7 ADD PUSH2 0x1786 JUMP JUMPDEST SWAP2 PUSH1 0x6 PUSH1 0xFF PUSH1 0x5 DUP9 ADD SLOAD AND SWAP7 ADD SLOAD SWAP5 PUSH2 0x64B PUSH1 0x40 MLOAD SWAP10 DUP11 SWAP10 DUP11 MSTORE PUSH1 0xE0 PUSH1 0x20 DUP12 ADD MSTORE PUSH1 0xE0 DUP11 ADD SWAP1 PUSH2 0x168C JUMP JUMPDEST SWAP2 PUSH1 0x40 DUP10 ADD MSTORE DUP8 DUP3 SUB PUSH1 0x60 DUP10 ADD MSTORE PUSH2 0x168C JUMP JUMPDEST SWAP1 DUP6 DUP3 SUB PUSH1 0x80 DUP8 ADD MSTORE PUSH2 0x168C JUMP JUMPDEST SWAP2 ISZERO ISZERO PUSH1 0xA0 DUP5 ADD MSTORE PUSH1 0xC0 DUP4 ADD MSTORE SUB SWAP1 RETURN JUMPDEST CALLVALUE PUSH2 0x55 JUMPI PUSH1 0x20 CALLDATASIZE PUSH1 0x3 NOT ADD SLT PUSH2 0x55 JUMPI PUSH1 0x4 CALLDATALOAD PUSH2 0x699 PUSH2 0x187E JUMP JUMPDEST PUSH7 0x2386F26FC10000 DUP2 GT PUSH2 0x6E7 JUMPI PUSH1 0x60 PUSH32 0xC70EC336D4B0F144CC5D85EBF79CD012A3485B407C2B88A10BF70D550DFE1BE5 SWAP2 PUSH1 0x6 SLOAD SWAP1 DUP1 PUSH1 0x6 SSTORE PUSH1 0x40 MLOAD SWAP2 DUP3 MSTORE PUSH1 0x20 DUP3 ADD MSTORE TIMESTAMP PUSH1 0x40 DUP3 ADD MSTORE LOG1 STOP JUMPDEST PUSH1 0x40 MLOAD PUSH3 0x461BCD PUSH1 0xE5 SHL DUP2 MSTORE PUSH1 0x20 PUSH1 0x4 DUP3 ADD MSTORE PUSH1 0xC PUSH1 0x24 DUP3 ADD MSTORE PUSH12 0x8CCACA40E8DEDE40D0D2CED PUSH1 0xA3 SHL PUSH1 0x44 DUP3 ADD MSTORE PUSH1 0x64 SWAP1 REVERT JUMPDEST CALLVALUE PUSH2 0x55 JUMPI PUSH1 0x20 CALLDATASIZE PUSH1 0x3 NOT ADD SLT PUSH2 0x55 JUMPI PUSH1 0x4 CALLDATALOAD DUP1 PUSH1 0x0 MSTORE PUSH1 0x2 PUSH1 0x20 MSTORE PUSH2 0x76B PUSH1 0x1 DUP1 PUSH1 0xA0 SHL SUB PUSH2 0x754 DUP2 PUSH1 0x40 PUSH1 0x0 KECCAK256 SLOAD AND ISZERO ISZERO PUSH2 0x1BCB JUMP JUMPDEST DUP3 PUSH1 0x0 MSTORE PUSH1 0x2 PUSH1 0x20 MSTORE PUSH1 0x40 PUSH1 0x0 KECCAK256 SLOAD AND CALLER EQ PUSH2 0x1C0F JUMP JUMPDEST PUSH1 0x0 SWAP1 DUP2 MSTORE PUSH1 0x2 PUSH1 0x20 MSTORE PUSH1 0x40 SWAP1 KECCAK256 PUSH1 0x5 ADD DUP1 SLOAD PUSH1 0xFF NOT AND PUSH1 0x1 OR SWAP1 SSTORE STOP JUMPDEST CALLVALUE PUSH2 0x55 JUMPI PUSH1 0x20 DUP1 PUSH1 0x3 NOT CALLDATASIZE ADD SLT PUSH2 0x55 JUMPI PUSH1 0x1 PUSH1 0x1 PUSH1 0x40 SHL SUB SWAP1 PUSH1 0x4 CALLDATALOAD DUP3 DUP2 GT PUSH2 0x55 JUMPI PUSH2 0x7BC SWAP1 CALLDATASIZE SWAP1 PUSH1 0x4 ADD PUSH2 0x163C JUMP JUMPDEST PUSH2 0x7DF DUP4 PUSH1 0x40 MLOAD DUP4 DUP2 SWAP5 DUP4 DUP4 ADD SWAP7 DUP8 CALLDATACOPY DUP2 ADD PUSH1 0x0 DUP4 DUP3 ADD MSTORE SUB DUP1 DUP5 MSTORE ADD DUP3 PUSH2 0x1765 JUMP JUMPDEST MLOAD SWAP1 KECCAK256 SWAP1 PUSH1 0x40 MLOAD SWAP2 DUP2 DUP4 ADD MSTORE DUP1 DUP3 MSTORE PUSH1 0x40 DUP3 ADD SWAP3 DUP3 DUP5 LT SWAP1 DUP5 GT OR PUSH2 0x81A JUMPI DUP3 PUSH1 0x40 MSTORE DUP3 MSTORE PUSH1 0x3F NOT SWAP1 PUSH2 0x815 PUSH1 0x60 DUP3 ADD DUP3 PUSH2 0x168C JUMP JUMPDEST SUB ADD SWAP1 RETURN JUMPDEST PUSH4 0x4E487B71 PUSH1 0xE0 SHL PUSH1 0x0 MSTORE PUSH1 0x41 PUSH1 0x4 MSTORE PUSH1 0x24 PUSH1 0x0 REVERT JUMPDEST CALLVALUE PUSH2 0x55 JUMPI PUSH1 0x0 CALLDATASIZE PUSH1 0x3 NOT ADD SLT PUSH2 0x55 JUMPI PUSH1 0x20 PUSH1 0x5 SLOAD PUSH1 0x40 MLOAD SWAP1 DUP2 MSTORE RETURN JUMPDEST CALLVALUE PUSH2 0x55 JUMPI PUSH1 0x0 CALLDATASIZE PUSH1 0x3 NOT ADD SLT PUSH2 0x55 JUMPI PUSH1 0x1 SLOAD PUSH1 0x40 MLOAD PUSH1 0x8 SWAP2 SWAP1 SWAP2 SHR PUSH1 0x1 PUSH1 0x1 PUSH1 0xA0 SHL SUB AND DUP2 MSTORE PUSH1 0x20 SWAP1 RETURN JUMPDEST CALLVALUE PUSH2 0x55 JUMPI PUSH1 0x0 CALLDATASIZE PUSH1 0x3 NOT ADD SLT PUSH2 0x55 JUMPI PUSH2 0x894 PUSH2 0x187E JUMP JUMPDEST PUSH2 0x89C PUSH2 0x1978 JUMP JUMPDEST PUSH1 0x1 PUSH1 0xFF NOT DUP2 SLOAD AND OR PUSH1 0x1 SSTORE PUSH32 0x62E78CEA01BEE320CD4E420270B5EA74000D11B0C9F74754EBDBFC544B05A258 PUSH1 0x20 PUSH1 0x40 MLOAD CALLER DUP2 MSTORE LOG1 STOP JUMPDEST CALLVALUE PUSH2 0x55 JUMPI PUSH1 0x20 CALLDATASIZE PUSH1 0x3 NOT ADD SLT PUSH2 0x55 JUMPI PUSH1 0x4 CALLDATALOAD DUP1 PUSH1 0x0 MSTORE PUSH1 0x2 PUSH1 0x20 MSTORE PUSH2 0x90D PUSH1 0x1 DUP1 PUSH1 0xA0 SHL SUB PUSH2 0x754 DUP2 PUSH1 0x40 PUSH1 0x0 KECCAK256 SLOAD AND ISZERO ISZERO PUSH2 0x1BCB JUMP JUMPDEST DUP1 PUSH1 0x0 MSTORE PUSH1 0x2 PUSH1 0x20 MSTORE PUSH1 0x5 PUSH1 0x40 PUSH1 0x0 KECCAK256 ADD PUSH1 0xFF NOT DUP2 SLOAD AND SWAP1 SSTORE PUSH1 0x40 MLOAD SWAP1 TIMESTAMP DUP3 MSTORE PUSH32 0x115364B38A01E7647FB5B763B6918838F2D85C976DC58B09FB8075BEB1E33CA1 PUSH1 0x20 CALLER SWAP4 LOG3 STOP JUMPDEST CALLVALUE PUSH2 0x55 JUMPI PUSH1 0x40 CALLDATASIZE PUSH1 0x3 NOT ADD SLT PUSH2 0x55 JUMPI PUSH2 0x96E PUSH2 0x16B1 JUMP JUMPDEST PUSH1 0x1 PUSH1 0x1 PUSH1 0xA0 SHL SUB AND PUSH1 0x0 SWAP1 DUP2 MSTORE PUSH1 0x3 PUSH1 0x20 MSTORE PUSH1 0x40 SWAP1 KECCAK256 DUP1 SLOAD PUSH1 0x24 CALLDATALOAD SWAP2 SWAP1 DUP3 LT ISZERO PUSH2 0x55 JUMPI PUSH1 0x20 SWAP2 PUSH2 0x99F SWAP2 PUSH2 0x16C7 JUMP JUMPDEST SWAP1 SLOAD SWAP1 PUSH1 0x3 SHL SHR PUSH1 0x40 MLOAD SWAP1 DUP2 MSTORE RETURN JUMPDEST CALLVALUE PUSH2 0x55 JUMPI PUSH1 0x0 CALLDATASIZE PUSH1 0x3 NOT ADD SLT PUSH2 0x55 JUMPI PUSH2 0x9C7 PUSH2 0x187E JUMP JUMPDEST PUSH1 0x1 DUP1 SLOAD PUSH2 0x100 PUSH1 0x1 PUSH1 0xA8 SHL SUB NOT DUP2 AND SWAP1 SWAP2 SSTORE PUSH1 0x0 SWAP1 PUSH1 0x8 SHR PUSH1 0x1 PUSH1 0x1 PUSH1 0xA0 SHL SUB AND PUSH32 0x8BE0079C531659141344CD1FD0A4F28419497F9722A3DAAFE3B4186F6B6457E0 DUP3 DUP1 LOG3 STOP JUMPDEST CALLVALUE PUSH2 0x55 JUMPI PUSH1 0x40 CALLDATASIZE PUSH1 0x3 NOT ADD SLT PUSH2 0x55 JUMPI PUSH1 0x4 CALLDATALOAD PUSH1 0x1 PUSH1 0x1 PUSH1 0x40 SHL SUB DUP2 GT PUSH2 0x55 JUMPI PUSH2 0xA3F SWAP1 CALLDATASIZE SWAP1 PUSH1 0x4 ADD PUSH2 0x163C JUMP JUMPDEST SWAP1 PUSH1 0x24 CALLDATALOAD PUSH1 0x1 PUSH1 0x1 PUSH1 0xA0 SHL SUB DUP2 AND DUP2 SUB PUSH2 0x55 JUMPI DUP3 PUSH2 0xA77 SWAP3 PUSH2 0xA65 PUSH1 0x20 SWAP6 ISZERO ISZERO PUSH2 0x18AD JUMP JUMPDEST PUSH2 0xA72 PUSH1 0x64 DUP4 GT ISZERO PUSH2 0x18EE JUMP JUMPDEST PUSH2 0x1AB4 JUMP JUMPDEST PUSH1 0x40 MLOAD SWAP1 ISZERO ISZERO DUP2 MSTORE RETURN JUMPDEST CALLVALUE PUSH2 0x55 JUMPI PUSH1 0x0 CALLDATASIZE PUSH1 0x3 NOT ADD SLT PUSH2 0x55 JUMPI PUSH1 0x20 PUSH1 0xFF PUSH1 0x1 SLOAD AND PUSH1 0x40 MLOAD SWAP1 ISZERO ISZERO DUP2 MSTORE RETURN JUMPDEST PUSH1 0x60 CALLDATASIZE PUSH1 0x3 NOT ADD SLT PUSH2 0x55 JUMPI PUSH1 0x4 CALLDATALOAD PUSH1 0x1 PUSH1 0x1 PUSH1 0x40 SHL SUB DUP2 GT PUSH2 0x55 JUMPI PUSH2 0xACF SWAP1 CALLDATASIZE SWAP1 PUSH1 0x4 ADD PUSH2 0x163C JUMP JUMPDEST SWAP1 PUSH1 0x24 CALLDATALOAD PUSH1 0x1 PUSH1 0x1 PUSH1 0x40 SHL SUB DUP2 GT PUSH2 0x55 JUMPI PUSH2 0xAEF SWAP1 CALLDATASIZE SWAP1 PUSH1 0x4 ADD PUSH2 0x163C JUMP JUMPDEST SWAP3 SWAP1 PUSH1 0x44 CALLDATALOAD PUSH1 0x1 PUSH1 0x1 PUSH1 0x40 SHL SUB DUP2 GT PUSH2 0x55 JUMPI PUSH2 0xB10 SWAP1 CALLDATASIZE SWAP1 PUSH1 0x4 ADD PUSH2 0x163C JUMP JUMPDEST PUSH2 0xB1B SWAP5 SWAP2 SWAP5 PUSH2 0x1996 JUMP JUMPDEST PUSH2 0xB23 PUSH2 0x1978 JUMP JUMPDEST PUSH2 0xB2E DUP5 ISZERO ISZERO PUSH2 0x18AD JUMP JUMPDEST PUSH2 0xB3B PUSH1 0x64 DUP6 GT ISZERO PUSH2 0x18EE JUMP JUMPDEST DUP6 ISZERO PUSH2 0x1171 JUMPI PUSH1 0xC8 DUP7 GT PUSH2 0x113B JUMPI PUSH1 0x40 MLOAD DUP5 DUP4 DUP3 CALLDATACOPY PUSH1 0x20 DUP2 DUP7 DUP2 ADD PUSH1 0x4 DUP2 MSTORE SUB ADD SWAP1 KECCAK256 SLOAD PUSH2 0x10F6 JUMPI PUSH1 0x6 SLOAD CALLVALUE LT PUSH2 0x10B1 JUMPI PUSH2 0xBFD PUSH2 0xB7A PUSH1 0x5 SLOAD PUSH2 0x1932 JUMP JUMPDEST DUP1 PUSH1 0x5 SSTORE PUSH1 0x40 MLOAD PUSH2 0xBBC PUSH1 0x94 DUP3 PUSH1 0x20 DUP2 ADD SWAP5 CALLER PUSH1 0x60 SHL DUP7 MSTORE DUP11 DUP10 PUSH1 0x34 DUP5 ADD CALLDATACOPY DUP11 DUP3 ADD SWAP1 TIMESTAMP PUSH1 0x34 DUP4 ADD MSTORE NUMBER PUSH1 0x54 DUP4 ADD MSTORE PUSH1 0x74 DUP3 ADD MSTORE SUB PUSH1 0x74 DUP2 ADD DUP5 MSTORE ADD DUP3 PUSH2 0x1765 JUMP JUMPDEST MLOAD SWAP1 KECCAK256 SWAP6 PUSH1 0x40 MLOAD SWAP3 PUSH2 0xBCD DUP5 PUSH2 0x172F JUMP JUMPDEST CALLER DUP5 MSTORE PUSH2 0xBDB CALLDATASIZE DUP9 DUP8 PUSH2 0x1847 JUMP JUMPDEST PUSH1 0x20 DUP6 ADD MSTORE TIMESTAMP PUSH1 0x40 DUP6 ADD MSTORE PUSH2 0xBF1 CALLDATASIZE DUP11 DUP9 PUSH2 0x1847 JUMP JUMPDEST PUSH1 0x60 DUP6 ADD MSTORE CALLDATASIZE SWAP2 PUSH2 0x1847 JUMP JUMPDEST PUSH1 0x80 DUP3 ADD MSTORE PUSH1 0x1 PUSH1 0xA0 DUP3 ADD MSTORE NUMBER PUSH1 0xC0 DUP3 ADD MSTORE DUP5 PUSH1 0x0 MSTORE PUSH1 0x2 PUSH1 0x20 MSTORE PUSH1 0x40 PUSH1 0x0 KECCAK256 SWAP1 PUSH1 0x1 DUP1 PUSH1 0xA0 SHL SUB DUP2 MLOAD AND PUSH12 0xFFFFFFFFFFFFFFFFFFFFFFFF PUSH1 0xA0 SHL DUP4 SLOAD AND OR DUP3 SSTORE PUSH1 0x20 DUP2 ADD MLOAD DUP1 MLOAD SWAP1 PUSH1 0x1 PUSH1 0x1 PUSH1 0x40 SHL SUB DUP3 GT PUSH2 0x81A JUMPI DUP2 SWAP1 PUSH2 0xC63 PUSH1 0x1 DUP7 ADD SLOAD PUSH2 0x16F5 JUMP JUMPDEST PUSH1 0x1F DUP2 GT PUSH2 0x105E JUMPI JUMPDEST POP PUSH1 0x20 SWAP1 PUSH1 0x1F DUP4 GT PUSH1 0x1 EQ PUSH2 0xFEC JUMPI PUSH1 0x0 SWAP3 PUSH2 0xFE1 JUMPI JUMPDEST POP POP DUP2 PUSH1 0x1 SHL SWAP2 PUSH1 0x0 NOT SWAP1 PUSH1 0x3 SHL SHR NOT AND OR PUSH1 0x1 DUP4 ADD SSTORE JUMPDEST PUSH1 0x40 DUP2 ADD MLOAD PUSH1 0x2 DUP4 ADD SSTORE PUSH1 0x60 DUP2 ADD MLOAD DUP1 MLOAD SWAP1 PUSH1 0x1 PUSH1 0x1 PUSH1 0x40 SHL SUB DUP3 GT PUSH2 0x81A JUMPI DUP2 SWAP1 PUSH2 0xCCA PUSH1 0x3 DUP7 ADD SLOAD PUSH2 0x16F5 JUMP JUMPDEST PUSH1 0x1F DUP2 GT PUSH2 0xF8E JUMPI JUMPDEST POP PUSH1 0x20 SWAP1 PUSH1 0x1F DUP4 GT PUSH1 0x1 EQ PUSH2 0xF1C JUMPI PUSH1 0x0 SWAP3 PUSH2 0xF11 JUMPI JUMPDEST POP POP DUP2 PUSH1 0x1 SHL SWAP2 PUSH1 0x0 NOT SWAP1 PUSH1 0x3 SHL SHR NOT AND OR PUSH1 0x3 DUP4 ADD SSTORE JUMPDEST PUSH1 0x80 DUP2 ADD MLOAD DUP1 MLOAD SWAP1 PUSH1 0x1 PUSH1 0x1 PUSH1 0x40 SHL SUB DUP3 GT PUSH2 0x81A JUMPI PUSH2 0xD25 PUSH1 0x4 DUP6 ADD SLOAD PUSH2 0x16F5 JUMP JUMPDEST PUSH1 0x1F DUP2 GT PUSH2 0xECA JUMPI JUMPDEST POP PUSH1 0x20 SWAP1 PUSH1 0x1F DUP4 GT PUSH1 0x1 EQ PUSH2 0xE55 JUMPI SWAP2 DUP1 PUSH1 0x6 SWAP5 SWAP3 PUSH1 0xC0 SWAP5 PUSH1 0x0 SWAP3 PUSH2 0xE4A JUMPI JUMPDEST POP POP DUP2 PUSH1 0x1 SHL SWAP2 PUSH1 0x0 NOT SWAP1 PUSH1 0x3 SHL SHR NOT AND OR PUSH1 0x4 DUP6 ADD SSTORE JUMPDEST PUSH1 0x5 DUP5 ADD PUSH1 0xA0 DUP3 ADD MLOAD ISZERO ISZERO PUSH1 0xFF DUP1 NOT DUP4 SLOAD AND SWAP2 AND OR SWAP1 SSTORE ADD MLOAD SWAP2 ADD SSTORE CALLER PUSH1 0x0 MSTORE PUSH1 0x3 PUSH1 0x20 MSTORE PUSH1 0x40 PUSH1 0x0 KECCAK256 DUP1 SLOAD SWAP3 PUSH9 0x10000000000000000 DUP5 LT ISZERO PUSH2 0x81A JUMPI PUSH1 0x20 SWAP7 PUSH2 0xE1D PUSH32 0x10B7787D761DC1B3EF001E262E7A5D527CB338A802A27BEA295A3EF8534DD617 SWAP5 PUSH2 0xDE0 DUP8 PUSH2 0xE2A SWAP7 PUSH1 0x1 DUP13 SWAP11 ADD DUP2 SSTORE PUSH2 0x16C7 JUMP JUMPDEST DUP2 SLOAD SWAP1 PUSH1 0x3 SHL SWAP1 DUP10 DUP3 SHL SWAP2 PUSH1 0x0 NOT SWAP1 SHL NOT AND OR SWAP1 SSTORE DUP7 PUSH1 0x40 MLOAD DUP10 DUP4 DUP3 CALLDATACOPY DUP12 DUP2 DUP12 DUP2 ADD PUSH1 0x4 DUP2 MSTORE SUB ADD SWAP1 KECCAK256 SSTORE PUSH1 0x40 MLOAD SWAP8 PUSH1 0x80 DUP10 MSTORE PUSH1 0x80 DUP10 ADD SWAP2 PUSH2 0x1957 JUMP JUMPDEST SWAP2 DUP7 DUP4 SUB DUP10 DUP9 ADD MSTORE PUSH2 0x1957 JUMP JUMPDEST SWAP3 TIMESTAMP PUSH1 0x40 DUP3 ADD MSTORE NUMBER PUSH1 0x60 DUP3 ADD MSTORE DUP1 CALLER SWAP5 SUB SWAP1 LOG3 PUSH1 0x1 PUSH1 0x0 SSTORE PUSH1 0x40 MLOAD SWAP1 DUP2 MSTORE RETURN JUMPDEST ADD MLOAD SWAP1 POP DUP12 DUP1 PUSH2 0xD4E JUMP JUMPDEST SWAP1 PUSH1 0x4 DUP6 ADD PUSH1 0x0 MSTORE PUSH1 0x20 PUSH1 0x0 KECCAK256 SWAP2 PUSH1 0x0 JUMPDEST PUSH1 0x1F NOT DUP6 AND DUP2 LT PUSH2 0xEB2 JUMPI POP SWAP3 PUSH1 0x6 SWAP5 SWAP3 PUSH1 0x1 SWAP3 PUSH1 0xC0 SWAP6 DUP4 PUSH1 0x1F NOT DUP2 AND LT PUSH2 0xE99 JUMPI JUMPDEST POP POP POP DUP2 SHL ADD PUSH1 0x4 DUP6 ADD SSTORE PUSH2 0xD66 JUMP JUMPDEST ADD MLOAD PUSH1 0x0 NOT PUSH1 0xF8 DUP5 PUSH1 0x3 SHL AND SHR NOT AND SWAP1 SSTORE DUP12 DUP1 DUP1 PUSH2 0xE89 JUMP JUMPDEST SWAP2 SWAP3 PUSH1 0x20 PUSH1 0x1 DUP2 SWAP3 DUP7 DUP6 ADD MLOAD DUP2 SSTORE ADD SWAP5 ADD SWAP3 ADD PUSH2 0xE66 JUMP JUMPDEST PUSH1 0x4 DUP6 ADD PUSH1 0x0 MSTORE PUSH1 0x20 PUSH1 0x0 KECCAK256 PUSH1 0x1F DUP5 ADD PUSH1 0x5 SHR DUP2 ADD PUSH1 0x20 DUP6 LT PUSH2 0xF0A JUMPI JUMPDEST PUSH1 0x1F DUP4 ADD PUSH1 0x5 SHR DUP3 ADD DUP2 LT PUSH2 0xEFE JUMPI POP POP PUSH2 0xD2E JUMP JUMPDEST PUSH1 0x0 DUP2 SSTORE PUSH1 0x1 ADD PUSH2 0xEE8 JUMP JUMPDEST POP DUP1 PUSH2 0xEE8 JUMP JUMPDEST ADD MLOAD SWAP1 POP DUP10 DUP1 PUSH2 0xCEA JUMP JUMPDEST SWAP3 POP PUSH1 0x3 DUP6 ADD PUSH1 0x0 MSTORE PUSH1 0x20 PUSH1 0x0 KECCAK256 SWAP1 PUSH1 0x0 SWAP4 JUMPDEST PUSH1 0x1F NOT DUP5 AND DUP6 LT PUSH2 0xF73 JUMPI PUSH1 0x1 SWAP5 POP DUP4 PUSH1 0x1F NOT DUP2 AND LT PUSH2 0xF5A JUMPI JUMPDEST POP POP POP DUP2 SHL ADD PUSH1 0x3 DUP4 ADD SSTORE PUSH2 0xD02 JUMP JUMPDEST ADD MLOAD PUSH1 0x0 NOT PUSH1 0xF8 DUP5 PUSH1 0x3 SHL AND SHR NOT AND SWAP1 SSTORE DUP10 DUP1 DUP1 PUSH2 0xF4A JUMP JUMPDEST DUP2 DUP2 ADD MLOAD DUP4 SSTORE PUSH1 0x20 SWAP5 DUP6 ADD SWAP5 PUSH1 0x1 SWAP1 SWAP4 ADD SWAP3 SWAP1 SWAP2 ADD SWAP1 PUSH2 0xF2F JUMP JUMPDEST SWAP1 SWAP2 POP PUSH1 0x3 DUP6 ADD PUSH1 0x0 MSTORE PUSH1 0x20 PUSH1 0x0 KECCAK256 PUSH1 0x1F DUP5 ADD PUSH1 0x5 SHR DUP2 ADD PUSH1 0x20 DUP6 LT PUSH2 0xFDA JUMPI JUMPDEST SWAP1 DUP5 SWAP4 SWAP3 SWAP2 JUMPDEST PUSH1 0x1F DUP4 ADD PUSH1 0x5 SHR DUP3 ADD DUP2 LT PUSH2 0xFCB JUMPI POP POP PUSH2 0xCD3 JUMP JUMPDEST PUSH1 0x0 DUP2 SSTORE DUP6 SWAP5 POP PUSH1 0x1 ADD PUSH2 0xFB5 JUMP JUMPDEST POP DUP1 PUSH2 0xFAF JUMP JUMPDEST ADD MLOAD SWAP1 POP DUP10 DUP1 PUSH2 0xC83 JUMP JUMPDEST SWAP3 POP PUSH1 0x1 DUP6 ADD PUSH1 0x0 MSTORE PUSH1 0x20 PUSH1 0x0 KECCAK256 SWAP1 PUSH1 0x0 SWAP4 JUMPDEST PUSH1 0x1F NOT DUP5 AND DUP6 LT PUSH2 0x1043 JUMPI PUSH1 0x1 SWAP5 POP DUP4 PUSH1 0x1F NOT DUP2 AND LT PUSH2 0x102A JUMPI JUMPDEST POP POP POP DUP2 SHL ADD PUSH1 0x1 DUP4 ADD SSTORE PUSH2 0xC9B JUMP JUMPDEST ADD MLOAD PUSH1 0x0 NOT PUSH1 0xF8 DUP5 PUSH1 0x3 SHL AND SHR NOT AND SWAP1 SSTORE DUP10 DUP1 DUP1 PUSH2 0x101A JUMP JUMPDEST DUP2 DUP2 ADD MLOAD DUP4 SSTORE PUSH1 0x20 SWAP5 DUP6 ADD SWAP5 PUSH1 0x1 SWAP1 SWAP4 ADD SWAP3 SWAP1 SWAP2 ADD SWAP1 PUSH2 0xFFF JUMP JUMPDEST SWAP1 SWAP2 POP PUSH1 0x1 DUP6 ADD PUSH1 0x0 MSTORE PUSH1 0x20 PUSH1 0x0 KECCAK256 PUSH1 0x1F DUP5 ADD PUSH1 0x5 SHR DUP2 ADD PUSH1 0x20 DUP6 LT PUSH2 0x10AA JUMPI JUMPDEST SWAP1 DUP5 SWAP4 SWAP3 SWAP2 JUMPDEST PUSH1 0x1F DUP4 ADD PUSH1 0x5 SHR DUP3 ADD DUP2 LT PUSH2 0x109B JUMPI POP POP PUSH2 0xC6C JUMP JUMPDEST PUSH1 0x0 DUP2 SSTORE DUP6 SWAP5 POP PUSH1 0x1 ADD PUSH2 0x1085 JUMP JUMPDEST POP DUP1 PUSH2 0x107F JUMP JUMPDEST PUSH1 0x40 MLOAD PUSH3 0x461BCD PUSH1 0xE5 SHL DUP2 MSTORE PUSH1 0x20 PUSH1 0x4 DUP3 ADD MSTORE PUSH1 0x1D PUSH1 0x24 DUP3 ADD MSTORE PUSH32 0x496E73756666696369656E7420726567697374726174696F6E20666565000000 PUSH1 0x44 DUP3 ADD MSTORE PUSH1 0x64 SWAP1 REVERT JUMPDEST PUSH1 0x40 MLOAD PUSH3 0x461BCD PUSH1 0xE5 SHL DUP2 MSTORE PUSH1 0x20 PUSH1 0x4 DUP3 ADD MSTORE PUSH1 0x1A PUSH1 0x24 DUP3 ADD MSTORE PUSH32 0x436F6E74656E7420616C72656164792072656769737465726564000000000000 PUSH1 0x44 DUP3 ADD MSTORE PUSH1 0x64 SWAP1 REVERT JUMPDEST PUSH1 0x40 MLOAD PUSH3 0x461BCD PUSH1 0xE5 SHL DUP2 MSTORE PUSH1 0x20 PUSH1 0x4 DUP3 ADD MSTORE PUSH1 0xE PUSH1 0x24 DUP3 ADD MSTORE PUSH14 0x5469746C6520746F6F206C6F6E67 PUSH1 0x90 SHL PUSH1 0x44 DUP3 ADD MSTORE PUSH1 0x64 SWAP1 REVERT JUMPDEST PUSH1 0x40 MLOAD PUSH3 0x461BCD PUSH1 0xE5 SHL DUP2 MSTORE PUSH1 0x20 PUSH1 0x4 DUP3 ADD MSTORE PUSH1 0xB PUSH1 0x24 DUP3 ADD MSTORE PUSH11 0x456D707479207469746C65 PUSH1 0xA8 SHL PUSH1 0x44 DUP3 ADD MSTORE PUSH1 0x64 SWAP1 REVERT JUMPDEST CALLVALUE PUSH2 0x55 JUMPI PUSH1 0x0 CALLDATASIZE PUSH1 0x3 NOT ADD SLT PUSH2 0x55 JUMPI PUSH2 0x11BD PUSH2 0x187E JUMP JUMPDEST PUSH2 0x11C5 PUSH2 0x1996 JUMP JUMPDEST SELFBALANCE DUP1 ISZERO PUSH2 0x1238 JUMPI PUSH1 0x1 SLOAD PUSH1 0x0 SWAP2 DUP3 SWAP2 DUP3 SWAP2 DUP3 SWAP2 PUSH1 0x8 SHR PUSH1 0x1 PUSH1 0x1 PUSH1 0xA0 SHL SUB AND GAS CALL PUSH2 0x11EE PUSH2 0x1C4E JUMP JUMPDEST POP ISZERO PUSH2 0x11FB JUMPI PUSH1 0x1 PUSH1 0x0 SSTORE STOP JUMPDEST PUSH1 0x40 MLOAD PUSH3 0x461BCD PUSH1 0xE5 SHL DUP2 MSTORE PUSH1 0x20 PUSH1 0x4 DUP3 ADD MSTORE PUSH1 0x15 PUSH1 0x24 DUP3 ADD MSTORE PUSH21 0x119959481DDA5D1A191C985DD85B0819985A5B1959 PUSH1 0x5A SHL PUSH1 0x44 DUP3 ADD MSTORE PUSH1 0x64 SWAP1 REVERT JUMPDEST PUSH1 0x40 MLOAD PUSH3 0x461BCD PUSH1 0xE5 SHL DUP2 MSTORE PUSH1 0x20 PUSH1 0x4 DUP3 ADD MSTORE PUSH1 0x13 PUSH1 0x24 DUP3 ADD MSTORE PUSH19 0x4E6F206665657320746F207769746864726177 PUSH1 0x68 SHL PUSH1 0x44 DUP3 ADD MSTORE PUSH1 0x64 SWAP1 REVERT JUMPDEST CALLVALUE PUSH2 0x55 JUMPI PUSH1 0x0 CALLDATASIZE PUSH1 0x3 NOT ADD SLT PUSH2 0x55 JUMPI PUSH2 0x128C PUSH2 0x187E JUMP JUMPDEST PUSH2 0x1294 PUSH2 0x1C7E JUMP JUMPDEST PUSH1 0xFF NOT PUSH1 0x1 SLOAD AND PUSH1 0x1 SSTORE PUSH32 0x5DB9EE0A495BF2E6FF9C91A7834C1BA4FDD244A5E8AA4E537BD38AEAE4B073AA PUSH1 0x20 PUSH1 0x40 MLOAD CALLER DUP2 MSTORE LOG1 STOP JUMPDEST CALLVALUE PUSH2 0x55 JUMPI PUSH1 0x0 CALLDATASIZE PUSH1 0x3 NOT ADD SLT PUSH2 0x55 JUMPI PUSH1 0x20 PUSH1 0x40 MLOAD PUSH1 0xC8 DUP2 MSTORE RETURN JUMPDEST CALLVALUE PUSH2 0x55 JUMPI PUSH1 0x20 CALLDATASIZE PUSH1 0x3 NOT ADD SLT PUSH2 0x55 JUMPI PUSH1 0x4 CALLDATALOAD PUSH1 0x1 PUSH1 0x1 PUSH1 0x40 SHL SUB DUP2 GT PUSH2 0x55 JUMPI PUSH2 0x133A PUSH2 0x131C PUSH2 0x136A SWAP3 CALLDATASIZE SWAP1 PUSH1 0x4 ADD PUSH2 0x163C JUMP JUMPDEST SWAP1 PUSH2 0x1328 DUP3 ISZERO ISZERO PUSH2 0x18AD JUMP JUMPDEST PUSH2 0x1335 PUSH1 0x64 DUP4 GT ISZERO PUSH2 0x18EE JUMP JUMPDEST PUSH2 0x19B9 JUMP JUMPDEST SWAP3 SWAP5 SWAP2 PUSH1 0x40 MLOAD SWAP6 DUP7 SWAP6 ISZERO ISZERO DUP7 MSTORE PUSH1 0x1 DUP1 PUSH1 0xA0 SHL SUB AND PUSH1 0x20 DUP7 ADD MSTORE PUSH1 0x40 DUP6 ADD MSTORE PUSH1 0xA0 PUSH1 0x60 DUP6 ADD MSTORE PUSH1 0xA0 DUP5 ADD SWAP1 PUSH2 0x168C JUMP JUMPDEST SWAP1 PUSH1 0x80 DUP4 ADD MSTORE SUB SWAP1 RETURN JUMPDEST CALLVALUE PUSH2 0x55 JUMPI PUSH1 0x0 CALLDATASIZE PUSH1 0x3 NOT ADD SLT PUSH2 0x55 JUMPI PUSH1 0x20 PUSH1 0x40 MLOAD PUSH1 0x64 DUP2 MSTORE RETURN JUMPDEST CALLVALUE PUSH2 0x55 JUMPI PUSH1 0x20 DUP1 PUSH1 0x3 NOT CALLDATASIZE ADD SLT PUSH2 0x55 JUMPI PUSH1 0x4 CALLDATALOAD PUSH1 0x1 PUSH1 0x1 PUSH1 0x40 SHL SUB SWAP2 DUP3 DUP3 GT PUSH2 0x55 JUMPI CALLDATASIZE PUSH1 0x23 DUP4 ADD SLT ISZERO PUSH2 0x55 JUMPI DUP2 PUSH1 0x4 ADD CALLDATALOAD SWAP1 DUP4 DUP3 GT PUSH2 0x55 JUMPI PUSH1 0x24 SWAP2 CALLDATASIZE DUP4 DUP3 PUSH1 0x5 SHL DUP7 ADD ADD GT PUSH2 0x55 JUMPI PUSH1 0x32 DUP2 GT PUSH2 0x15DE JUMPI SWAP1 DUP5 SWAP3 PUSH2 0x13F2 DUP4 PUSH2 0x1C9D JUMP JUMPDEST SWAP4 PUSH2 0x1400 PUSH1 0x40 MLOAD SWAP6 DUP7 PUSH2 0x1765 JUMP JUMPDEST DUP4 DUP6 MSTORE PUSH2 0x140C DUP5 PUSH2 0x1C9D JUMP JUMPDEST SWAP4 DUP4 DUP7 ADD SWAP3 PUSH1 0x1F NOT DUP1 SWAP7 ADD CALLDATASIZE DUP6 CALLDATACOPY PUSH2 0x1423 DUP3 PUSH2 0x1C9D JUMP JUMPDEST SWAP8 PUSH2 0x1431 PUSH1 0x40 MLOAD SWAP10 DUP11 PUSH2 0x1765 JUMP JUMPDEST DUP3 DUP10 MSTORE PUSH2 0x143D DUP4 PUSH2 0x1C9D JUMP JUMPDEST DUP10 DUP8 ADD SWAP8 ADD CALLDATASIZE DUP9 CALLDATACOPY CALLDATASIZE DUP2 SWAP1 SUB PUSH1 0x42 NOT ADD SWAP1 PUSH1 0x0 JUMPDEST DUP5 DUP2 LT PUSH2 0x14DF JUMPI POP POP POP POP POP POP PUSH1 0x40 MLOAD SWAP5 DUP6 SWAP5 PUSH1 0x40 DUP7 ADD SWAP1 PUSH1 0x40 DUP8 MSTORE MLOAD DUP1 SWAP2 MSTORE PUSH1 0x60 DUP7 ADD SWAP3 SWAP1 PUSH1 0x0 JUMPDEST DUP2 DUP2 LT PUSH2 0x14C6 JUMPI POP POP POP DUP5 DUP3 SUB DUP6 DUP5 ADD MSTORE MLOAD DUP1 DUP3 MSTORE SWAP1 DUP3 ADD SWAP3 SWAP2 PUSH1 0x0 JUMPDEST DUP3 DUP2 LT PUSH2 0x14A6 JUMPI POP POP POP POP SUB SWAP1 RETURN JUMPDEST DUP4 MLOAD PUSH1 0x1 PUSH1 0x1 PUSH1 0xA0 SHL SUB AND DUP6 MSTORE DUP7 SWAP6 POP SWAP4 DUP2 ADD SWAP4 SWAP3 DUP2 ADD SWAP3 PUSH1 0x1 ADD PUSH2 0x1497 JUMP JUMPDEST DUP3 MLOAD ISZERO ISZERO DUP6 MSTORE DUP9 SWAP8 POP SWAP4 DUP6 ADD SWAP4 SWAP2 DUP6 ADD SWAP2 PUSH1 0x1 ADD PUSH2 0x147A JUMP JUMPDEST DUP4 DUP2 PUSH1 0x5 SWAP13 SWAP9 SWAP11 SWAP12 SWAP13 SHL DUP4 ADD ADD CALLDATALOAD DUP4 DUP2 SLT ISZERO PUSH2 0x55 JUMPI DUP3 ADD SWAP1 DUP5 DUP3 ADD CALLDATALOAD SWAP2 DUP8 DUP4 GT PUSH2 0x55 JUMPI PUSH1 0x44 ADD SWAP2 DUP1 CALLDATASIZE SUB DUP4 SGT PUSH2 0x55 JUMPI DUP10 PUSH2 0x1536 SWAP4 DUP3 PUSH1 0x40 MLOAD SWAP4 DUP5 SWAP3 DUP4 CALLDATACOPY DUP2 ADD PUSH1 0x4 DUP2 MSTORE SUB ADD SWAP1 KECCAK256 SLOAD DUP1 PUSH2 0x1540 JUMPI JUMPDEST POP PUSH2 0x1932 JUMP JUMPDEST SWAP10 SWAP9 SWAP8 SWAP6 SWAP10 PUSH2 0x1451 JUMP JUMPDEST PUSH1 0x0 MSTORE DUP9 PUSH1 0x2 DUP1 DUP3 MSTORE DUP14 PUSH2 0x15CA DUP5 PUSH1 0x40 PUSH1 0x0 KECCAK256 SWAP3 PUSH1 0x40 MLOAD SWAP5 PUSH2 0x1561 DUP7 PUSH2 0x172F JUMP JUMPDEST DUP5 SLOAD PUSH1 0x1 PUSH1 0x1 PUSH1 0xA0 SHL SUB SWAP1 DUP2 AND DUP8 MSTORE SWAP7 PUSH2 0x157D PUSH1 0x1 DUP8 ADD PUSH2 0x1786 JUMP JUMPDEST SWAP1 DUP8 ADD MSTORE DUP5 ADD SLOAD PUSH1 0x40 DUP7 ADD MSTORE PUSH2 0x1595 PUSH1 0x3 DUP6 ADD PUSH2 0x1786 JUMP JUMPDEST PUSH1 0x60 DUP7 ADD MSTORE PUSH2 0x15A6 PUSH1 0x4 DUP6 ADD PUSH2 0x1786 JUMP JUMPDEST PUSH1 0x80 DUP7 ADD MSTORE PUSH1 0x6 PUSH1 0xFF PUSH1 0x5 DUP7 ADD SLOAD AND ISZERO ISZERO SWAP5 DUP6 PUSH1 0xA0 DUP9 ADD MSTORE ADD SLOAD PUSH1 0xC0 DUP7 ADD MSTORE PUSH2 0x1CB4 JUMP JUMPDEST MSTORE MLOAD AND PUSH2 0x15D7 DUP3 DUP11 PUSH2 0x1CB4 JUMP JUMPDEST MSTORE DUP13 PUSH2 0x1530 JUMP JUMPDEST POP PUSH1 0x19 PUSH1 0x64 SWAP3 PUSH1 0x40 MLOAD SWAP3 PUSH3 0x461BCD PUSH1 0xE5 SHL DUP5 MSTORE PUSH1 0x4 DUP5 ADD MSTORE DUP3 ADD MSTORE PUSH32 0x546F6F206D616E792068617368657320746F2076657269667900000000000000 PUSH1 0x44 DUP3 ADD MSTORE REVERT JUMPDEST CALLVALUE PUSH2 0x55 JUMPI PUSH1 0x0 CALLDATASIZE PUSH1 0x3 NOT ADD SLT PUSH2 0x55 JUMPI PUSH1 0x20 SWAP1 PUSH1 0x6 SLOAD DUP2 MSTORE RETURN JUMPDEST SWAP2 DUP2 PUSH1 0x1F DUP5 ADD SLT ISZERO PUSH2 0x55 JUMPI DUP3 CALLDATALOAD SWAP2 PUSH1 0x1 PUSH1 0x1 PUSH1 0x40 SHL SUB DUP4 GT PUSH2 0x55 JUMPI PUSH1 0x20 DUP4 DUP2 DUP7 ADD SWAP6 ADD ADD GT PUSH2 0x55 JUMPI JUMP JUMPDEST PUSH1 0x0 JUMPDEST DUP4 DUP2 LT PUSH2 0x167C JUMPI POP POP PUSH1 0x0 SWAP2 ADD MSTORE JUMP JUMPDEST DUP2 DUP2 ADD MLOAD DUP4 DUP3 ADD MSTORE PUSH1 0x20 ADD PUSH2 0x166C JUMP JUMPDEST SWAP1 PUSH1 0x20 SWAP2 PUSH2 0x16A5 DUP2 MLOAD DUP1 SWAP3 DUP2 DUP6 MSTORE DUP6 DUP1 DUP7 ADD SWAP2 ADD PUSH2 0x1669 JUMP JUMPDEST PUSH1 0x1F ADD PUSH1 0x1F NOT AND ADD ADD SWAP1 JUMP JUMPDEST PUSH1 0x4 CALLDATALOAD SWAP1 PUSH1 0x1 PUSH1 0x1 PUSH1 0xA0 SHL SUB DUP3 AND DUP3 SUB PUSH2 0x55 JUMPI JUMP JUMPDEST DUP1 SLOAD DUP3 LT ISZERO PUSH2 0x16DF JUMPI PUSH1 0x0 MSTORE PUSH1 0x20 PUSH1 0x0 KECCAK256 ADD SWAP1 PUSH1 0x0 SWAP1 JUMP JUMPDEST PUSH4 0x4E487B71 PUSH1 0xE0 SHL PUSH1 0x0 MSTORE PUSH1 0x32 PUSH1 0x4 MSTORE PUSH1 0x24 PUSH1 0x0 REVERT JUMPDEST SWAP1 PUSH1 0x1 DUP3 DUP2 SHR SWAP3 AND DUP1 ISZERO PUSH2 0x1725 JUMPI JUMPDEST PUSH1 0x20 DUP4 LT EQ PUSH2 0x170F JUMPI JUMP JUMPDEST PUSH4 0x4E487B71 PUSH1 0xE0 SHL PUSH1 0x0 MSTORE PUSH1 0x22 PUSH1 0x4 MSTORE PUSH1 0x24 PUSH1 0x0 REVERT JUMPDEST SWAP2 PUSH1 0x7F AND SWAP2 PUSH2 0x1704 JUMP JUMPDEST PUSH1 0xE0 DUP2 ADD SWAP1 DUP2 LT PUSH1 0x1 PUSH1 0x1 PUSH1 0x40 SHL SUB DUP3 GT OR PUSH2 0x81A JUMPI PUSH1 0x40 MSTORE JUMP JUMPDEST PUSH1 0x20 DUP2 ADD SWAP1 DUP2 LT PUSH1 0x1 PUSH1 0x1 PUSH1 0x40 SHL SUB DUP3 GT OR PUSH2 0x81A JUMPI PUSH1 0x40 MSTORE JUMP JUMPDEST SWAP1 PUSH1 0x1F DUP1 NOT SWAP2 ADD AND DUP2 ADD SWAP1 DUP2 LT PUSH1 0x1 PUSH1 0x1 PUSH1 0x40 SHL SUB DUP3 GT OR PUSH2 0x81A JUMPI PUSH1 0x40 MSTORE JUMP JUMPDEST SWAP1 PUSH1 0x40 MLOAD SWAP2 DUP3 PUSH1 0x0 DUP3 SLOAD SWAP3 PUSH2 0x179A DUP5 PUSH2 0x16F5 JUMP JUMPDEST SWAP1 DUP2 DUP5 MSTORE PUSH1 0x1 SWAP5 DUP6 DUP2 AND SWAP1 DUP2 PUSH1 0x0 EQ PUSH2 0x1809 JUMPI POP PUSH1 0x1 EQ PUSH2 0x17C6 JUMPI JUMPDEST POP POP PUSH2 0x17C4 SWAP3 POP SUB DUP4 PUSH2 0x1765 JUMP JUMPDEST JUMP JUMPDEST SWAP1 SWAP4 SWAP2 POP PUSH1 0x0 MSTORE PUSH1 0x20 SWAP1 DUP2 PUSH1 0x0 KECCAK256 SWAP4 PUSH1 0x0 SWAP2 JUMPDEST DUP2 DUP4 LT PUSH2 0x17F1 JUMPI POP POP PUSH2 0x17C4 SWAP4 POP DUP3 ADD ADD CODESIZE DUP1 PUSH2 0x17B6 JUMP JUMPDEST DUP6 SLOAD DUP9 DUP5 ADD DUP6 ADD MSTORE SWAP5 DUP6 ADD SWAP5 DUP8 SWAP5 POP SWAP2 DUP4 ADD SWAP2 PUSH2 0x17D9 JUMP JUMPDEST SWAP2 POP POP PUSH2 0x17C4 SWAP5 POP PUSH1 0x20 SWAP3 POP PUSH1 0xFF NOT AND DUP3 DUP5 ADD MSTORE ISZERO ISZERO PUSH1 0x5 SHL DUP3 ADD ADD CODESIZE DUP1 PUSH2 0x17B6 JUMP JUMPDEST PUSH1 0x1 PUSH1 0x1 PUSH1 0x40 SHL SUB DUP2 GT PUSH2 0x81A JUMPI PUSH1 0x1F ADD PUSH1 0x1F NOT AND PUSH1 0x20 ADD SWAP1 JUMP JUMPDEST SWAP3 SWAP2 SWAP3 PUSH2 0x1853 DUP3 PUSH2 0x182C JUMP JUMPDEST SWAP2 PUSH2 0x1861 PUSH1 0x40 MLOAD SWAP4 DUP5 PUSH2 0x1765 JUMP JUMPDEST DUP3 SWAP5 DUP2 DUP5 MSTORE DUP2 DUP4 ADD GT PUSH2 0x55 JUMPI DUP3 DUP2 PUSH1 0x20 SWAP4 DUP5 PUSH1 0x0 SWAP7 ADD CALLDATACOPY ADD ADD MSTORE JUMP JUMPDEST PUSH1 0x1 SLOAD PUSH1 0x8 SHR PUSH1 0x1 PUSH1 0x1 PUSH1 0xA0 SHL SUB AND CALLER SUB PUSH2 0x1895 JUMPI JUMP JUMPDEST PUSH1 0x40 MLOAD PUSH4 0x118CDAA7 PUSH1 0xE0 SHL DUP2 MSTORE CALLER PUSH1 0x4 DUP3 ADD MSTORE PUSH1 0x24 SWAP1 REVERT JUMPDEST ISZERO PUSH2 0x18B4 JUMPI JUMP JUMPDEST PUSH1 0x40 MLOAD PUSH3 0x461BCD PUSH1 0xE5 SHL DUP2 MSTORE PUSH1 0x20 PUSH1 0x4 DUP3 ADD MSTORE PUSH1 0x12 PUSH1 0x24 DUP3 ADD MSTORE PUSH18 0x8ADAE0E8F240C6DEDCE8CADCE840D0C2E6D PUSH1 0x73 SHL PUSH1 0x44 DUP3 ADD MSTORE PUSH1 0x64 SWAP1 REVERT JUMPDEST ISZERO PUSH2 0x18F5 JUMPI JUMP JUMPDEST PUSH1 0x40 MLOAD PUSH3 0x461BCD PUSH1 0xE5 SHL DUP2 MSTORE PUSH1 0x20 PUSH1 0x4 DUP3 ADD MSTORE PUSH1 0x15 PUSH1 0x24 DUP3 ADD MSTORE PUSH21 0x436F6E74656E74206861736820746F6F206C6F6E67 PUSH1 0x58 SHL PUSH1 0x44 DUP3 ADD MSTORE PUSH1 0x64 SWAP1 REVERT JUMPDEST PUSH1 0x0 NOT DUP2 EQ PUSH2 0x1941 JUMPI PUSH1 0x1 ADD SWAP1 JUMP JUMPDEST PUSH4 0x4E487B71 PUSH1 0xE0 SHL PUSH1 0x0 MSTORE PUSH1 0x11 PUSH1 0x4 MSTORE PUSH1 0x24 PUSH1 0x0 REVERT JUMPDEST SWAP1 DUP1 PUSH1 0x20 SWAP4 SWAP3 DUP2 DUP5 MSTORE DUP5 DUP5 ADD CALLDATACOPY PUSH1 0x0 DUP3 DUP3 ADD DUP5 ADD MSTORE PUSH1 0x1F ADD PUSH1 0x1F NOT AND ADD ADD SWAP1 JUMP JUMPDEST PUSH1 0xFF PUSH1 0x1 SLOAD AND PUSH2 0x1984 JUMPI JUMP JUMPDEST PUSH1 0x40 MLOAD PUSH4 0xD93C0665 PUSH1 0xE0 SHL DUP2 MSTORE PUSH1 0x4 SWAP1 REVERT JUMPDEST PUSH1 0x2 PUSH1 0x0 SLOAD EQ PUSH2 0x19A7 JUMPI PUSH1 0x2 PUSH1 0x0 SSTORE JUMP JUMPDEST PUSH1 0x40 MLOAD PUSH4 0x3EE5AEB5 PUSH1 0xE0 SHL DUP2 MSTORE PUSH1 0x4 SWAP1 REVERT JUMPDEST SWAP1 PUSH1 0x20 PUSH1 0x40 SWAP3 DUP3 DUP5 MLOAD SWAP4 DUP5 SWAP3 DUP4 CALLDATACOPY DUP2 ADD PUSH1 0x4 DUP2 MSTORE SUB ADD SWAP1 KECCAK256 SLOAD SWAP2 DUP3 ISZERO PUSH2 0x1A97 JUMPI PUSH1 0x0 SWAP3 DUP4 MSTORE PUSH1 0x2 PUSH1 0x20 MSTORE DUP2 DUP4 KECCAK256 SWAP1 DUP3 MLOAD PUSH2 0x19F2 DUP2 PUSH2 0x172F JUMP JUMPDEST DUP3 SLOAD PUSH1 0x1 PUSH1 0x1 PUSH1 0xA0 SHL SUB SWAP1 DUP2 AND DUP3 MSTORE SWAP1 PUSH2 0x1A0E PUSH1 0x1 DUP6 ADD PUSH2 0x1786 JUMP JUMPDEST PUSH1 0x20 DUP3 ADD MSTORE PUSH1 0x2 DUP5 ADD SLOAD SWAP6 DUP6 DUP3 ADD SWAP7 DUP8 MSTORE PUSH2 0x1A2B PUSH1 0x3 DUP7 ADD PUSH2 0x1786 JUMP JUMPDEST SWAP6 PUSH1 0x60 DUP4 ADD SWAP7 DUP8 MSTORE PUSH2 0x1A3F PUSH1 0x4 DUP8 ADD PUSH2 0x1786 JUMP JUMPDEST PUSH1 0x80 DUP5 ADD MSTORE PUSH1 0x6 PUSH1 0xFF PUSH1 0x5 DUP9 ADD SLOAD AND ISZERO SWAP7 DUP8 ISZERO PUSH1 0xA0 DUP7 ADD MSTORE ADD SLOAD SWAP6 PUSH1 0xC0 DUP5 ADD SWAP7 DUP8 MSTORE PUSH2 0x1A79 JUMPI POP POP MLOAD AND SWAP4 MLOAD SWAP3 MLOAD SWAP2 MLOAD SWAP1 PUSH1 0x1 SWAP5 SWAP4 SWAP3 SWAP2 SWAP1 JUMP JUMPDEST SWAP5 POP SWAP6 POP POP POP SWAP2 POP DUP3 DUP1 SWAP3 DUP2 SWAP3 MLOAD PUSH2 0x1A90 DUP2 PUSH2 0x174A JUMP JUMPDEST DUP3 DUP2 MSTORE SWAP2 SWAP1 JUMP JUMPDEST SWAP1 MLOAD PUSH1 0x0 SWAP3 POP DUP3 SWAP2 DUP3 SWAP2 PUSH2 0x1AAA DUP2 PUSH2 0x174A JUMP JUMPDEST PUSH1 0x0 DUP2 MSTORE SWAP1 PUSH1 0x0 SWAP1 JUMP JUMPDEST SWAP2 SWAP1 PUSH1 0x40 SWAP3 DUP4 MLOAD DUP3 DUP3 DUP3 CALLDATACOPY PUSH1 0x20 DUP2 DUP5 DUP2 ADD PUSH1 0x4 DUP2 MSTORE SUB ADD SWAP1 KECCAK256 SLOAD SWAP2 DUP3 ISZERO PUSH2 0x1BC1 JUMPI DUP3 PUSH1 0x0 MSTORE PUSH1 0x2 PUSH1 0x20 MSTORE DUP5 PUSH1 0x0 KECCAK256 SWAP5 DUP1 MLOAD PUSH2 0x1AEE DUP2 PUSH2 0x172F JUMP JUMPDEST DUP7 SLOAD PUSH1 0x1 PUSH1 0x1 PUSH1 0xA0 SHL SUB SWAP1 DUP2 AND DUP3 MSTORE SWAP1 DUP2 SWAP1 PUSH2 0x1B0C PUSH1 0x1 DUP11 ADD PUSH2 0x1786 JUMP JUMPDEST PUSH1 0x20 DUP3 ADD MSTORE PUSH1 0x2 DUP10 ADD SLOAD DUP5 DUP3 ADD MSTORE PUSH2 0x1B26 PUSH1 0x3 DUP11 ADD PUSH2 0x1786 JUMP JUMPDEST PUSH1 0x60 DUP3 ADD MSTORE PUSH2 0x1B37 PUSH1 0x4 DUP11 ADD PUSH2 0x1786 JUMP JUMPDEST PUSH1 0x80 DUP3 ADD MSTORE PUSH1 0x6 PUSH1 0xFF PUSH1 0x5 DUP12 ADD SLOAD AND ISZERO ISZERO SWAP10 DUP11 PUSH1 0xA0 DUP5 ADD MSTORE ADD SLOAD PUSH1 0xC0 DUP3 ADD MSTORE MLOAD AND SWAP6 AND SWAP6 DUP7 DUP7 EQ ISZERO SWAP1 DUP2 PUSH2 0x1BB9 JUMPI JUMPDEST POP PUSH2 0x1B76 JUMPI POP POP POP POP POP POP PUSH1 0x0 SWAP1 JUMP JUMPDEST PUSH2 0x1BAB PUSH32 0xDB9DD5F58C27D38BF6CEEA5CEF7E066B4DECA5C5E56996096703493294F09099 SWAP4 DUP3 MLOAD SWAP4 DUP4 DUP6 SWAP5 DUP6 MSTORE DUP5 ADD SWAP2 PUSH2 0x1957 JUMP JUMPDEST TIMESTAMP PUSH1 0x20 DUP4 ADD MSTORE SUB SWAP1 LOG4 PUSH1 0x1 SWAP1 JUMP JUMPDEST SWAP1 POP CODESIZE PUSH2 0x1B66 JUMP JUMPDEST POP POP POP POP POP PUSH1 0x0 SWAP1 JUMP JUMPDEST ISZERO PUSH2 0x1BD2 JUMPI JUMP JUMPDEST PUSH1 0x40 MLOAD PUSH3 0x461BCD PUSH1 0xE5 SHL DUP2 MSTORE PUSH1 0x20 PUSH1 0x4 DUP3 ADD MSTORE PUSH1 0x15 PUSH1 0x24 DUP3 ADD MSTORE PUSH21 0x149958DBDC9908191BD95CC81B9BDD08195E1A5CDD PUSH1 0x5A SHL PUSH1 0x44 DUP3 ADD MSTORE PUSH1 0x64 SWAP1 REVERT JUMPDEST ISZERO PUSH2 0x1C16 JUMPI JUMP JUMPDEST PUSH1 0x40 MLOAD PUSH3 0x461BCD PUSH1 0xE5 SHL DUP2 MSTORE PUSH1 0x20 PUSH1 0x4 DUP3 ADD MSTORE PUSH1 0x10 PUSH1 0x24 DUP3 ADD MSTORE PUSH16 0x2737BA103932B1B7B9321037BBB732B9 PUSH1 0x81 SHL PUSH1 0x44 DUP3 ADD MSTORE PUSH1 0x64 SWAP1 REVERT JUMPDEST RETURNDATASIZE ISZERO PUSH2 0x1C79 JUMPI RETURNDATASIZE SWAP1 PUSH2 0x1C5F DUP3 PUSH2 0x182C JUMP JUMPDEST SWAP2 PUSH2 0x1C6D PUSH1 0x40 MLOAD SWAP4 DUP5 PUSH2 0x1765 JUMP JUMPDEST DUP3 MSTORE RETURNDATASIZE PUSH1 0x0 PUSH1 0x20 DUP5 ADD RETURNDATACOPY JUMP JUMPDEST PUSH1 0x60 SWAP1 JUMP JUMPDEST PUSH1 0xFF PUSH1 0x1 SLOAD AND ISZERO PUSH2 0x1C8B JUMPI JUMP JUMPDEST PUSH1 0x40 MLOAD PUSH4 0x8DFC202B PUSH1 0xE0 SHL DUP2 MSTORE PUSH1 0x4 SWAP1 REVERT JUMPDEST PUSH1 0x1 PUSH1 0x1 PUSH1 0x40 SHL SUB DUP2 GT PUSH2 0x81A JUMPI PUSH1 0x5 SHL PUSH1 0x20 ADD SWAP1 JUMP JUMPDEST DUP1 MLOAD DUP3 LT ISZERO PUSH2 0x16DF JUMPI PUSH1 0x20 SWAP2 PUSH1 0x5 SHL ADD ADD SWAP1 JUMP INVALID LOG2 PUSH5 0x6970667358 0x22 SLT KECCAK256 SSTORE 0xBC 0xA9 0xE0 0x2E 0xF SELFDESTRUCT 0xC2 DUP14 0xE3 SWAP13 GASPRICE 0x4C DUP15 PUSH27 0x24E40E145A17954C93658295F4B7BB5E3164736F6C634300081400 CALLER "},"methodIdentifiers":{"MAX_HASH_LENGTH()":"19b1f5fc","MAX_TITLE_LENGTH()":"2ef9a160","authorContent(address,uint256)":"7906dcb2","bulkVerifyContent(string[])":"18da6515","checkForPlagiarism(string,address)":"64e7b189","contentRecords(bytes32)":"b6c57e9e","deactivateContent(bytes32)":"7a0c1f4f","emergencyWithdraw()":"db2e21bc","generateContentHash(string)":"994470d3","getAuthorContent(address)":"d241eeee","getContentRecord(bytes32)":"b97e964e","getContractStats()":"dfe6b5d6","hashToRecordId(string)":"db53db8f","owner()":"8da5cb5b","pause()":"8456cb59","paused()":"5c975abb","reactivateContent(bytes32)":"a3ae647a","recordCount()":"900407bc","registerContent(string,string,string)":"51b07332","registrationFee()":"14c44e09","renounceOwnership()":"715018a6","transferOwnership(address)":"f2fde38b","unpause()":"3f4ba83a","updateRegistrationFee(uint256)":"af582c6b","verifyContentOwnership(string)":"261f84d2","withdrawFees()":"476343ee"}}}}}