{"contracts/SimpleFaucet.sol":{"SimpleFaucet":{"abi":[{"inputs":[],"stateMutability":"nonpayable","type":"constructor"},{"inputs":[{"internalType":"address","name":"owner","type":"address"}],"name":"OwnableInvalidOwner","type":"error"},{"inputs":[{"internalType":"address","name":"account","type":"address"}],"name":"OwnableUnauthorizedAccount","type":"error"},{"anonymous":false,"inputs":[{"indexed":true,"internalType":"address","name":"user","type":"address"},{"indexed":false,"internalType":"uint256","name":"amount","type":"uint256"}],"name":"Claimed","type":"event"},{"anonymous":false,"inputs":[{"indexed":true,"internalType":"address","name":"previousOwner","type":"address"},{"indexed":true,"internalType":"address","name":"newOwner","type":"address"}],"name":"OwnershipTransferred","type":"event"},{"inputs":[],"name":"claim","outputs":[],"stateMutability":"nonpayable","type":"function"},{"inputs":[],"name":"cooldown","outputs":[{"internalType":"uint256","name":"","type":"uint256"}],"stateMutability":"view","type":"function"},{"inputs":[],"name":"deposit","outputs":[],"stateMutability":"payable","type":"function"},{"inputs":[],"name":"dispenseAmount","outputs":[{"internalType":"uint256","name":"","type":"uint256"}],"stateMutability":"view","type":"function"},{"inputs":[{"internalType":"address","name":"","type":"address"}],"name":"lastClaim","outputs":[{"internalType":"uint256","name":"","type":"uint256"}],"stateMutability":"view","type":"function"},{"inputs":[],"name":"owner","outputs":[{"internalType":"address","name":"","type":"address"}],"stateMutability":"view","type":"function"},{"inputs":[],"name":"renounceOwnership","outputs":[],"stateMutability":"nonpayable","type":"function"},{"inputs":[{"internalType":"uint256","name":"time","type":"uint256"}],"name":"setCooldown","outputs":[],"stateMutability":"nonpayable","type":"function"},{"inputs":[{"internalType":"uint256","name":"amount","type":"uint256"}],"name":"setDispenseAmount","outputs":[],"stateMutability":"nonpayable","type":"function"},{"inputs":[{"internalType":"address","name":"newOwner","type":"address"}],"name":"transferOwnership","outputs":[],"stateMutability":"nonpayable","type":"function"},{"inputs":[{"internalType":"uint256","name":"amount","type":"uint256"}],"name":"withdraw","outputs":[],"stateMutability":"nonpayable","type":"function"}],"evm":{"bytecode":{"linkReferences":{},"object":"6080806040523461008c5733156100765760008054336001600160a01b03198216811783556040519290916001600160a01b0316907f8be0079c531659141344cd1fd0a4f28419497f9722a3daafe3b4186f6b6457e09080a367016345785d8a0000600155610e1060025561045c90816100928239f35b631e4fbdf760e01b815260006004820152602490fd5b600080fdfe60406080815260048036101561001457600080fd5b600091823560e01c80630dc80322146103d8578381632e1a7d4d14610391575080634e71d92d146102655780634fc3f41a146102435780635c16e15e14610209578063715018a6146101af578063787a08a6146101905780638da5cb5b14610168578063a9c8d60414610145578063d0e30db01461012b5763f2fde38b1461009b57600080fd5b34610127576020366003190112610127576001600160a01b03823581811693919290849003610123576100cc6103fa565b831561010d57505082546001600160a01b0319811683178455167f8be0079c531659141344cd1fd0a4f28419497f9722a3daafe3b4186f6b6457e08380a380f35b51631e4fbdf760e01b8152908101849052602490fd5b8480fd5b8280fd5b83806003193601126101425761013f6103fa565b80f35b80fd5b8382346101645781600319360112610164576020906001549051908152f35b5080fd5b838234610164578160031936011261016457905490516001600160a01b039091168152602090f35b8382346101645781600319360112610164576020906002549051908152f35b83346101425780600319360112610142576101c86103fa565b80546001600160a01b03198116825581906001600160a01b03167f8be0079c531659141344cd1fd0a4f28419497f9722a3daafe3b4186f6b6457e08280a380f35b50903461012757602036600319011261012757356001600160a01b0381169081900361012757828291602094526003845220549051908152f35b5050346101645760203660031901126101645761025e6103fa565b3560025580f35b509034610127578260031936011261012757338352600360205281832054600254810180911161037e574210610349574760015411610307575033825260036020524281832055818080806001548181156102fe575b3390f1156102f45760015490519081527fd8138f8a3f377c5259ca548e70e4c2de94f129f5a11036a15b69513cba2b426a60203392a280f35b51903d90823e3d90fd5b506108fc6102bb565b6020606492519162461bcd60e51b8352820152601b60248201527f496e73756666696369656e74206661756365742062616c616e636500000000006044820152fd5b6020606492519162461bcd60e51b8352820152601060248201526f10dbdbdb191bdddb881b9bdd081b595d60821b6044820152fd5b634e487b7160e01b845260118252602484fd5b828185346101645760203660031901126101645781808092356103b26103fa565b81546001600160a01b03168282156103cf575bf1156102f4575080f35b506108fc6103c5565b505034610164576020366003190112610164576103f36103fa565b3560015580f35b6000546001600160a01b0316330361040e57565b60405163118cdaa760e01b8152336004820152602490fdfea2646970667358221220c93bc1dda51d93e8dc6ca71e07fc8acc6d64fcfea1884e5b42dfc742619f04e664736f6c63430008140033","opcodes":"PUSH1 0x80 DUP1 PUSH1 0x40 MSTORE CALLVALUE PUSH2 0x8C JUMPI CALLER ISZERO PUSH2 0x76 JUMPI PUSH1 0x0 DUP1 SLOAD CALLER PUSH1 0x1 PUSH1 0x1 PUSH1 0xA0 SHL SUB NOT DUP3 AND DUP2 OR DUP4 SSTORE PUSH1 0x40 MLOAD SWAP3 SWAP1 SWAP2 PUSH1 0x1 PUSH1 0x1 PUSH1 0xA0 SHL SUB AND SWAP1 PUSH32 0x8BE0079C531659141344CD1FD0A4F28419497F9722A3DAAFE3B4186F6B6457E0 SWAP1 DUP1 LOG3 PUSH8 0x16345785D8A0000 PUSH1 0x1 SSTORE PUSH2 0xE10 PUSH1 0x2 SSTORE PUSH2 0x45C SWAP1 DUP2 PUSH2 0x92 DUP3 CODECOPY RETURN JUMPDEST PUSH4 0x1E4FBDF7 PUSH1 0xE0 SHL DUP2 MSTORE PUSH1 0x0 PUSH1 0x4 DUP3 ADD MSTORE PUSH1 0x24 SWAP1 REVERT JUMPDEST PUSH1 0x0 DUP1 REVERT INVALID PUSH1 0x40 PUSH1 0x80 DUP2 MSTORE PUSH1 0x4 DUP1 CALLDATASIZE LT ISZERO PUSH2 0x14 JUMPI PUSH1 0x0 DUP1 REVERT JUMPDEST PUSH1 0x0 SWAP2 DUP3 CALLDATALOAD PUSH1 0xE0 SHR DUP1 PUSH4 0xDC80322 EQ PUSH2 0x3D8 JUMPI DUP4 DUP2 PUSH4 0x2E1A7D4D EQ PUSH2 0x391 JUMPI POP DUP1 PUSH4 0x4E71D92D EQ PUSH2 0x265 JUMPI DUP1 PUSH4 0x4FC3F41A EQ PUSH2 0x243 JUMPI DUP1 PUSH4 0x5C16E15E EQ PUSH2 0x209 JUMPI DUP1 PUSH4 0x715018A6 EQ PUSH2 0x1AF JUMPI DUP1 PUSH4 0x787A08A6 EQ PUSH2 0x190 JUMPI DUP1 PUSH4 0x8DA5CB5B EQ PUSH2 0x168 JUMPI DUP1 PUSH4 0xA9C8D604 EQ PUSH2 0x145 JUMPI DUP1 PUSH4 0xD0E30DB0 EQ PUSH2 0x12B JUMPI PUSH4 0xF2FDE38B EQ PUSH2 0x9B JUMPI PUSH1 0x0 DUP1 REVERT JUMPDEST CALLVALUE PUSH2 0x127 JUMPI PUSH1 0x20 CALLDATASIZE PUSH1 0x3 NOT ADD SLT PUSH2 0x127 JUMPI PUSH1 0x1 PUSH1 0x1 PUSH1 0xA0 SHL SUB DUP3 CALLDATALOAD DUP2 DUP2 AND SWAP4 SWAP2 SWAP3 SWAP1 DUP5 SWAP1 SUB PUSH2 0x123 JUMPI PUSH2 0xCC PUSH2 0x3FA JUMP JUMPDEST DUP4 ISZERO PUSH2 0x10D JUMPI POP POP DUP3 SLOAD PUSH1 0x1 PUSH1 0x1 PUSH1 0xA0 SHL SUB NOT DUP2 AND DUP4 OR DUP5 SSTORE AND PUSH32 0x8BE0079C531659141344CD1FD0A4F28419497F9722A3DAAFE3B4186F6B6457E0 DUP4 DUP1 LOG3 DUP1 RETURN JUMPDEST MLOAD PUSH4 0x1E4FBDF7 PUSH1 0xE0 SHL DUP2 MSTORE SWAP1 DUP2 ADD DUP5 SWAP1 MSTORE PUSH1 0x24 SWAP1 REVERT JUMPDEST DUP5 DUP1 REVERT JUMPDEST DUP3 DUP1 REVERT JUMPDEST DUP4 DUP1 PUSH1 0x3 NOT CALLDATASIZE ADD SLT PUSH2 0x142 JUMPI PUSH2 0x13F PUSH2 0x3FA JUMP JUMPDEST DUP1 RETURN JUMPDEST DUP1 REVERT JUMPDEST DUP4 DUP3 CALLVALUE PUSH2 0x164 JUMPI DUP2 PUSH1 0x3 NOT CALLDATASIZE ADD SLT PUSH2 0x164 JUMPI PUSH1 0x20 SWAP1 PUSH1 0x1 SLOAD SWAP1 MLOAD SWAP1 DUP2 MSTORE RETURN JUMPDEST POP DUP1 REVERT JUMPDEST DUP4 DUP3 CALLVALUE PUSH2 0x164 JUMPI DUP2 PUSH1 0x3 NOT CALLDATASIZE ADD SLT PUSH2 0x164 JUMPI SWAP1 SLOAD SWAP1 MLOAD PUSH1 0x1 PUSH1 0x1 PUSH1 0xA0 SHL SUB SWAP1 SWAP2 AND DUP2 MSTORE PUSH1 0x20 SWAP1 RETURN JUMPDEST DUP4 DUP3 CALLVALUE PUSH2 0x164 JUMPI DUP2 PUSH1 0x3 NOT CALLDATASIZE ADD SLT PUSH2 0x164 JUMPI PUSH1 0x20 SWAP1 PUSH1 0x2 SLOAD SWAP1 MLOAD SWAP1 DUP2 MSTORE RETURN JUMPDEST DUP4 CALLVALUE PUSH2 0x142 JUMPI DUP1 PUSH1 0x3 NOT CALLDATASIZE ADD SLT PUSH2 0x142 JUMPI PUSH2 0x1C8 PUSH2 0x3FA JUMP JUMPDEST DUP1 SLOAD PUSH1 0x1 PUSH1 0x1 PUSH1 0xA0 SHL SUB NOT DUP2 AND DUP3 SSTORE DUP2 SWAP1 PUSH1 0x1 PUSH1 0x1 PUSH1 0xA0 SHL SUB AND PUSH32 0x8BE0079C531659141344CD1FD0A4F28419497F9722A3DAAFE3B4186F6B6457E0 DUP3 DUP1 LOG3 DUP1 RETURN JUMPDEST POP SWAP1 CALLVALUE PUSH2 0x127 JUMPI PUSH1 0x20 CALLDATASIZE PUSH1 0x3 NOT ADD SLT PUSH2 0x127 JUMPI CALLDATALOAD PUSH1 0x1 PUSH1 0x1 PUSH1 0xA0 SHL SUB DUP2 AND SWAP1 DUP2 SWAP1 SUB PUSH2 0x127 JUMPI DUP3 DUP3 SWAP2 PUSH1 0x20 SWAP5 MSTORE PUSH1 0x3 DUP5 MSTORE KECCAK256 SLOAD SWAP1 MLOAD SWAP1 DUP2 MSTORE RETURN JUMPDEST POP POP CALLVALUE PUSH2 0x164 JUMPI PUSH1 0x20 CALLDATASIZE PUSH1 0x3 NOT ADD SLT PUSH2 0x164 JUMPI PUSH2 0x25E PUSH2 0x3FA JUMP JUMPDEST CALLDATALOAD PUSH1 0x2 SSTORE DUP1 RETURN JUMPDEST POP SWAP1 CALLVALUE PUSH2 0x127 JUMPI DUP3 PUSH1 0x3 NOT CALLDATASIZE ADD SLT PUSH2 0x127 JUMPI CALLER DUP4 MSTORE PUSH1 0x3 PUSH1 0x20 MSTORE DUP2 DUP4 KECCAK256 SLOAD PUSH1 0x2 SLOAD DUP2 ADD DUP1 SWAP2 GT PUSH2 0x37E JUMPI TIMESTAMP LT PUSH2 0x349 JUMPI SELFBALANCE PUSH1 0x1 SLOAD GT PUSH2 0x307 JUMPI POP CALLER DUP3 MSTORE PUSH1 0x3 PUSH1 0x20 MSTORE TIMESTAMP DUP2 DUP4 KECCAK256 SSTORE DUP2 DUP1 DUP1 DUP1 PUSH1 0x1 SLOAD DUP2 DUP2 ISZERO PUSH2 0x2FE JUMPI JUMPDEST CALLER SWAP1 CALL ISZERO PUSH2 0x2F4 JUMPI PUSH1 0x1 SLOAD SWAP1 MLOAD SWAP1 DUP2 MSTORE PUSH32 0xD8138F8A3F377C5259CA548E70E4C2DE94F129F5A11036A15B69513CBA2B426A PUSH1 0x20 CALLER SWAP3 LOG2 DUP1 RETURN JUMPDEST MLOAD SWAP1 RETURNDATASIZE SWAP1 DUP3 RETURNDATACOPY RETURNDATASIZE SWAP1 REVERT JUMPDEST POP PUSH2 0x8FC PUSH2 0x2BB JUMP JUMPDEST PUSH1 0x20 PUSH1 0x64 SWAP3 MLOAD SWAP2 PUSH3 0x461BCD PUSH1 0xE5 SHL DUP4 MSTORE DUP3 ADD MSTORE PUSH1 0x1B PUSH1 0x24 DUP3 ADD MSTORE PUSH32 0x496E73756666696369656E74206661756365742062616C616E63650000000000 PUSH1 0x44 DUP3 ADD MSTORE REVERT JUMPDEST PUSH1 0x20 PUSH1 0x64 SWAP3 MLOAD SWAP2 PUSH3 0x461BCD PUSH1 0xE5 SHL DUP4 MSTORE DUP3 ADD MSTORE PUSH1 0x10 PUSH1 0x24 DUP3 ADD MSTORE PUSH16 0x10DBDBDB191BDDDB881B9BDD081B595D PUSH1 0x82 SHL PUSH1 0x44 DUP3 ADD MSTORE REVERT JUMPDEST PUSH4 0x4E487B71 PUSH1 0xE0 SHL DUP5 MSTORE PUSH1 0x11 DUP3 MSTORE PUSH1 0x24 DUP5 REVERT JUMPDEST DUP3 DUP2 DUP6 CALLVALUE PUSH2 0x164 JUMPI PUSH1 0x20 CALLDATASIZE PUSH1 0x3 NOT ADD SLT PUSH2 0x164 JUMPI DUP2 DUP1 DUP1 SWAP3 CALLDATALOAD PUSH2 0x3B2 PUSH2 0x3FA JUMP JUMPDEST DUP2 SLOAD PUSH1 0x1 PUSH1 0x1 PUSH1 0xA0 SHL SUB AND DUP3 DUP3 ISZERO PUSH2 0x3CF JUMPI JUMPDEST CALL ISZERO PUSH2 0x2F4 JUMPI POP DUP1 RETURN JUMPDEST POP PUSH2 0x8FC PUSH2 0x3C5 JUMP JUMPDEST POP POP CALLVALUE PUSH2 0x164 JUMPI PUSH1 0x20 CALLDATASIZE PUSH1 0x3 NOT ADD SLT PUSH2 0x164 JUMPI PUSH2 0x3F3 PUSH2 0x3FA JUMP JUMPDEST CALLDATALOAD PUSH1 0x1 SSTORE DUP1 RETURN JUMPDEST PUSH1 0x0 SLOAD PUSH1 0x1 PUSH1 0x1 PUSH1 0xA0 SHL SUB AND CALLER SUB PUSH2 0x40E JUMPI JUMP JUMPDEST PUSH1 0x40 MLOAD PUSH4 0x118CDAA7 PUSH1 0xE0 SHL DUP2 MSTORE CALLER PUSH1 0x4 DUP3 ADD MSTORE PUSH1 0x24 SWAP1 REVERT INVALID LOG2 PUSH5 0x6970667358 0x22 SLT KECCAK256 0xC9 EXTCODESIZE 0xC1 0xDD 0xA5 SAR SWAP4 0xE8 0xDC PUSH13 0xA71E07FC8ACC6D64FCFEA1884E JUMPDEST TIMESTAMP 0xDF 0xC7 TIMESTAMP PUSH2 0x9F04 0xE6 PUSH5 0x736F6C6343 STOP ADDMOD EQ STOP CALLER "},"methodIdentifiers":{"claim()":"4e71d92d","cooldown()":"787a08a6","deposit()":"d0e30db0","dispenseAmount()":"a9c8d604","lastClaim(address)":"5c16e15e","owner()":"8da5cb5b","renounceOwnership()":"715018a6","setCooldown(uint256)":"4fc3f41a","setDispenseAmount(uint256)":"0dc80322","transferOwnership(address)":"f2fde38b","withdraw(uint256)":"2e1a7d4d"}}}}}