{
  "_format": "hh-sol-artifact-1",
  "contractName": "DAOGovernance",
  "sourceName": "contracts/DAOGovernance.sol",
  "abi": [
    {
      "inputs": [
        {
          "internalType": "address",
          "name": "_quillyToken",
          "type": "address"
        }
      ],
      "stateMutability": "nonpayable",
      "type": "constructor"
    },
    {
      "anonymous": false,
      "inputs": [
        {
          "indexed": true,
          "internalType": "uint256",
          "name": "proposalId",
          "type": "uint256"
        },
        {
          "indexed": true,
          "internalType": "address",
          "name": "proposer",
          "type": "address"
        },
        {
          "indexed": false,
          "internalType": "string",
          "name": "title",
          "type": "string"
        },
        {
          "indexed": false,
          "internalType": "string",
          "name": "category",
          "type": "string"
        },
        {
          "indexed": false,
          "internalType": "uint256",
          "name": "endTime",
          "type": "uint256"
        }
      ],
      "name": "ProposalCreated",
      "type": "event"
    },
    {
      "anonymous": false,
      "inputs": [
        {
          "indexed": true,
          "internalType": "uint256",
          "name": "proposalId",
          "type": "uint256"
        },
        {
          "indexed": false,
          "internalType": "bool",
          "name": "passed",
          "type": "bool"
        }
      ],
      "name": "ProposalExecuted",
      "type": "event"
    },
    {
      "anonymous": false,
      "inputs": [
        {
          "indexed": true,
          "internalType": "uint256",
          "name": "proposalId",
          "type": "uint256"
        },
        {
          "indexed": true,
          "internalType": "address",
          "name": "voter",
          "type": "address"
        },
        {
          "indexed": false,
          "internalType": "bool",
          "name": "support",
          "type": "bool"
        },
        {
          "indexed": false,
          "internalType": "uint256",
          "name": "weight",
          "type": "uint256"
        }
      ],
      "name": "VoteCast",
      "type": "event"
    },
    {
      "inputs": [],
      "name": "MIN_VOTING_POWER",
      "outputs": [
        {
          "internalType": "uint256",
          "name": "",
          "type": "uint256"
        }
      ],
      "stateMutability": "view",
      "type": "function"
    },
    {
      "inputs": [],
      "name": "PROPOSAL_THRESHOLD",
      "outputs": [
        {
          "internalType": "uint256",
          "name": "",
          "type": "uint256"
        }
      ],
      "stateMutability": "view",
      "type": "function"
    },
    {
      "inputs": [],
      "name": "VOTING_PERIOD",
      "outputs": [
        {
          "internalType": "uint256",
          "name": "",
          "type": "uint256"
        }
      ],
      "stateMutability": "view",
      "type": "function"
    },
    {
      "inputs": [
        {
          "internalType": "string",
          "name": "title",
          "type": "string"
        },
        {
          "internalType": "string",
          "name": "description",
          "type": "string"
        },
        {
          "internalType": "string",
          "name": "category",
          "type": "string"
        }
      ],
      "name": "createProposal",
      "outputs": [
        {
          "internalType": "uint256",
          "name": "",
          "type": "uint256"
        }
      ],
      "stateMutability": "nonpayable",
      "type": "function"
    },
    {
      "inputs": [
        {
          "internalType": "uint256",
          "name": "proposalId",
          "type": "uint256"
        }
      ],
      "name": "executeProposal",
      "outputs": [],
      "stateMutability": "nonpayable",
      "type": "function"
    },
    {
      "inputs": [],
      "name": "getActiveProposals",
      "outputs": [
        {
          "internalType": "uint256[]",
          "name": "",
          "type": "uint256[]"
        }
      ],
      "stateMutability": "view",
      "type": "function"
    },
    {
      "inputs": [
        {
          "internalType": "uint256",
          "name": "proposalId",
          "type": "uint256"
        }
      ],
      "name": "getProposal",
      "outputs": [
        {
          "internalType": "uint256",
          "name": "id",
          "type": "uint256"
        },
        {
          "internalType": "address",
          "name": "proposer",
          "type": "address"
        },
        {
          "internalType": "string",
          "name": "title",
          "type": "string"
        },
        {
          "internalType": "string",
          "name": "description",
          "type": "string"
        },
        {
          "internalType": "string",
          "name": "category",
          "type": "string"
        },
        {
          "internalType": "uint256",
          "name": "forVotes",
          "type": "uint256"
        },
        {
          "internalType": "uint256",
          "name": "againstVotes",
          "type": "uint256"
        },
        {
          "internalType": "uint256",
          "name": "startTime",
          "type": "uint256"
        },
        {
          "internalType": "uint256",
          "name": "endTime",
          "type": "uint256"
        },
        {
          "internalType": "bool",
          "name": "executed",
          "type": "bool"
        }
      ],
      "stateMutability": "view",
      "type": "function"
    },
    {
      "inputs": [
        {
          "internalType": "uint256",
          "name": "proposalId",
          "type": "uint256"
        }
      ],
      "name": "getProposalResult",
      "outputs": [
        {
          "internalType": "bool",
          "name": "isPassed",
          "type": "bool"
        },
        {
          "internalType": "uint256",
          "name": "totalVotes",
          "type": "uint256"
        },
        {
          "internalType": "uint256",
          "name": "participationRate",
          "type": "uint256"
        }
      ],
      "stateMutability": "view",
      "type": "function"
    },
    {
      "inputs": [
        {
          "internalType": "uint256",
          "name": "proposalId",
          "type": "uint256"
        },
        {
          "internalType": "address",
          "name": "voter",
          "type": "address"
        }
      ],
      "name": "getVote",
      "outputs": [
        {
          "internalType": "bool",
          "name": "",
          "type": "bool"
        }
      ],
      "stateMutability": "view",
      "type": "function"
    },
    {
      "inputs": [
        {
          "internalType": "uint256",
          "name": "proposalId",
          "type": "uint256"
        },
        {
          "internalType": "address",
          "name": "voter",
          "type": "address"
        }
      ],
      "name": "hasVoted",
      "outputs": [
        {
          "internalType": "bool",
          "name": "",
          "type": "bool"
        }
      ],
      "stateMutability": "view",
      "type": "function"
    },
    {
      "inputs": [],
      "name": "proposalCount",
      "outputs": [
        {
          "internalType": "uint256",
          "name": "",
          "type": "uint256"
        }
      ],
      "stateMutability": "view",
      "type": "function"
    },
    {
      "inputs": [
        {
          "internalType": "uint256",
          "name": "",
          "type": "uint256"
        }
      ],
      "name": "proposals",
      "outputs": [
        {
          "internalType": "uint256",
          "name": "id",
          "type": "uint256"
        },
        {
          "internalType": "address",
          "name": "proposer",
          "type": "address"
        },
        {
          "internalType": "string",
          "name": "title",
          "type": "string"
        },
        {
          "internalType": "string",
          "name": "description",
          "type": "string"
        },
        {
          "internalType": "string",
          "name": "category",
          "type": "string"
        },
        {
          "internalType": "uint256",
          "name": "forVotes",
          "type": "uint256"
        },
        {
          "internalType": "uint256",
          "name": "againstVotes",
          "type": "uint256"
        },
        {
          "internalType": "uint256",
          "name": "startTime",
          "type": "uint256"
        },
        {
          "internalType": "uint256",
          "name": "endTime",
          "type": "uint256"
        },
        {
          "internalType": "bool",
          "name": "executed",
          "type": "bool"
        }
      ],
      "stateMutability": "view",
      "type": "function"
    },
    {
      "inputs": [],
      "name": "quillyToken",
      "outputs": [
        {
          "internalType": "contract IQuillyToken",
          "name": "",
          "type": "address"
        }
      ],
      "stateMutability": "view",
      "type": "function"
    },
    {
      "inputs": [
        {
          "internalType": "uint256",
          "name": "proposalId",
          "type": "uint256"
        },
        {
          "internalType": "bool",
          "name": "support",
          "type": "bool"
        }
      ],
      "name": "vote",
      "outputs": [],
      "stateMutability": "nonpayable",
      "type": "function"
    }
  ],
  "bytecode": "0x60803461007457601f6114bd38819003918201601f19168301916001600160401b038311848410176100795780849260209460405283398101031261007457516001600160a01b0381169081900361007457600080546001600160a01b03191691909117905560405161142d90816100908239f35b600080fd5b634e487b7160e01b600052604160045260246000fdfe6080604052600436101561001257600080fd5b60003560e01c8063013cf08b1461102f5780630d61b51914610e845780634385963214610e235780634fa0b19b14610dfa5780635584c4f914610ced578063583cf37914610663578063805a81421461063f578063a6c266031461061b578063b1610d7e146105fd578063bc3f931f1461053e578063c7f758a814610497578063c9d27afe14610211578063da35c664146101f35763f91f88f7146100b657600080fd5b346101cf576020806003193601126101cf57600435801515806101e7575b6100dd90611344565b6000526001815260406000206004600660058301549201546100ff8184611316565b6000546040516318160ddd60e01b815293919291869185919082906001600160a01b03165afa9283156101db576000936101a7575b508311928361019a575b5060648102908082046064148115171561018457821561016e576060946040519415158552840152046040820152f35b634e487b7160e01b600052601260045260246000fd5b634e487b7160e01b600052601160045260246000fd5b600a83041092503861013e565b9092508481813d83116101d4575b6101bf81836110ed565b810103126101cf57519138610134565b600080fd5b503d6101b5565b6040513d6000823e3d90fd5b506002548111156100d4565b346101cf5760003660031901126101cf576020600254604051908152f35b346101cf5760403660031901126101cf576024803580151591600435918381036101cf578215158061048b575b61024790611344565b6000546040516370a0823160e01b8082523360048301526001600160a01b03909216936020939184818381895afa9081156101db57600091610455575b5068056bc75e2d6310000061029a9110156112bb565b85600052600184526040600020926007840154421061041c57600884015442116103e957600a8401913360005282865260ff604060002054166103b6579085916040518098819382523360048301525afa9485156101db57600095610387575b50336000528352604060002060ff1990600182825416179055600b8301845260406000209081541660ff88161790556000146103725760050161033e838254611316565b90555b6040519384528301527fcbdf6214089cba887ecbf35a0b6a734589959c9763342c756bb2a80ca2bc9f6e60403393a3005b600601610380838254611316565b9055610341565b9094508381813d83116103af575b61039f81836110ed565b810103126101cf575193876102fa565b503d610395565b85600d6064926040519262461bcd60e51b845260048401528201526c105b1c9958591e481d9bdd1959609a1b6044820152fd5b60405162461bcd60e51b815260048101869052600c818401526b159bdd1a5b99c8195b99195960a21b6044820152606490fd5b60405162461bcd60e51b81526004810186905260128184015271159bdd1a5b99c81b9bdd081cdd185c9d195960721b6044820152606490fd5b90508481813d8311610484575b61046c81836110ed565b810103126101cf575168056bc75e2d63100000610284565b503d610462565b5060025483111561023e565b346101cf5760203660031901126101cf5760043580151580610532575b6104bd90611344565b60005260016020526040600020805461052e60018060a01b03600184015416926005810154600682015460078301549060088401549260ff600986015416946105086002820161110f565b90610521600461051a6003840161110f565b920161110f565b916040519a8b9a8b6111f5565b0390f35b506002548111156104b4565b346101cf5761054c36611267565b811515806105f1575b61055e90611344565b8160005260209160018352600a6040600020019160018060a01b03169182600052835260ff60406000205416156105b75760005260018252600b60406000200190600052815260ff604060002054166040519015158152f35b60405162461bcd60e51b8152600481018490526012602482015271155cd95c881a185cc81b9bdd081d9bdd195960721b6044820152606490fd5b50600254821115610555565b346101cf5760003660031901126101cf57602060405162093a808152f35b346101cf5760003660031901126101cf576020604051683635c9adc5dea000008152f35b346101cf5760003660031901126101cf57602060405168056bc75e2d631000008152f35b346101cf5760603660031901126101cf5760043567ffffffffffffffff81116101cf5761069490369060040161128d565b9060243567ffffffffffffffff81116101cf576106b590369060040161128d565b919060443567ffffffffffffffff81116101cf576106d790369060040161128d565b91909460018060a01b03600054166040516370a0823160e01b808252336004830152602082602481865afa9182156101db57600092610cb7575b5061072968056bc75e2d6310000060209310156112bb565b60246040518094819382523360048301525afa80156101db57600090610c7c575b683635c9adc5dea00000915010610c375780151580610c2c575b15610bf05784151580610be4575b15610b9f57610782600254611307565b948560025585600052600160205260406000209286845560018401336bffffffffffffffffffffffff60a01b82541617905567ffffffffffffffff83116109fa576107d060028501546110b3565b601f8111610b58575b50826000601f8211600114610aea57600091610adf575b508360011b906000198560031b1c19161760028501555b67ffffffffffffffff82116109fa57819061082560038601546110b3565b601f8111610a8c575b50600090601f8311600114610a1b57600092610a10575b50508160011b916000199060031b1c19161760038301555b67ffffffffffffffff83116109fa5761087960048301546110b3565b601f81116109af575b50826000601f821160011461094157600091610936575b508360011b906000198560031b1c19161760048301555b42600783015562093a80420193844211610184576020968694610915610922936009878a60087fbd04b5479c6dd97d2cc7727f90a20fe21ccf7121f4f9fdc04a755ee528efeb449a01550160ff19815416905560405195606087526060870191611323565b918483038a860152611323565b9360408201528033940390a3604051908152f35b905086013587610899565b9050601f19841690600484016000528460206000209260005b81811061099457501061097a575b5050600183811b0160048301556108b0565b870135600019600386901b60f8161c191690558680610968565b8a84013585556001909401936020938401938893500161095a565b600483016000526020600020601f850160051c810191602086106109f0575b601f0160051c01905b8181106109e45750610882565b600081556001016109d7565b90915081906109ce565b634e487b7160e01b600052604160045260246000fd5b013590508880610845565b909150601f198316916003860160005260206000209260005b818110610a745750908460019594939210610a5a575b505050811b01600383015561085d565b0135600019600384901b60f8161c19169055888080610a4a565b91936020600181928787013581550195019201610a34565b909150600385016000526020600020601f840160051c810160208510610ad8575b90849392915b601f830160051c82018110610ac957505061082e565b60008155859450600101610ab3565b5080610aad565b9050860135896107f0565b90506002850160005260206000209060005b601f1986168110610b40575084601f19811610610b26575b5050600183811b016002850155610807565b870135600019600386901b60f8161c191690558880610b14565b9091602060018192858c013581550193019101610afc565b600285016000526020600020601f850160051c810160208610610b98575b601f830160051c82018110610b8c5750506107d9565b60008155600101610b76565b5080610b76565b60405162461bcd60e51b815260206004820152601a60248201527f496e76616c6964206465736372697074696f6e206c656e6774680000000000006044820152606490fd5b506103e8851115610772565b60405162461bcd60e51b8152602060048201526014602482015273092dcecc2d8d2c840e8d2e8d8ca40d8cadccee8d60631b6044820152606490fd5b506064811115610764565b60405162461bcd60e51b815260206004820152601e60248201527f496e73756666696369656e7420746f6b656e7320746f2070726f706f736500006044820152606490fd5b506020813d602011610caf575b81610c96602093836110ed565b810103126101cf57683635c9adc5dea00000905161074a565b3d9150610c89565b91506020823d602011610ce5575b81610cd2602093836110ed565b810103126101cf57905190610729610711565b3d9150610cc5565b346101cf5760003660031901126101cf57600254610d0a8161139b565b90600091600191825b81811115610d99575050610d268361139b565b9260005b818110610d70575050506040519060208083018184528451809152816040850195019160005b828110610d5d5785870386f35b8351875295810195928101928401610d50565b80610d80610d91928597956113cd565b51610d8b82866113cd565b52611307565b939193610d2a565b8060009593955283602052604060002060088101544211159081610dea575b50610dcf575b610dc790611307565b939193610d13565b91610de28184610d8b610dc794896113cd565b929050610dbe565b60ff915060090154161586610db8565b346101cf5760003660031901126101cf576000546040516001600160a01b039091168152602090f35b346101cf57610e3136611267565b9080151580610e78575b610e4490611344565b6000526001602052600a6040600020019060018060a01b0316600052602052602060ff604060002054166040519015158152f35b50600254811115610e3b565b346101cf576020806003193601126101cf576004359081151580611023575b610eac90611344565b81600052600181526040600020906008820154421115610fe95760098201805460ff8116610fb15760019060ff19161790556006600583015492015482119182610f1f575b507f948f4a9cd986f1118c3fbd459f7a22b23c0693e1ca3ef06a6a8be5aa7d39cc03916040519015158152a2005b6000546040516318160ddd60e01b815293508290849060049082906001600160a01b03165afa9283156101db57600093610f81575b50600a7f948f4a9cd986f1118c3fbd459f7a22b23c0693e1ca3ef06a6a8be5aa7d39cc0393041091610ef1565b92508183813d8311610faa575b610f9881836110ed565b810103126101cf57915191600a610f54565b503d610f8e565b60405162461bcd60e51b815260048101849052601060248201526f105b1c9958591e48195e1958dd5d195960821b6044820152606490fd5b6064906040519062461bcd60e51b825260048201526013602482015272566f74696e67207374696c6c2061637469766560681b6044820152fd5b50600254821115610ea3565b346101cf5760203660031901126101cf5760043560005260016020526040600020805461052e60018060a01b036001840154169261106f6002820161110f565b9061107c6003820161110f565b6110886004830161110f565b600583015460068401549160078501549360ff6009600888015497015416966040519a8b9a8b6111f5565b90600182811c921680156110e3575b60208310146110cd57565b634e487b7160e01b600052602260045260246000fd5b91607f16916110c2565b90601f8019910116810190811067ffffffffffffffff8211176109fa57604052565b9060405191826000825492611123846110b3565b908184526001948581169081600014611192575060011461114f575b505061114d925003836110ed565b565b9093915060005260209081600020936000915b81831061117a57505061114d9350820101388061113f565b85548884018501529485019487945091830191611162565b91505061114d94506020925060ff191682840152151560051b820101388061113f565b919082519283825260005b8481106111e1575050826000602080949584010152601f8019910116010190565b6020818301810151848301820152016111c0565b98959a99969361122e61124a946101209a979461123c948d5260018060a01b031660208d015260408c61014091829101528c01906111b5565b908a820360608c01526111b5565b9088820360808a01526111b5565b9760a087015260c086015260e08501526101008401521515910152565b60409060031901126101cf57600435906024356001600160a01b03811681036101cf5790565b9181601f840112156101cf5782359167ffffffffffffffff83116101cf57602083818601950101116101cf57565b156112c257565b60405162461bcd60e51b815260206004820152601960248201527f496e73756666696369656e7420766f74696e6720706f776572000000000000006044820152606490fd5b60001981146101845760010190565b9190820180921161018457565b908060209392818452848401376000828201840152601f01601f1916010190565b1561134b57565b60405162461bcd60e51b815260206004820152601060248201526f125b9d985b1a59081c1c9bdc1bdcd85b60821b6044820152606490fd5b67ffffffffffffffff81116109fa5760051b60200190565b906113a582611383565b6113b260405191826110ed565b82815280926113c3601f1991611383565b0190602036910137565b80518210156113e15760209160051b010190565b634e487b7160e01b600052603260045260246000fdfea2646970667358221220b4a3fb9e7811c0112ee753862f52b6771d1b3a74c4d787de765ff78617f4732b64736f6c63430008140033",
  "linkReferences": {},
  "deployedLinkReferences": {}
}