{
  "_format": "hh-sol-artifact-1",
  "contractName": "CopyrightProtection",
  "sourceName": "contracts/CopyrightProtection.sol",
  "abi": [
    {
      "inputs": [],
      "stateMutability": "nonpayable",
      "type": "constructor"
    },
    {
      "inputs": [],
      "name": "EnforcedPause",
      "type": "error"
    },
    {
      "inputs": [],
      "name": "ExpectedPause",
      "type": "error"
    },
    {
      "inputs": [
        {
          "internalType": "address",
          "name": "owner",
          "type": "address"
        }
      ],
      "name": "OwnableInvalidOwner",
      "type": "error"
    },
    {
      "inputs": [
        {
          "internalType": "address",
          "name": "account",
          "type": "address"
        }
      ],
      "name": "OwnableUnauthorizedAccount",
      "type": "error"
    },
    {
      "inputs": [],
      "name": "ReentrancyGuardReentrantCall",
      "type": "error"
    },
    {
      "anonymous": false,
      "inputs": [
        {
          "indexed": true,
          "internalType": "bytes32",
          "name": "recordId",
          "type": "bytes32"
        },
        {
          "indexed": true,
          "internalType": "address",
          "name": "author",
          "type": "address"
        },
        {
          "indexed": false,
          "internalType": "uint256",
          "name": "timestamp",
          "type": "uint256"
        }
      ],
      "name": "ContentDeactivated",
      "type": "event"
    },
    {
      "anonymous": false,
      "inputs": [
        {
          "indexed": true,
          "internalType": "bytes32",
          "name": "recordId",
          "type": "bytes32"
        },
        {
          "indexed": true,
          "internalType": "address",
          "name": "author",
          "type": "address"
        },
        {
          "indexed": false,
          "internalType": "string",
          "name": "contentHash",
          "type": "string"
        },
        {
          "indexed": false,
          "internalType": "string",
          "name": "title",
          "type": "string"
        },
        {
          "indexed": false,
          "internalType": "uint256",
          "name": "timestamp",
          "type": "uint256"
        },
        {
          "indexed": false,
          "internalType": "uint256",
          "name": "blockNumber",
          "type": "uint256"
        }
      ],
      "name": "ContentRegistered",
      "type": "event"
    },
    {
      "anonymous": false,
      "inputs": [
        {
          "indexed": true,
          "internalType": "address",
          "name": "previousOwner",
          "type": "address"
        },
        {
          "indexed": true,
          "internalType": "address",
          "name": "newOwner",
          "type": "address"
        }
      ],
      "name": "OwnershipTransferred",
      "type": "event"
    },
    {
      "anonymous": false,
      "inputs": [
        {
          "indexed": false,
          "internalType": "address",
          "name": "account",
          "type": "address"
        }
      ],
      "name": "Paused",
      "type": "event"
    },
    {
      "anonymous": false,
      "inputs": [
        {
          "indexed": true,
          "internalType": "bytes32",
          "name": "originalRecordId",
          "type": "bytes32"
        },
        {
          "indexed": true,
          "internalType": "address",
          "name": "originalAuthor",
          "type": "address"
        },
        {
          "indexed": true,
          "internalType": "address",
          "name": "suspectedPlagiarist",
          "type": "address"
        },
        {
          "indexed": false,
          "internalType": "string",
          "name": "suspectedContentHash",
          "type": "string"
        },
        {
          "indexed": false,
          "internalType": "uint256",
          "name": "timestamp",
          "type": "uint256"
        }
      ],
      "name": "PlagiarismDetected",
      "type": "event"
    },
    {
      "anonymous": false,
      "inputs": [
        {
          "indexed": false,
          "internalType": "uint256",
          "name": "oldFee",
          "type": "uint256"
        },
        {
          "indexed": false,
          "internalType": "uint256",
          "name": "newFee",
          "type": "uint256"
        },
        {
          "indexed": false,
          "internalType": "uint256",
          "name": "timestamp",
          "type": "uint256"
        }
      ],
      "name": "RegistrationFeeUpdated",
      "type": "event"
    },
    {
      "anonymous": false,
      "inputs": [
        {
          "indexed": false,
          "internalType": "address",
          "name": "account",
          "type": "address"
        }
      ],
      "name": "Unpaused",
      "type": "event"
    },
    {
      "stateMutability": "nonpayable",
      "type": "fallback"
    },
    {
      "inputs": [],
      "name": "MAX_HASH_LENGTH",
      "outputs": [
        {
          "internalType": "uint256",
          "name": "",
          "type": "uint256"
        }
      ],
      "stateMutability": "view",
      "type": "function"
    },
    {
      "inputs": [],
      "name": "MAX_TITLE_LENGTH",
      "outputs": [
        {
          "internalType": "uint256",
          "name": "",
          "type": "uint256"
        }
      ],
      "stateMutability": "view",
      "type": "function"
    },
    {
      "inputs": [
        {
          "internalType": "address",
          "name": "",
          "type": "address"
        },
        {
          "internalType": "uint256",
          "name": "",
          "type": "uint256"
        }
      ],
      "name": "authorContent",
      "outputs": [
        {
          "internalType": "bytes32",
          "name": "",
          "type": "bytes32"
        }
      ],
      "stateMutability": "view",
      "type": "function"
    },
    {
      "inputs": [
        {
          "internalType": "string[]",
          "name": "contentHashes",
          "type": "string[]"
        }
      ],
      "name": "bulkVerifyContent",
      "outputs": [
        {
          "internalType": "bool[]",
          "name": "exists",
          "type": "bool[]"
        },
        {
          "internalType": "address[]",
          "name": "authors",
          "type": "address[]"
        }
      ],
      "stateMutability": "view",
      "type": "function"
    },
    {
      "inputs": [
        {
          "internalType": "string",
          "name": "suspectedContentHash",
          "type": "string"
        },
        {
          "internalType": "address",
          "name": "suspectedAuthor",
          "type": "address"
        }
      ],
      "name": "checkForPlagiarism",
      "outputs": [
        {
          "internalType": "bool",
          "name": "isPlagiarism",
          "type": "bool"
        }
      ],
      "stateMutability": "nonpayable",
      "type": "function"
    },
    {
      "inputs": [
        {
          "internalType": "bytes32",
          "name": "",
          "type": "bytes32"
        }
      ],
      "name": "contentRecords",
      "outputs": [
        {
          "internalType": "address",
          "name": "author",
          "type": "address"
        },
        {
          "internalType": "string",
          "name": "contentHash",
          "type": "string"
        },
        {
          "internalType": "uint256",
          "name": "timestamp",
          "type": "uint256"
        },
        {
          "internalType": "string",
          "name": "title",
          "type": "string"
        },
        {
          "internalType": "string",
          "name": "ipfsHash",
          "type": "string"
        },
        {
          "internalType": "bool",
          "name": "isActive",
          "type": "bool"
        },
        {
          "internalType": "uint256",
          "name": "blockNumber",
          "type": "uint256"
        }
      ],
      "stateMutability": "view",
      "type": "function"
    },
    {
      "inputs": [
        {
          "internalType": "bytes32",
          "name": "recordId",
          "type": "bytes32"
        }
      ],
      "name": "deactivateContent",
      "outputs": [],
      "stateMutability": "nonpayable",
      "type": "function"
    },
    {
      "inputs": [],
      "name": "emergencyWithdraw",
      "outputs": [],
      "stateMutability": "nonpayable",
      "type": "function"
    },
    {
      "inputs": [
        {
          "internalType": "string",
          "name": "content",
          "type": "string"
        }
      ],
      "name": "generateContentHash",
      "outputs": [
        {
          "internalType": "string",
          "name": "",
          "type": "string"
        }
      ],
      "stateMutability": "pure",
      "type": "function"
    },
    {
      "inputs": [
        {
          "internalType": "address",
          "name": "author",
          "type": "address"
        }
      ],
      "name": "getAuthorContent",
      "outputs": [
        {
          "internalType": "bytes32[]",
          "name": "",
          "type": "bytes32[]"
        }
      ],
      "stateMutability": "view",
      "type": "function"
    },
    {
      "inputs": [
        {
          "internalType": "bytes32",
          "name": "recordId",
          "type": "bytes32"
        }
      ],
      "name": "getContentRecord",
      "outputs": [
        {
          "components": [
            {
              "internalType": "address",
              "name": "author",
              "type": "address"
            },
            {
              "internalType": "string",
              "name": "contentHash",
              "type": "string"
            },
            {
              "internalType": "uint256",
              "name": "timestamp",
              "type": "uint256"
            },
            {
              "internalType": "string",
              "name": "title",
              "type": "string"
            },
            {
              "internalType": "string",
              "name": "ipfsHash",
              "type": "string"
            },
            {
              "internalType": "bool",
              "name": "isActive",
              "type": "bool"
            },
            {
              "internalType": "uint256",
              "name": "blockNumber",
              "type": "uint256"
            }
          ],
          "internalType": "struct CopyrightProtection.ContentRecord",
          "name": "",
          "type": "tuple"
        }
      ],
      "stateMutability": "view",
      "type": "function"
    },
    {
      "inputs": [],
      "name": "getContractStats",
      "outputs": [
        {
          "internalType": "uint256",
          "name": "totalRecords",
          "type": "uint256"
        },
        {
          "internalType": "uint256",
          "name": "currentFee",
          "type": "uint256"
        },
        {
          "internalType": "bool",
          "name": "isPaused",
          "type": "bool"
        },
        {
          "internalType": "address",
          "name": "contractOwner",
          "type": "address"
        }
      ],
      "stateMutability": "view",
      "type": "function"
    },
    {
      "inputs": [
        {
          "internalType": "string",
          "name": "",
          "type": "string"
        }
      ],
      "name": "hashToRecordId",
      "outputs": [
        {
          "internalType": "bytes32",
          "name": "",
          "type": "bytes32"
        }
      ],
      "stateMutability": "view",
      "type": "function"
    },
    {
      "inputs": [],
      "name": "owner",
      "outputs": [
        {
          "internalType": "address",
          "name": "",
          "type": "address"
        }
      ],
      "stateMutability": "view",
      "type": "function"
    },
    {
      "inputs": [],
      "name": "pause",
      "outputs": [],
      "stateMutability": "nonpayable",
      "type": "function"
    },
    {
      "inputs": [],
      "name": "paused",
      "outputs": [
        {
          "internalType": "bool",
          "name": "",
          "type": "bool"
        }
      ],
      "stateMutability": "view",
      "type": "function"
    },
    {
      "inputs": [
        {
          "internalType": "bytes32",
          "name": "recordId",
          "type": "bytes32"
        }
      ],
      "name": "reactivateContent",
      "outputs": [],
      "stateMutability": "nonpayable",
      "type": "function"
    },
    {
      "inputs": [],
      "name": "recordCount",
      "outputs": [
        {
          "internalType": "uint256",
          "name": "",
          "type": "uint256"
        }
      ],
      "stateMutability": "view",
      "type": "function"
    },
    {
      "inputs": [
        {
          "internalType": "string",
          "name": "contentHash",
          "type": "string"
        },
        {
          "internalType": "string",
          "name": "title",
          "type": "string"
        },
        {
          "internalType": "string",
          "name": "ipfsHash",
          "type": "string"
        }
      ],
      "name": "registerContent",
      "outputs": [
        {
          "internalType": "bytes32",
          "name": "",
          "type": "bytes32"
        }
      ],
      "stateMutability": "payable",
      "type": "function"
    },
    {
      "inputs": [],
      "name": "registrationFee",
      "outputs": [
        {
          "internalType": "uint256",
          "name": "",
          "type": "uint256"
        }
      ],
      "stateMutability": "view",
      "type": "function"
    },
    {
      "inputs": [],
      "name": "renounceOwnership",
      "outputs": [],
      "stateMutability": "nonpayable",
      "type": "function"
    },
    {
      "inputs": [
        {
          "internalType": "address",
          "name": "newOwner",
          "type": "address"
        }
      ],
      "name": "transferOwnership",
      "outputs": [],
      "stateMutability": "nonpayable",
      "type": "function"
    },
    {
      "inputs": [],
      "name": "unpause",
      "outputs": [],
      "stateMutability": "nonpayable",
      "type": "function"
    },
    {
      "inputs": [
        {
          "internalType": "uint256",
          "name": "newFee",
          "type": "uint256"
        }
      ],
      "name": "updateRegistrationFee",
      "outputs": [],
      "stateMutability": "nonpayable",
      "type": "function"
    },
    {
      "inputs": [
        {
          "internalType": "string",
          "name": "contentHash",
          "type": "string"
        }
      ],
      "name": "verifyContentOwnership",
      "outputs": [
        {
          "internalType": "bool",
          "name": "exists",
          "type": "bool"
        },
        {
          "internalType": "address",
          "name": "author",
          "type": "address"
        },
        {
          "internalType": "uint256",
          "name": "timestamp",
          "type": "uint256"
        },
        {
          "internalType": "string",
          "name": "title",
          "type": "string"
        },
        {
          "internalType": "uint256",
          "name": "blockNumber",
          "type": "uint256"
        }
      ],
      "stateMutability": "view",
      "type": "function"
    },
    {
      "inputs": [],
      "name": "withdrawFees",
      "outputs": [],
      "stateMutability": "nonpayable",
      "type": "function"
    },
    {
      "stateMutability": "payable",
      "type": "receive"
    }
  ],
  "bytecode": "0x6080806040523461009e57600160005533156100885760018054610100600160a81b0319811633600881811b610100600160a81b0316929092179093556040519291901c6001600160a01b03167f8be0079c531659141344cd1fd0a4f28419497f9722a3daafe3b4186f6b6457e0600080a366038d7ea4c68000600655611cfe90816100a48239f35b631e4fbdf760e01b815260006004820152602490fd5b600080fdfe608080604052600436101561009f575b50361561005a57346100555760405162461bcd60e51b8152602060048201526012602482015271119d5b98dd1a5bdb881b9bdd08199bdd5b9960721b6044820152606490fd5b600080fd5b60405162461bcd60e51b815260206004820152601b60248201527f446972656374207061796d656e7473206e6f7420616c6c6f77656400000000006044820152606490fd5b60003560e01c90816314c44e09146116215750806318da65151461139057806319b1f5fc14611374578063261f84d2146112e65780632ef9a160146112ca5780633f4ba83a14611273578063476343ee146111a457806351b0733214610aa45780635c975abb14610a8157806364e7b18914610a0f578063715018a6146109ae5780637906dcb2146109555780637a0c1f4f146108d45780638456cb591461087b5780638da5cb5b1461084e578063900407bc14610830578063994470d314610789578063a3ae647a1461071b578063af582c6b1461067d578063b6c57e9e146105c2578063b97e964e14610462578063d241eeee146103ae578063db2e21bc14610316578063db53db8f146102a9578063dfe6b5d6146102635763f2fde38b146101ca573861000f565b34610055576020366003190112610055576101e36116b1565b6101eb61187e565b6001600160a01b0381811691821561024a5760018054610100600160a81b03198116600893841b610100600160a81b031617909155901c167f8be0079c531659141344cd1fd0a4f28419497f9722a3daafe3b4186f6b6457e0600080a3005b604051631e4fbdf760e01b815260006004820152602490fd5b3461005557600036600319011261005557608060055460065460015490604051928352602083015260ff81161515604083015260018060a01b039060081c166060820152f35b34610055576020366003190112610055576004356001600160401b03811161005557366023820112156100555761030360206102f081933690602481600401359101611847565b8160405193828580945193849201611669565b8101600481520301902054604051908152f35b346100555760003660031901126100555761032f61187e565b610337611c7e565b478061033f57005b60015460009182918291829160081c6001600160a01b03165af1610361611c4e565b501561036957005b60405162461bcd60e51b815260206004820152601b60248201527f456d657267656e6379207769746864726177616c206661696c656400000000006044820152606490fd5b3461005557602080600319360112610055576001600160a01b036103d06116b1565b1660005260038152604060002060405190818382549182815201908192600052846000209060005b8682821061044e57868661040e82880383611765565b604051928392818401908285525180915260408401929160005b82811061043757505050500390f35b835185528695509381019392810192600101610428565b8354855290930192600192830192016103f8565b3461005557602080600319360112610055576004359061059e6040516104878161172f565b60008152600060c0606092838682015282604082015283808201528360808201528260a08201520152836000526002835260018060a01b03936104d285604060002054161515611bcb565b600052600283526105af604060002091604051958694859485936104f58561172f565b83825416855261058361050a60018401611786565b8a87019081528a6002850154966040890197885260c0600661052e60038901611786565b97878c01988952608061054360048301611786565b9c019b8c5260a060ff6005830154169f019e8f901515905201549b019a8b526040519d8e9d8e525116908c01525160e060408c01526101008b019061168c565b9351908901525191601f1992838983030160808a015261168c565b9151908683030160a087015261168c565b9151151560c08401525160e08301520390f35b3461005557602036600319011261005557600435600090815260026020526040902080546001600160a01b03166105fb60018301611786565b91600281015461066c61061060038401611786565b9161065e61062060048601611786565b91600660ff6005880154169601549461064b604051998a998a5260e060208b015260e08a019061168c565b916040890152878203606089015261168c565b90858203608087015261168c565b91151560a084015260c08301520390f35b346100555760203660031901126100555760043561069961187e565b662386f26fc1000081116106e75760607fc70ec336d4b0f144cc5d85ebf79cd012a3485b407c2b88a10bf70d550dfe1be59160065490806006556040519182526020820152426040820152a1005b60405162461bcd60e51b815260206004820152600c60248201526b08ccaca40e8dede40d0d2ced60a31b6044820152606490fd5b346100555760203660031901126100555760043580600052600260205261076b60018060a01b0361075481604060002054161515611bcb565b826000526002602052604060002054163314611c0f565b6000908152600260205260409020600501805460ff19166001179055005b3461005557602080600319360112610055576001600160401b0390600435828111610055576107bc90369060040161163c565b6107df836040518381948383019687378101600083820152038084520182611765565b51902090604051918183015280825260408201928284109084111761081a57826040528252603f1990610815606082018261168c565b030190f35b634e487b7160e01b600052604160045260246000fd5b34610055576000366003190112610055576020600554604051908152f35b346100555760003660031901126100555760015460405160089190911c6001600160a01b03168152602090f35b346100555760003660031901126100555761089461187e565b61089c611978565b600160ff19815416176001557f62e78cea01bee320cd4e420270b5ea74000d11b0c9f74754ebdbfc544b05a2586020604051338152a1005b346100555760203660031901126100555760043580600052600260205261090d60018060a01b0361075481604060002054161515611bcb565b806000526002602052600560406000200160ff198154169055604051904282527f115364b38a01e7647fb5b763b6918838f2d85c976dc58b09fb8075beb1e33ca160203393a3005b346100555760403660031901126100555761096e6116b1565b6001600160a01b03166000908152600360205260409020805460243591908210156100555760209161099f916116c7565b90549060031b1c604051908152f35b34610055576000366003190112610055576109c761187e565b60018054610100600160a81b0319811690915560009060081c6001600160a01b03167f8be0079c531659141344cd1fd0a4f28419497f9722a3daafe3b4186f6b6457e08280a3005b34610055576040366003190112610055576004356001600160401b03811161005557610a3f90369060040161163c565b906024356001600160a01b03811681036100555782610a7792610a6560209515156118ad565b610a7260648311156118ee565b611ab4565b6040519015158152f35b3461005557600036600319011261005557602060ff600154166040519015158152f35b6060366003190112610055576004356001600160401b03811161005557610acf90369060040161163c565b906024356001600160401b03811161005557610aef90369060040161163c565b92906044356001600160401b03811161005557610b1090369060040161163c565b610b1b949194611996565b610b23611978565b610b2e8415156118ad565b610b3b60648511156118ee565b85156111715760c8861161113b57604051848382376020818681016004815203019020546110f65760065434106110b157610bfd610b7a600554611932565b80600555604051610bbc60948260208101943360601b86528a8960348401378a8201904260348301524360548301526074820152036074810184520182611765565b5190209560405192610bcd8461172f565b338452610bdb368887611847565b6020850152426040850152610bf1368a88611847565b60608501523691611847565b6080820152600160a08201524360c082015284600052600260205260406000209060018060a01b038151166bffffffffffffffffffffffff60a01b83541617825560208101518051906001600160401b03821161081a578190610c6360018601546116f5565b601f811161105e575b50602090601f8311600114610fec57600092610fe1575b50508160011b916000199060031b1c19161760018301555b6040810151600283015560608101518051906001600160401b03821161081a578190610cca60038601546116f5565b601f8111610f8e575b50602090601f8311600114610f1c57600092610f11575b50508160011b916000199060031b1c19161760038301555b60808101518051906001600160401b03821161081a57610d2560048501546116f5565b601f8111610eca575b50602090601f8311600114610e555791806006949260c094600092610e4a575b50508160011b916000199060031b1c19161760048501555b6005840160a0820151151560ff80198354169116179055015191015533600052600360205260406000208054926801000000000000000084101561081a57602096610e1d7f10b7787d761dc1b3ef001e262e7a5d527cb338a802a27bea295a3ef8534dd61794610de087610e2a9660018c9a0181556116c7565b81549060031b9089821b91600019901b191617905586604051898382378b818b810160048152030190205560405197608089526080890191611957565b9186830389880152611957565b924260408201524360608201528033940390a36001600055604051908152f35b015190508b80610d4e565b906004850160005260206000209160005b601f1985168110610eb25750926006949260019260c09583601f19811610610e99575b505050811b016004850155610d66565b015160001960f88460031b161c191690558b8080610e89565b91926020600181928685015181550194019201610e66565b600485016000526020600020601f840160051c810160208510610f0a575b601f830160051c82018110610efe575050610d2e565b60008155600101610ee8565b5080610ee8565b015190508980610cea565b9250600385016000526020600020906000935b601f1984168510610f73576001945083601f19811610610f5a575b505050811b016003830155610d02565b015160001960f88460031b161c19169055898080610f4a565b81810151835560209485019460019093019290910190610f2f565b909150600385016000526020600020601f840160051c810160208510610fda575b90849392915b601f830160051c82018110610fcb575050610cd3565b60008155859450600101610fb5565b5080610faf565b015190508980610c83565b9250600185016000526020600020906000935b601f1984168510611043576001945083601f1981161061102a575b505050811b016001830155610c9b565b015160001960f88460031b161c1916905589808061101a565b81810151835560209485019460019093019290910190610fff565b909150600185016000526020600020601f840160051c8101602085106110aa575b90849392915b601f830160051c8201811061109b575050610c6c565b60008155859450600101611085565b508061107f565b60405162461bcd60e51b815260206004820152601d60248201527f496e73756666696369656e7420726567697374726174696f6e206665650000006044820152606490fd5b60405162461bcd60e51b815260206004820152601a60248201527f436f6e74656e7420616c726561647920726567697374657265640000000000006044820152606490fd5b60405162461bcd60e51b815260206004820152600e60248201526d5469746c6520746f6f206c6f6e6760901b6044820152606490fd5b60405162461bcd60e51b815260206004820152600b60248201526a456d707479207469746c6560a81b6044820152606490fd5b34610055576000366003190112610055576111bd61187e565b6111c5611996565b4780156112385760015460009182918291829160081c6001600160a01b03165af16111ee611c4e565b50156111fb576001600055005b60405162461bcd60e51b8152602060048201526015602482015274119959481dda5d1a191c985dd85b0819985a5b1959605a1b6044820152606490fd5b60405162461bcd60e51b81526020600482015260136024820152724e6f206665657320746f20776974686472617760681b6044820152606490fd5b346100555760003660031901126100555761128c61187e565b611294611c7e565b60ff19600154166001557f5db9ee0a495bf2e6ff9c91a7834c1ba4fdd244a5e8aa4e537bd38aeae4b073aa6020604051338152a1005b3461005557600036600319011261005557602060405160c88152f35b34610055576020366003190112610055576004356001600160401b0381116100555761133a61131c61136a92369060040161163c565b906113288215156118ad565b61133560648311156118ee565b6119b9565b9294916040519586951515865260018060a01b03166020860152604085015260a0606085015260a084019061168c565b9060808301520390f35b3461005557600036600319011261005557602060405160648152f35b3461005557602080600319360112610055576004356001600160401b03918282116100555736602383011215610055578160040135908382116100555760249136838260051b8601011161005557603281116115de579084926113f283611c9d565b936114006040519586611765565b83855261140c84611c9d565b9383860192601f1980960136853761142382611c9d565b97611431604051998a611765565b82895261143d83611c9d565b898701970136883736819003604219019060005b8481106114df575050505050506040519485946040860190604087525180915260608601929060005b8181106114c6575050508482038584015251808252908201929160005b8281106114a657505050500390f35b83516001600160a01b031685528695509381019392810192600101611497565b825115158552889750938501939185019160010161147a565b838160059c989a9b9c1b830101358381121561005557820190848201359187831161005557604401918036038313610055578961153693826040519384928337810160048152030190205480611540575b50611932565b9998979599611451565b6000528860028082528d6115ca84604060002092604051946115618661172f565b84546001600160a01b0390811687529661157d60018701611786565b90870152840154604086015261159560038501611786565b60608601526115a660048501611786565b6080860152600660ff6005860154161515948560a0880152015460c0860152611cb4565b5251166115d7828a611cb4565b528c611530565b5060196064926040519262461bcd60e51b845260048401528201527f546f6f206d616e792068617368657320746f20766572696679000000000000006044820152fd5b34610055576000366003190112610055576020906006548152f35b9181601f84011215610055578235916001600160401b038311610055576020838186019501011161005557565b60005b83811061167c5750506000910152565b818101518382015260200161166c565b906020916116a581518092818552858086019101611669565b601f01601f1916010190565b600435906001600160a01b038216820361005557565b80548210156116df5760005260206000200190600090565b634e487b7160e01b600052603260045260246000fd5b90600182811c92168015611725575b602083101461170f57565b634e487b7160e01b600052602260045260246000fd5b91607f1691611704565b60e081019081106001600160401b0382111761081a57604052565b602081019081106001600160401b0382111761081a57604052565b90601f801991011681019081106001600160401b0382111761081a57604052565b906040519182600082549261179a846116f5565b90818452600194858116908160001461180957506001146117c6575b50506117c492500383611765565b565b9093915060005260209081600020936000915b8183106117f15750506117c4935082010138806117b6565b855488840185015294850194879450918301916117d9565b9150506117c494506020925060ff191682840152151560051b82010138806117b6565b6001600160401b03811161081a57601f01601f191660200190565b9291926118538261182c565b916118616040519384611765565b829481845281830111610055578281602093846000960137010152565b60015460081c6001600160a01b0316330361189557565b60405163118cdaa760e01b8152336004820152602490fd5b156118b457565b60405162461bcd60e51b815260206004820152601260248201527108adae0e8f240c6dedce8cadce840d0c2e6d60731b6044820152606490fd5b156118f557565b60405162461bcd60e51b8152602060048201526015602482015274436f6e74656e74206861736820746f6f206c6f6e6760581b6044820152606490fd5b60001981146119415760010190565b634e487b7160e01b600052601160045260246000fd5b908060209392818452848401376000828201840152601f01601f1916010190565b60ff6001541661198457565b60405163d93c066560e01b8152600490fd5b6002600054146119a7576002600055565b604051633ee5aeb560e01b8152600490fd5b90602060409282845193849283378101600481520301902054918215611a9757600092835260026020528183209082516119f28161172f565b82546001600160a01b03908116825290611a0e60018501611786565b6020820152600284015495858201968752611a2b60038601611786565b9560608301968752611a3f60048701611786565b6080840152600660ff6005880154161596871560a086015201549560c08401968752611a7957505051169351925191519060019493929190565b9450955050509150828092819251611a908161174a565b8281529190565b90516000925082918291611aaa8161174a565b6000815290600090565b9190604092835182828237602081848101600481520301902054918215611bc15782600052600260205284600020948051611aee8161172f565b86546001600160a01b039081168252908190611b0c60018a01611786565b6020820152600289015484820152611b2660038a01611786565b6060820152611b3760048a01611786565b6080820152600660ff60058b0154161515998a60a0840152015460c08201525116951695868614159081611bb9575b50611b7657505050505050600090565b611bab7fdb9dd5f58c27d38bf6ceea5cef7e066b4deca5c5e56996096703493294f09099938251938385948552840191611957565b4260208301520390a4600190565b905038611b66565b5050505050600090565b15611bd257565b60405162461bcd60e51b8152602060048201526015602482015274149958dbdc9908191bd95cc81b9bdd08195e1a5cdd605a1b6044820152606490fd5b15611c1657565b60405162461bcd60e51b815260206004820152601060248201526f2737ba103932b1b7b9321037bbb732b960811b6044820152606490fd5b3d15611c79573d90611c5f8261182c565b91611c6d6040519384611765565b82523d6000602084013e565b606090565b60ff6001541615611c8b57565b604051638dfc202b60e01b8152600490fd5b6001600160401b03811161081a5760051b60200190565b80518210156116df5760209160051b01019056fea264697066735822122055bca9e02e0fffc28de39c3a4c8e7a24e40e145a17954c93658295f4b7bb5e3164736f6c63430008140033",
  "linkReferences": {},
  "deployedLinkReferences": {}
}