{
  "_format": "hh-sol-artifact-1",
  "contractName": "QuillyToken",
  "sourceName": "contracts/QuillyToken.sol",
  "abi": [
    {
      "inputs": [],
      "stateMutability": "nonpayable",
      "type": "constructor"
    },
    {
      "anonymous": false,
      "inputs": [
        {
          "indexed": true,
          "internalType": "address",
          "name": "owner",
          "type": "address"
        },
        {
          "indexed": true,
          "internalType": "address",
          "name": "spender",
          "type": "address"
        },
        {
          "indexed": false,
          "internalType": "uint256",
          "name": "value",
          "type": "uint256"
        }
      ],
      "name": "Approval",
      "type": "event"
    },
    {
      "anonymous": false,
      "inputs": [
        {
          "indexed": true,
          "internalType": "address",
          "name": "user",
          "type": "address"
        },
        {
          "indexed": false,
          "internalType": "uint256",
          "name": "amount",
          "type": "uint256"
        }
      ],
      "name": "FaucetClaim",
      "type": "event"
    },
    {
      "anonymous": false,
      "inputs": [
        {
          "indexed": true,
          "internalType": "address",
          "name": "from",
          "type": "address"
        },
        {
          "indexed": true,
          "internalType": "address",
          "name": "to",
          "type": "address"
        },
        {
          "indexed": false,
          "internalType": "uint256",
          "name": "amount",
          "type": "uint256"
        },
        {
          "indexed": false,
          "internalType": "string",
          "name": "articleId",
          "type": "string"
        }
      ],
      "name": "Tip",
      "type": "event"
    },
    {
      "anonymous": false,
      "inputs": [
        {
          "indexed": true,
          "internalType": "address",
          "name": "from",
          "type": "address"
        },
        {
          "indexed": true,
          "internalType": "address",
          "name": "to",
          "type": "address"
        },
        {
          "indexed": false,
          "internalType": "uint256",
          "name": "value",
          "type": "uint256"
        }
      ],
      "name": "Transfer",
      "type": "event"
    },
    {
      "inputs": [
        {
          "internalType": "address",
          "name": "_owner",
          "type": "address"
        },
        {
          "internalType": "address",
          "name": "spender",
          "type": "address"
        }
      ],
      "name": "allowance",
      "outputs": [
        {
          "internalType": "uint256",
          "name": "",
          "type": "uint256"
        }
      ],
      "stateMutability": "view",
      "type": "function"
    },
    {
      "inputs": [
        {
          "internalType": "address",
          "name": "spender",
          "type": "address"
        },
        {
          "internalType": "uint256",
          "name": "amount",
          "type": "uint256"
        }
      ],
      "name": "approve",
      "outputs": [
        {
          "internalType": "bool",
          "name": "",
          "type": "bool"
        }
      ],
      "stateMutability": "nonpayable",
      "type": "function"
    },
    {
      "inputs": [
        {
          "internalType": "address",
          "name": "account",
          "type": "address"
        }
      ],
      "name": "balanceOf",
      "outputs": [
        {
          "internalType": "uint256",
          "name": "",
          "type": "uint256"
        }
      ],
      "stateMutability": "view",
      "type": "function"
    },
    {
      "inputs": [],
      "name": "claimFaucet",
      "outputs": [],
      "stateMutability": "nonpayable",
      "type": "function"
    },
    {
      "inputs": [],
      "name": "decimals",
      "outputs": [
        {
          "internalType": "uint8",
          "name": "",
          "type": "uint8"
        }
      ],
      "stateMutability": "view",
      "type": "function"
    },
    {
      "inputs": [],
      "name": "faucetAmount",
      "outputs": [
        {
          "internalType": "uint256",
          "name": "",
          "type": "uint256"
        }
      ],
      "stateMutability": "view",
      "type": "function"
    },
    {
      "inputs": [],
      "name": "faucetCooldown",
      "outputs": [
        {
          "internalType": "uint256",
          "name": "",
          "type": "uint256"
        }
      ],
      "stateMutability": "view",
      "type": "function"
    },
    {
      "inputs": [
        {
          "internalType": "address",
          "name": "",
          "type": "address"
        }
      ],
      "name": "lastFaucetClaim",
      "outputs": [
        {
          "internalType": "uint256",
          "name": "",
          "type": "uint256"
        }
      ],
      "stateMutability": "view",
      "type": "function"
    },
    {
      "inputs": [],
      "name": "name",
      "outputs": [
        {
          "internalType": "string",
          "name": "",
          "type": "string"
        }
      ],
      "stateMutability": "view",
      "type": "function"
    },
    {
      "inputs": [],
      "name": "owner",
      "outputs": [
        {
          "internalType": "address",
          "name": "",
          "type": "address"
        }
      ],
      "stateMutability": "view",
      "type": "function"
    },
    {
      "inputs": [],
      "name": "symbol",
      "outputs": [
        {
          "internalType": "string",
          "name": "",
          "type": "string"
        }
      ],
      "stateMutability": "view",
      "type": "function"
    },
    {
      "inputs": [
        {
          "internalType": "address",
          "name": "writer",
          "type": "address"
        },
        {
          "internalType": "uint256",
          "name": "amount",
          "type": "uint256"
        },
        {
          "internalType": "string",
          "name": "articleId",
          "type": "string"
        }
      ],
      "name": "tipWriter",
      "outputs": [],
      "stateMutability": "nonpayable",
      "type": "function"
    },
    {
      "inputs": [],
      "name": "totalSupply",
      "outputs": [
        {
          "internalType": "uint256",
          "name": "",
          "type": "uint256"
        }
      ],
      "stateMutability": "view",
      "type": "function"
    },
    {
      "inputs": [
        {
          "internalType": "address",
          "name": "recipient",
          "type": "address"
        },
        {
          "internalType": "uint256",
          "name": "amount",
          "type": "uint256"
        }
      ],
      "name": "transfer",
      "outputs": [
        {
          "internalType": "bool",
          "name": "",
          "type": "bool"
        }
      ],
      "stateMutability": "nonpayable",
      "type": "function"
    },
    {
      "inputs": [
        {
          "internalType": "address",
          "name": "sender",
          "type": "address"
        },
        {
          "internalType": "address",
          "name": "recipient",
          "type": "address"
        },
        {
          "internalType": "uint256",
          "name": "amount",
          "type": "uint256"
        }
      ],
      "name": "transferFrom",
      "outputs": [
        {
          "internalType": "bool",
          "name": "",
          "type": "bool"
        }
      ],
      "stateMutability": "nonpayable",
      "type": "function"
    }
  ],
  "bytecode": "0x6080604052346101a9576100146003546101ae565b601f811161015c575b507f5175696c6c7920546f6b656e000000000000000000000000000000000000001860035560045461004e906101ae565b601f811161010f575b600a64145552531360da1b016004556005805468056bc75e2d631000006007556201518060089081556001600160a81b031990911633821b610100600160a81b03161760121780835569d3c21bcecceda1000000600281905590821c6001600160a01b03908116600090815260208181526040808320859055955495519384529490931c16927fddf252ad1be2c89b69c2b068fc378daa952ba7f163c4a11628f55a4df523b3ef91a3604051610aee90816101e98239f35b6004600090815290601f0160051c7f8a35acfbc15ff81a39ae7d344fd709f28e8600b4aa8c65c6b64bfe7fe36bd19b908101905b818110610151575050610057565b828155600101610143565b6003600090815290601f0160051c7fc2575a0e9e593c00f959f8c92f12db2869c3395a3b0502d05e2516446f71f85b908101905b81811061019e57505061001d565b828155600101610190565b600080fd5b90600182811c921680156101de575b60208310146101c857565b634e487b7160e01b600052602260045260246000fd5b91607f16916101bd56fe608060408181526004918236101561001657600080fd5b600092833560e01c91826306fdde03146106f457508163095ea7b3146106ca57816318160ddd146106ab57816323b872dd146105ea578163313ce567146105c85781634fe153351461049a57816370a08231146104635781637e36320b146104445781638a8772051461040c5781638da5cb5b146103df57816395d89b41146102c05781639c281430146102a1578163a9059cbb14610270578163b358b6bf14610115575063dd62ed3e146100ca57600080fd5b34610111578060031936011261011157806020926100e6610815565b6100ee610830565b6001600160a01b0391821683526001865283832091168252845220549051908152f35b5080fd5b9190503461026c57606036600319011261026c57610131610815565b90602435906044359067ffffffffffffffff9384831161026857366023840112156102685782860135948511610268573660248685010111610268576001600160a01b03811695861561022c5784156101e9575083928580936101b87fafb35acfea9a0921fe84d2b828fcd2f9aadad14827c8b43e341b89e5282b30ea9760249533610876565b805195865280602087015285015201606083013784606084830101526060813394601f80199101168101030190a380f35b606490602084519162461bcd60e51b8352820152601d60248201527f416d6f756e74206d7573742062652067726561746572207468616e20300000006044820152fd5b606490602084519162461bcd60e51b83528201526016602482015275496e76616c696420777269746572206164647265737360501b6044820152fd5b8680fd5b8280fd5b50503461011157806003193601126101115760209061029a610290610815565b6024359033610876565b5160018152f35b5050346101115781600319360112610111576020906007549051908152f35b838334610111578160031936011261011157805190828454600181811c908083169283156103d5575b60209384841081146103c2578388529081156103a65750600114610351575b505050829003601f01601f191682019267ffffffffffffffff84118385101761033e575082918261033a9252826107cc565b0390f35b634e487b7160e01b815260418552602490fd5b8787529192508591837f8a35acfbc15ff81a39ae7d344fd709f28e8600b4aa8c65c6b64bfe7fe36bd19b5b8385106103925750505050830101858080610308565b80548886018301529301928490820161037c565b60ff1916878501525050151560051b8401019050858080610308565b634e487b7160e01b895260228a52602489fd5b91607f16916102e9565b505034610111578160031936011261011157600554905160089190911c6001600160a01b03168152602090f35b5050346101115760203660031901126101115760209181906001600160a01b03610434610815565b1681526006845220549051908152f35b5050346101115781600319360112610111576020906008549051908152f35b5050346101115760203660031901126101115760209181906001600160a01b0361048b610815565b16815280845220549051908152f35b90503461026c578260031936011261026c57338352602090600682526104c68385205460085490610869565b42106105875760055460081c6001600160a01b03908116855284835283852054600754919291116105445750906105367fcc2505ec091bdc5fd7142331ffc3324587b40a9880fc5272f28515d2249fe05a9233865260068352428587205560055460081c16600754903390610876565b60075492519283523392a280f35b835162461bcd60e51b8152908101839052601b60248201527f496e73756666696369656e74206661756365742062616c616e636500000000006044820152606490fd5b915162461bcd60e51b815291820152601760248201527f46617563657420636f6f6c646f776e206e6f74206d65740000000000000000006044820152606490fd5b50503461011157816003193601126101115760209060ff600554169051908152f35b905082346106a85760603660031901126106a857610606610815565b9161060f610830565b846044359360018060a01b0386168152600160205281812033825260205220549183831061065b5760208661029a87610653888861064e828a86610876565b610846565b9033906109cd565b608490602087519162461bcd60e51b8352820152602160248201527f5472616e7366657220616d6f756e74206578636565647320616c6c6f77616e636044820152606560f81b6064820152fd5b80fd5b5050346101115781600319360112610111576020906002549051908152f35b50503461011157806003193601126101115760209061029a6106ea610815565b60243590336109cd565b8490843461026c578260031936011261026c5782600354600181811c908083169283156107c2575b60209384841081146103c2578388529081156103a6575060011461076c57505050829003601f01601f191682019267ffffffffffffffff84118385101761033e575082918261033a9252826107cc565b600387529192508591837fc2575a0e9e593c00f959f8c92f12db2869c3395a3b0502d05e2516446f71f85b5b8385106107ae5750505050830101858080610308565b805488860183015293019284908201610798565b91607f169161071c565b6020808252825181830181905290939260005b82811061080157505060409293506000838284010152601f8019910116010190565b8181018601518482016040015285016107df565b600435906001600160a01b038216820361082b57565b600080fd5b602435906001600160a01b038216820361082b57565b9190820391821161085357565b634e487b7160e01b600052601160045260246000fd5b9190820180921161085357565b6001600160a01b03908116918215610988571691821561094357600082815280602052816040822054106108fe577fddf252ad1be2c89b69c2b068fc378daa952ba7f163c4a11628f55a4df523b3ef9160408285602094528084528181206108df848254610846565b9055868152808452206108f3828254610869565b9055604051908152a3565b60405162461bcd60e51b815260206004820152601f60248201527f5472616e7366657220616d6f756e7420657863656564732062616c616e6365006044820152606490fd5b60405162461bcd60e51b815260206004820152601860248201527f5472616e7366657220746f207a65726f206164647265737300000000000000006044820152606490fd5b60405162461bcd60e51b815260206004820152601a60248201527f5472616e736665722066726f6d207a65726f20616464726573730000000000006044820152606490fd5b6001600160a01b03908116918215610a735716918215610a2e5760207f8c5be1e5ebec7d5bd14f71427d1e84f3dd0314c0f7b2291e5b200ac8c7c3b925918360005260018252604060002085600052825280604060002055604051908152a3565b60405162461bcd60e51b815260206004820152601760248201527f417070726f766520746f207a65726f20616464726573730000000000000000006044820152606490fd5b60405162461bcd60e51b815260206004820152601960248201527f417070726f76652066726f6d207a65726f2061646472657373000000000000006044820152606490fdfea2646970667358221220d44f98a8e13dbd2912f3a0e07c85e633968b6179a848856324148c897cb9aef364736f6c63430008140033",
  "linkReferences": {},
  "deployedLinkReferences": {}
}